S00B00006D72662E73726563D4
S11300000C9456000C9468000C9468000C946800DE
S11300100C9468000C9468000C9468000C946800BC
S11300200C9468000C9468000C9468000C946800AC
S11300300C9468000C9468000C9468000C9468009C
S11300400C9468000C9468000C9468000C9468008C
S11300500C9468000C9468000C9468000C9468007C
S11300600C9468000C9468000C9468000C9468006C
S11300700C9468000C9468000C9468000C9468005C
S11300800C9468000C9468000C9468000C9468004C
S11300900C9468000C9468000C9468000C9468003C
S11300A00C9468000C9468000C94680011241FBE22
S11300B0CFEFDAE0DEBFCDBF21E0A0E0B1E001C0C8
S11300C01D92AA30B207E1F70E946A000C944C0119
S11300D00C9400004AE060E181E00E94A50080EAFF
S11300E08093000110E3D5E7C0E42FEF83ED90E3A4
S11300F0215080409040E1F700C000004AE060E0F9
S113010071E08CE10E94FB00212F3D2F05C0019777
S1130110F1F72150310919F082E390E0F8CF6E9A9B
S11301208EB18C278EB9E1CF589A599A5A9A8CE09D
S11301308093B800E9E6F0E080818062808380816A
S11301408F7E8083EA9A789408951F93CF93DF93E8
S1130150182FD62FC42F0E94940094EA9093BC00C9
S1130160ECEBF0E090819923ECF790E59093BB00E1
S113017094E89093BC00ECEBF0E090819923ECF7C9
S11301809091B900987F903229F484E98093BC005F
S113019080E02DC081E08093BB0084E88093BC00A4
S11301A0ECEBF0E090819923ECF71093BB0084E82A
S11301B08093BC00ECEBF0E080818823ECF7D093D3
S11301C0BB0084E88093BC00ECEBF0E080818823E2
S11301D0ECF7C093BB0084E88093BC00ECEBF0E048
S11301E080818823ECF784E98093BC0081E0DF916F
S11301F0CF911F910895CF93DF93F89494EA90934D
S1130200BC00ECEBF0E090819923ECF790E590933F
S1130210BB0094E89093BC00ECEBF0E09081992350
S1130220ECF79091B900987F903231F484E980938F
S1130230BC00789480E02DC093E09093BB0094E8D8
S11302409093BC00ECEBF0E090819923ECF7809361
S1130250BB0084E88093BC00ECEBF0E08081882351
S1130260ECF7442389F0DB01640F711DCBEBD0E084
S1130270ECEBF0E094E88D9188839083808188236F
S1130280ECF7A617B707B9F784E98093BC00789414
S10F029081E0DF91CF910895F894FFCF36
S9030000FC
