S00F0000414443546573742E73726563AD
S11300000C94CF000C94EC000C94EC000C94EC00D9
S11300100C94EC000C94EC000C94EC000C94EC00AC
S11300200C94EC000C94EC000C947E020C94BC0236
S11300300C94EC000C94EC000C94EC000C94EC008C
S11300400C94EC000C94EC000C94EC000C94EC007C
S11300500C94EC000C94EC000C94EC000C94EC006C
S11300600C94EC000C94EC000C94EC000C94EC005C
S11300700C94EC000C949C010C94EC000C94EC009B
S11300800C94EC000C94EC000C94EC000C94EC003C
S11300900C94EC000C94EC000C94EC000C94EC002C
S11300A00C94EC000C94EC000C94EC000A0020205E
S11300B07C7C2020524C3A200020207C7C20205242
S11300C0523A200020207C7C2020464C3A200020FC
S11300D0207C7C202046523A200020207C7C20205A
S11300E054323A200054313A2000000100008101CA
S11300F012000200003E0143000300003A01040123
S1130100030904260112020309041E01060303095C
S11301100414010808033400310030000000060311
S11301204D003200000012034A002E002000460059
S1130130690065006E0065000000040309040902FB
S11301404300020100C03209040000010202010060
S113015005240010010524010101042402060524DC
S11301600600010705820310004009040100020A89
S11301700000000705030240000007058402400058
S1130180001201000202000010C0167A04000101EE
S11301900203010001C112018036018136001124DD
S11301A01FBECFEFDAE0DEBFCDBF11E0A0E0B1E0CB
S11301B0ECE8F9E002C005900D92A830B107D9F738
S11301C021E0A8E0B1E001C01D92AA31B207E1F735
S11301D00E94CA010C94C4040C940000CF93DF93D2
S11301E080E885BF85BFCCE7D0E088818F7788839E
S11301F0888180648883EAE7F0E08081816080837D
S1130200808182608083808184608083AEE7B0E0F7
S11302108C9181608C938C9182608C938C918061A1
S11302208C938C9180628C938C9180648C938C9150
S113023080688C9380818860808388818B7F8883A9
S113024088818D7F888388818160888380818068AC
S11302508083808180648083DF91CF910895809131
S11302600801909109012091780030917900FC01F6
S1130270EE0FFF1FE25FFE4F31832083019686302D
S113028091052CF4909309018093080104C0109205
S1130290090110920801EAE7F0E080818F778083FA
S11302A0809108019091090182309105F9F02CF4B4
S11302B0009751F00197A1F036C08430910529F1DF
S11302C0F4F0059759F12FC0ECE7F0E080818B7FC3
S11302D0808380818D7F808380818E7F808323C013
S11302E0ECE7F0E08081816080831DC0ECE7F0E002
S11302F080818E7F808380818460808314C0ECE75A
S1130300F0E08081816080830EC0ECE7F0E08081C2
S11303108E7F808380818260808305C0ECE7F0E07B
S1130320808181608083EAE7F0E080818068808357
S113033080818064808308951F920F920FB60F927C
S113034011242F933F934F935F936F937F938F93D6
S11303509F93AF93BF93EF93FF93EAE7F0E080811D
S1130360806180830E942F016A9A9EB184E089276C
S11303708EB9FF91EF91BF91AF919F918F917F9132
S11303806F915F914F913F912F910F900FBE0F90FE
S11303901F9018950E94EE000E940A02CEE0D1E060
S11303A010E485EE90E00E943F04888199810E94C8
S11303B05B048AED90E00E943F048A819B810E9445
S11303C05B048FEC90E00E943F048C819D810E942D
S11303D05B0484EC90E00E943F048E819F810E9424
S11303E05B0489EB90E00E943F04888599850E9414
S11303F05B048EEA90E00E943F048A859B850E94FC
S11304005B048CEA90E00E943F046E9A8EB18127CF
S11304108EB9C7CF81E08093D70080EA8093D8005B
S113042082E189BD09B400FEFDCF80E98093D80044
S11304301092E00010920D0110920A018CE080935A
S1130440E20078940895CF93DF9390910D0199235E
S113045009F44CC09FB7F89424E02093E90020915C
S11304600B01222349F02091E80025FD03C09FBF22
S11304708FEF41C010920B013091E400375E209160
S1130480E80025FD24C09FBF9091E400931781F0FC
S113049090910D01992361F1A9EEB0E044E0E8EEFA
S11304A0F0E0C4EED0E00DC09FBF9881931305C067
S11304B081E080930B018FEF1EC090910D01992371
S11304C0C9F09FB7F8944C93208125FFEDCF80931A
S11304D0F1008091E80085FD03C08AE38093E80081
S11304E085E080930C019FBF80E005C08FEF03C0BF
S11304F08FEF01C08FEFDF91CF9108951F920F927C
S11305000FB60F9211248F939F93EF93FF93E1EE15
S1130510F0E08081108283FF11C01092E90091E025
S11305209093EB001092EC0092E19093ED0098E030
S11305309093F00010920D0110920A0182FF13C0F3
S113054080910D01882379F080910C01882359F062
S1130550815080930C01811106C084E08093E900EE
S11305608AE38093E800FF91EF919F918F910F9020
S11305700FBE0F901F9018951F920F920FB60F92F7
S113058011240F931F932F933F934F935F936F9374
S11305907F938F939F93AF93BF93CF93DF93EF9307
S11305A0FF931092E9008091E80083FF4CC1E1EFD2
S11305B0F0E0608180812081908130E0392B40819E
S11305C0908150E0592B7081C08192EF9093E800A4
S11305D0863009F058C004C081E28093EB003AC130
S11305E066E08AEE90E0FC01A591B4912A173B07DE
S11305F011F0079623C0FC013296A591B4914A17D5
S11306005B0711F007961AC0FC013496459154918A
S1130610FC0136962491872F90E09C2B8F3F910507
S113062019F010F08FEF90E0821708F4282FA8EE4D
S1130630B0E070E16EEFC1EFD0E003C0615099F615
S1130640CBCF8C91982F9570E1F382FD03C1322FAB
S1130650213108F0372F332309F4F9C0FA01832F2D
S113066094919883815031968111FACF8FEF830F43
S113067090E00196480F591F231B6C932111E1CF81
S11306803031F9F2E7C0853061F48EEF8093E800F1
S1130690E8EEF0E0808180FFFDCF20682093E30046
S11306A0D9C0893009F035C06111CDC020930D0146
S11306B010920A0110920C018EEF8093E80081E001
S11306C023E931E0C9EED0E0ABEEB0E00CEE10E08F
S11306D06DEE70E08883A9014F5F5F4FF90194913B
S11306E09C93992361F0FA014491F8014083F90144
S11306F0329694912D5F3F4FFB01908301C09A0184
S11307008F5F853039F7EAEEF0E08EE18083108266
S1130710A1C0883081F4603809F095C0E8EEF0E0BB
S1130720808180FFFDCF80910D018093F1008EEFD9
S11307308093E8008FC08132B9F4613A09F083C034
S1130740E8EEF0E0808180FFFDCFE0E0F1E027E01B
S113075031E0A1EFB0E081918C93E217F307D9F770
S11307608EEF8093E80076C08032D1F4613209F0D4
S11307706AC0E8EEF0E0808182FFFDCFE0E0F1E0C6
S113078027E031E0A1EFB0E08C918193E217F30709
S1130790D9F7E8EEF0E08BEF80838EEF80835AC0C8
S11307A0823271F4613209F04EC020930A01E8EEFE
S11307B0F0E0808180FFFDCF8EEF8093E8004AC097
S11307C081111AC0E8EEF0E0808180FFFDCF62382D
S11307D051F4E9EEF0E040838091EB0085FB88273B
S11307E080F9108201C080E0E1EFF0E080831082A4
S11307F08EEF8093E8002EC0982F9D7F913019F5DD
S1130800623009F5232BF9F44F779FEF940F94305E
S1130810D0F49EEF9093E8004093E900833021F4F4
S113082081E28093EB0016C089E18093EB0081E0C4
S113083090E002C0880F991F4A95E2F7EAEEF0E0D3
S11308408083108207C081E28093EB0003C06C9325
S11308502111F7CEFF91EF91DF91CF91BF91AF912D
S11308609F918F917F916F915F914F913F912F91C4
S11308701F910F910F900FBE0F901F9018950F931B
S11308801F93CF938C010F5F1F4FFC01C491CC23A6
S113089071F0CA3019F48DE00E9423028C2F0E945B
S11308A02302F801C4910F5F1F4FC111F2CFCF9102
S11308B01F910F910895EF92FF920F931F93CF937F
S11308C0DF93CDB7DEB727970FB6F894DEBF0FBE20
S11308D0CDBF8E010F5F1F4F27E0F80111922A95BB
S11308E0E9F74AE0B8010E948F047E01F8E0EF0EB8
S11308F0F11CF80181918F0181110E9423020E15D0
S11309001F05B9F727960FB6F894DEBF0FBECDBF0B
S1130910DF91CF911F910F91FF90EF900895BB2726
S11309204A3031F4992322F4BDE2909581959F4F8A
S11309300C949B04BB27FB015527AA27880F991FFA
S1130940AA1FA41710F0A41B83955051B9F7A05DFA
S1130950AA3308F0A95DA193009779F7B111B19377
S11309601192CB010C94B404DC01FC01672F71914A
S11309707723E1F7329704C07C916D937083629181
S10F0980AE17BF07C8F30895F894FFCF2A
S10B098C00E100000000080076
S9030000FC
