:100000000C9498020C94B5020C94B5020C949119BE
:100010000C94B5020C94B5020C94B5020C94B50284
:100020000C94B5020C942C1A0C9431150C946B158D
:100030000C94B5020C94B5020C94B5020C94B50264
:100040000C94B5020C94B5020C94B5020C94B50254
:100050000C94B5020C94B5020C94B5020C94B50244
:100060000C94B5020C94B5020C94B5020C94B50234
:100070000C94B5020C94B5020C94B5020C94B50224
:100080000C94B5020C94B5020C94B5020C94B50214
:100090000C94B5020C94B5020C94B5020C94B50204
:1000A0000C94B5020C94B5020C94B502D914D11479
:1000B000C914C114B914B114A914A1149914911438
:1000C0008914811479147114691461145914511428
:1000D0004914411439143114291421141914111418
:1000E00009140114F913F113E913E113D913D1130E
:1000F000C913C113B913B113A913A1139913911300
:1001000089138113791371136913611359135113EF
:1001100049134113391331132913211319131113DF
:1001200009130113F912F112E912E112D912BB19E4
:10013000C219CD19D019D319E119D619D9190A0044
:100140002020202020204F435231423A20202000FE
:100150004F435231433A202020004C65667420748E
:1001600075726E2020200052696768742074757261
:100170006E202020000A00202020636F735F6F72C2
:10018000695F676F616C3A20200020202073696EE0
:100190005F6F72695F676F616C3A2020000A002010
:1001A0002020636F735F726F626F5F676F616C3A7D
:1001B00020200020202073696E5F726F626F5F677E
:1001C0006F616C3A2020000A00202020636F735F6B
:1001D00074686574615F726F626F3A20200020203E
:1001E0002073696E5F74686574615F726F626F3AE5
:1001F0002020000A00202020795F706F73697469E5
:100200006F6E3A202000785F706F736974696F6E4B
:100210003A2020000A00202020676F616C5B315D6E
:100220003A202000676F616C5B305D3A2020000A45
:10023000006D61782064697374616E6365206F7509
:1002400074206F662072616E6765000A000A0020E4
:100250002020526967687420466F72776172643A31
:100260002020004C656674204261636B7761726484
:100270003A2020000A00202020526967687420423A
:1002800061636B776172643A2020004C656674206C
:10029000466F72776172643A2020000A00202020A5
:1002A000526967687420466F72776172643A2020E1
:1002B000004C65667420466F72776172643A202044
:1002C000000A002020205269676874204261636B35
:1002D000776172643A2020004C65667420466F7224
:1002E000776172643A2020000A002020205269675A
:1002F000687420466F72776172643A2020004C6502
:10030000667420466F72776172643A2020000A009A
:10031000202020526967687420466F72776172648A
:100320003A2020004C656674204261636B776172ED
:10033000643A2020000A0020202052696768742057
:10034000466F72776172643A2020004C65667420B3
:10035000466F72776172643A2020000A00202020E4
:10036000526967687420466F72776172643A202020
:10037000004C656674204261636B776172643A2059
:1003800020000A00202020526967687420466F729E
:10039000776172643A2020004C65667420466F7263
:1003A000776172643A2020000A0020202052696799
:1003B0006874204261636B776172643A2020004C5C
:1003C00065667420466F72776172643A202000433C
:1003D0006F6D70656E736174696F6E20666F7220E9
:1003E00072696768742066726F6E740A00436F6D7D
:1003F00070656E736174696F6E20666F72206C65D4
:1004000066742066726F6E740A000A002020200055
:10041000202020002020200020202000202020005C
:100420004E6F206566666563746976652049520A79
:100430000000010000C8041200020000850443000F
:10044000030000810404010309046D04120203097E
:1004500004650406030309045B040808033400313F
:10046000003000000006034D003200000012034A75
:10047000002E0020004600690065006E0065000047
:10048000000403090409024300020100C032090408
:1004900000000102020100052400100105240101F1
:1004A000010424020605240600010705820310004A
:1004B0004009040100020A00000007050302400091
:1004C0000007058402400000120100020200001033
:1004D000C0167A040001010203010001C11201806B
:1004E0003601813647616D65206F7665720A004876
:1004F000616C6674696D650A0050617573650A0008
:10050000476F616C20420A00476F616C20520A00FD
:10051000506C6179200A00436F6D6D6F6E205465D9
:1005200073743A20666C617368204C4544200A005D
:1005300011241FBECFEFDAE0DEBFCDBF11E0A0E097
:10054000B1E0E0EBFBE302C005900D92A031B107F2
:10055000D9F721E0A0E1B1E001C01D92AB37B207AD
:10056000E1F70E948F1A0C94D61D0C9400002F9274
:100570003F924F925F926F927F928F929F92AF9233
:10058000BF92CF92DF92EF92FF920F931F93CF9380
:10059000DF93CDB7DEB7E2970FB6F894DEBF0FBE9C
:1005A000CDBF9EA38DA3CDB6DEB6D8AACFA688E1D7
:1005B00091E00E94D618E8E1F1E0A12CB12C208155
:1005C00031812F3F43E03407C9F0828193818F3F0F
:1005D00053E0950799F0D501AA0FBB1FCC24C39413
:1005E000D12CCC0EDD1EAC0DBD1D19963C932E9367
:1005F00018978D939C932FEFA21AB20A369631E08A
:10060000E033F307E1F643E0A416B1040CF424C58B
:10061000CDB6DEB6DAA6C9A69501215031093AA3B6
:1006200029A32A9DC0012B9D900D3A9D900D112468
:10063000959587959C01220F331F4DB75EB7421BDE
:10064000530B0FB6F8945EBF0FBE4DBF2DB73EB72C
:100650002F5F3F4F38A72FA3880F991F880F991F2F
:10066000481B590B0FB6F8945EBF0FBE4DBF8DB738
:100670009EB701963C018E01075F1F4FBE016F5F61
:100680007F4F212C312C1A8E198EA98DBA8D11967F
:10069000BA8BA98BF101EE0FFF1FEE0FFF1FE60DC6
:1006A000F71DFAABE9AB6101CC0CDD1C2FA138A51D
:1006B0002C0D3D1D3E8F2D8F7D01412C512CEA14B8
:1006C000FB040CF080C0E98DFA8DA9A9BAA9119696
:1006D000FC93EE931396FC92EE921297D8018D91B3
:1006E0009C91F801E40DF51D22813381821B930B4F
:1006F000FB0120813181E40DF51D42815381241BD2
:10070000350B229FA001239F500D500D1124889F6F
:100710009001899F300D300D1124420F531FED8D34
:10072000FE8DE40DF51D518340839F01E9A9FAA9CF
:10073000410181149104B9F1D9010D90BC91A02D12
:10074000BE8BAD8BB1E08B1A9108D9015E914E91B1
:10075000CD0134979D01CD88DE884C155D051CF5D3
:10076000C080D180DCA6CBA6A281B381BEA7ADA7F5
:10077000C480D580D182C082C680D780D382C28215
:10078000CD88DE88DC01CD92DC92ABA5BCA5B5831B
:10079000A483CDA4DEA4D782C682DC0113965C9329
:1007A0004E931297C6CF2FEF221A320A3FEFE31A69
:1007B000F30A49A95AA94C5F5F4F5AAB49AB52E0C3
:1007C000450E511C7CCF0E5F1F4F6E5F7F4F898996
:1007D0009A89A9A1BAA18A179B071CF49A8F898FBD
:1007E00054CF8BE492E00E94BA16EFA1F8A50081E5
:1007F0001181013EFEE21F0774F081E392E00E9446
:10080000BA16B801882777FD8095982F0E94871720
:100810008FE292E018C4D3018D909C9011971496AA
:100820006D917C91159712968D919C91139701343F
:10083000BFE11B07B4F19401220F331F8616970600
:1008400031F0F3014681578184169506A9F4E1E061
:10085000F0E0EC0FFD1FE20FF31FE084F184008154
:100860001181FC01EE0FFF1FCC24C394D12CCC0EC0
:10087000DD1EEC0DFD1D10C0FC01EE0FFF1F41E061
:1008800050E04C0F5D1FE40FF51FE084F184008100
:100890001181FA01E20FF31FC084D18420803180DE
:1008A00088C1D3011696AD90BC90179701371741B8
:1008B0000CF4BDC0880E991EF401E60FF71FEA0D77
:1008C000FB1D3397EE0FFF1FCC24C394D12CCC0E0D
:1008D000DD1EEC0DFD1DE084F18400811181D3014A
:1008E00018962D913C9119971A964D915C911B97F2
:1008F000820E931E840E951EB3E08B1A9108A60EED
:10090000B71EA20EB31EA40EB51EE3E0AE1AB108C8
:10091000B701882777FD8095982F0E94FC1B2B013B
:100920003C01880C991C8C0C9D1CD40118966D916F
:100930007C9119976E197F0980E090E00E94FA1B64
:1009400021EA37E643EF5EE30E94B01C698B7A8BA5
:100950008B8B9C8BAA0CBB1CAC0CBD1CF501608561
:1009600071856E197F0980E090E00E94FA1B20E3F8
:100970003CE446E05FE30E94B01C9B01AC01698946
:100980007A898B899C890E94F91A27E634E44DE420
:1009900050E40E94B01C9B01AC01C301B2010E9453
:1009A000F91A0E94C91B6B01B801882777FD809551
:1009B000982F0E94FC1B2B013C01D4016D917C916E
:1009C000601B710B80E090E00E94FA1B21EA37E681
:1009D00043EF5EE30E94B01C698B7A8B8B8B9C8B00
:1009E000F50160817181601B710B80E090E00E94D5
:1009F000FA1B20E33CE446E05FE30E94B01C9B014D
:100A0000AC0169897A898B899C890E94F91A27E649
:100A100034E44DE450E40E94B01C9B01AC01C301DE
:100A2000B2010E94F91A0E94C91B1B01C2C0D30166
:100A300018964D915C9119971A962D913C911B97A0
:100A4000FB01EA0DFB1DE40FF51FE20FF31F3397C7
:100A5000EE0FFF1FCC24C394D12CCC0EDD1EEC0D69
:100A6000FD1DC084D18420803180880E991E8401B0
:100A7000060F171F0A0D1B1D03501109840E951E2A
:100A8000820E931E23E0821A9108B601882777FD13
:100A90008095982F0E94FC1B2B013C01880C991C0F
:100AA00041E050E04C0F5D1F840E951ED401189656
:100AB0006D917C9119976C197D0980E090E00E94FE
:100AC000FA1B21EA37E643EF5EE30E94B01C698B14
:100AD0007A8B8B8B9C8B000F111FE1E0F0E0EC0F09
:100AE000FD1F0E0F1F1FD80118966D917C9119974D
:100AF0006C197D0980E090E00E94FA1B20E33CE441
:100B000046E05FE30E94B01C9B01AC0169897A89D1
:100B10008B899C890E94F91A27EE3BEF49EB5FE332
:100B20000E94B01C9B01AC01C301B2010E94F91AE2
:100B30000E94C91B7B01B101882777FD8095982F02
:100B40000E94FC1B2B013C01F40160817181621940
:100B5000730980E090E00E94FA1B21EA37E643EF38
:100B60005EE30E94B01C4B015C01D8016D917C9149
:100B70006219730980E090E00E94FA1B20E33CE4D4
:100B800046E05FE30E94B01C9B01AC01C501B401CB
:100B90000E94F91A27EE3BEF49EB5FE30E94B01C7D
:100BA0009B01AC01C301B2010E94F91A0E94C91B4A
:100BB0008B0136016E187F082101401A510A449CAE
:100BC000B001459C700D700D1124669CC001679C9E
:100BD000900D900D1124680F791F882777FD80955F
:100BE000982F0E94FC1B0E94171D4B015C01B20153
:100BF000882777FD8095982F0E94FC1BA501940102
:100C00000E94611B698B7A8B8B8B9C8B60935F013D
:100C1000709360018093610190936201B301882712
:100C200077FD8095982F0E94FC1BA50194010E94DE
:100C3000611B698F7A8F8B8F9C8F60936701709394
:100C400068018093690190936A0180E094E08E19B5
:100C50009F098C199D0997FD0196BC0175956795B3
:100C6000882777FD8095982F0E94FC1B4B015C0123
:100C700080E093E0801B910B8219930997FD019608
:100C8000BC0175956795882777FD8095982F0E9400
:100C9000FC1B6B017C0129893A894B895C89C50160
:100CA000B4010E94B01C2B013C01298D3A8D4B8D63
:100CB0005C8DC701B6010E94B01C9B01AC01C30151
:100CC000B2010E94F81A6D8F7E8F8F8F98A3609368
:100CD0001001709311018093120190931301298DDB
:100CE0003A8D4B8D5C8DC501B4010E94B01C4B0147
:100CF0005C0129893A894B895C89C701B6010E9448
:100D0000B01C9B01AC01C501B4010E94F91A2B0172
:100D10003C01609314017093150180931601909328
:100D20001701EDA1FEA160817181882777FD809573
:100D3000982F0E94FC1B69A37AA38BA39CA39B0101
:100D4000AC016D8D7E8D8F8D98A10E94F81A4B019C
:100D50005C01ADA1BEA112966D917C91139788277D
:100D600077FD8095982F0E94FC1B6D8B7E8B8F8B5F
:100D7000988F9B01AC01C301B2010E94F81A6B016C
:100D80007C01A5019401C501B4010E94B01C4B0176
:100D90005C01A7019601C701B6010E94B01C9B012E
:100DA000AC01C501B4010E94F91A0E94171D6B0124
:100DB0007C0160935301709354018093550190938B
:100DC00056012D8D3E8D4F8D58A169A17AA18BA121
:100DD0009CA10E94F81AA70196010E94611B4B0179
:100DE0005C0160934F017093500180935101909387
:100DF0005201A30192016D897E898F89988D0E948D
:100E0000F81AA70196010E94611B6B017C01609397
:100E10006301709364018093650190936601A5015D
:100E20009401698D7A8D8B8D9C8D0E94B01C2B0155
:100E30003C01A701960169897A898B899C890E9466
:100E4000B01C9B01AC01C301B2010E94F81A60936F
:100E50005B0170935C0180935D0190935E01A5013D
:100E6000940169897A898B899C890E94B01C4B0105
:100E70005C01A7019601698D7A8D8B8D9C8D0E94F6
:100E8000B01C9B01AC01C501B4010E94F91A60932A
:100E90005701709358018093590190935A0184E24D
:100EA00092E00E94BA16EDA1FEA1808191810E947C
:100EB000EE1686E192E00E94BA16ADA1BEA112968E
:100EC0008D919C9113970E94EE1684E192E00E940E
:100ED000BA1686E092E00E94BA16609110017091F5
:100EE000110180911201909113010E94C91BCB0145
:100EF0000E94EE1685EF91E00E94BA1660911401EF
:100F00007091150180911601909117010E94C91BE3
:100F1000CB010E94EE1683EF91E00E94BA168EED8F
:100F200091E00E94BA1620E030E44CE156E4609172
:100F30006701709168018091690190916A010E9436
:100F4000B01C0E94C91BCB010E94EE1689EC91E0F7
:100F50000E94BA1620E030E44CE156E460915F0153
:100F60007091600180916101909162010E94B01CBA
:100F70000E94C91BCB010E94EE1687EC91E00E94F3
:100F8000BA1683EB91E00E94BA1620E030E44CE1FF
:100F900056E46091630170916401809165019091C4
:100FA00066010E94B01C0E94C91BCB010E94EE1674
:100FB0008FE991E00E94BA1620E030E44CE156E45B
:100FC00060914F01709150018091510190915201B7
:100FD0000E94B01C0E94C91BCB010E94EE168DE935
:100FE00091E00E94BA168AE891E00E94BA1620E0C9
:100FF00030E44CE156E460915B0170915C018091BA
:101000005D0190915E010E94B01C0E94C91BCB0142
:101010000E94EE1687E791E00E94BA1620E030E4C5
:101020004CE156E46091570170915801809159014B
:1010300090915A010E94B01C0E94C91BCB010E94D2
:10104000EE1685E791E00E94BA16C9A4DAA40FB69D
:10105000F894DEBE0FBECDBECFA4D8A80FB6F894CC
:10106000DEBE0FBECDBEE2960FB6F894DEBF0FBE59
:10107000CDBFDF91CF911F910F91FF90EF90DF9047
:10108000CF90BF90AF909F908F907F906F905F9028
:101090004F903F902F9008958F929F92AF92BF9262
:1010A000CF92DF92EF92FF920E94B70220E030E0F1
:1010B00040E251E4609153017091540180915501D7
:1010C000909156010E945D1B87FF09C010928D0010
:1010D00010928C0010928B0010928A002DC1C0904B
:1010E0005B01D0905C01E0905D01F0905E0120E03A
:1010F00030E0A901C701B6010E945D1B20E030E08D
:10110000A90187FF8CC060915701709158018091AF
:10111000590190915A010E945D1B87FD0AC022EA85
:1011200035E446E35FEBC701B6010E945D1B87FF14
:1011300033C080918C0090918D00019690938D002A
:1011400080938C0080918A0090918B0001979093FE
:101150008B0080938A0020918C0030918D008091CB
:101160008800909189008217930740F4809188004D
:101170009091890090938D0080938C0080918A00DB
:1011800090918B00892B09F047C081E090E090930B
:101190008B0080938A0040C08091880090918900E4
:1011A00090938D0080938C006091880070918900ED
:1011B00080E090E00E94FA1B4B015C0120E030E0EF
:1011C0004AEF52E4C701B6010E94B01C9B01AC017A
:1011D000C501B4010E94F91A4B015C012091300154
:1011E000309131014091320150913301C701B60174
:1011F0000E94F81A20E030E048E451E40E94B01C5C
:101200009B01AC01C501B4010E94F91A0E94CE1BDA
:1012100070938B0060938A0087E691E08BC06091A9
:101220005701709158018091590190915A010E9483
:101230005D1B87FD0AC022EA35E446E35FE3C70190
:10124000B6010E94AC1C18169CF580918C00909100
:101250008D00019790938D0080938C0080918A007F
:1012600090918B00019690938B0080938A008091DF
:101270008C0090918D00892B31F481E090E0909367
:101280008D0080938C0020918A0030918B0080919A
:101290008800909189008217930708F049C08091D7
:1012A00088009091890090938B0080938A0040C0C1
:1012B000809188009091890090938B0080938A00A0
:1012C000609188007091890080E090E00E94FA1B94
:1012D0004B015C0120E030E04AEF52E4C701B60167
:1012E0000E94B01C9B01AC01C501B4010E94F81A18
:1012F0004B015C012091300130913101409132016C
:1013000050913301C701B6010E94F81A20E030E085
:1013100048E451E40E94B01C9B01AC01C501B4013A
:101320000E94F81A0E94CE1B70938D0060938C006F
:101330008AE591E00E94BA162A9A2B9A80915B0165
:1013400090915C01A0915D01B0915E0180933001AC
:1013500090933101A0933201B093330180E591E085
:101360000E94BA1680918C0090918D000E94EE161A
:1013700080E491E00E94BA1680918A0090918B00DF
:101380000E94EE168EE391E0FF90EF90DF90CF90F9
:10139000BF90AF909F908F900C94BA16CF92DF922F
:1013A000EF92FF92CF9320915F01309160014091C5
:1013B00061015091620160914F01709150018091E3
:1013C0005101909152010E94B01C20E030E0A9012F
:1013D0000E945D1B87FF1DC0C0901401D0901501B5
:1013E000E0901601F090170120E030E04CE852E464
:1013F000C701B6010E945D1B87FF0BC0C1E020E062
:1014000030E046E153ECC701B6010E94AC1C18164F
:101410000CF0C0E08C2FCF91FF90EF90DF90CF9039
:101420000895FC01329624E030E080E090E04191A4
:101430005191841795070CF4CA01215031092115E7
:101440003105A9F7089580917A008F7780937A000B
:1014500080917C008B7F80937C0080917C008D7FCD
:1014600080937C0080917C008E7F80937C008091B3
:101470007A00806880937A0080917A0080648093FB
:101480007A0080917A0084FFFCCF2091780030911F
:10149000790080E094E0821B930B90936C01809321
:1014A0006B0180917A008F7E80937A0080917A0020
:1014B0008F7780937A0080917C008B7F80937C0073
:1014C00080917C008D7F80937C0080917C00816086
:1014D00080937C0080917A00806880937A0080916C
:1014E0007A00806480937A0080917A0084FFFCCF38
:1014F000209178003091790080E094E0821B930B7A
:10150000909376018093750120917A002F7E20932D
:101510007A0020916B0130916C01280F391F6E9A6F
:10152000293E33401CF0769881E00895769A8091A8
:101530007A008F7780937A0080917C008E7F8093F1
:101540007C0080917C008D7F80937C0080917C006A
:10155000846080937C0080917A00806880937A0018
:1015600080917A00806480937A0080917A0084FF71
:10157000FCCF209178003091790080E094E0821BCC
:10158000930B90936E0180936D0180917A008F7E12
:1015900080937A0080917A008F7780937A0080918F
:1015A0007C00816080937C0080917A0080688093C9
:1015B0007A0080917A00806480937A0080917A002A
:1015C00084FFFCCF209178003091790080E094E096
:1015D000821B930B9093700180936F0180917A002E
:1015E0008F7E80937A0080917A008F7780937A0043
:1015F00080917C008E7F80937C0080917C00826053
:1016000080937C0080917A00806880937A0080913A
:101610007A00806480937A0080917A0084FFFCCF06
:10162000209178003091790080E094E0821B930B48
:10163000909372018093710180917A008F7E8093E4
:101640007A0080917A008F7780937A0080917C0075
:10165000816080937C0080917A00806880937A001A
:1016600080917A00806480937A0080917A0084FF70
:10167000FCCF209178003091790080E094E0821BCB
:10168000930B909374018093730180917A008F7E05
:1016900080937A008BE691E00E94110A86399105C9
:1016A00034F480E294E00E94BA1680E008958091BC
:1016B0006B0190916C010E9422178CE194E00E94D2
:1016C000BA1680917501909176010E94221788E1E7
:1016D00094E00E94BA1680916D0190916E010E9473
:1016E000221784E194E00E94BA1680916F019091D4
:1016F00070010E94221780E194E00E94BA16809146
:101700007101909172010E9422178CE094E00E9476
:10171000BA1680917301909174010E9422178AE099
:1017200094E00E94BA1682E0089580E885BF85BFE4
:10173000ECE7F0E080818F77808380818064808314
:10174000EAE7F0E08081816080838081826080832D
:10175000808184608083EEE7F0E080818160808317
:1017600080818260808380818061808380818062CB
:1017700080838081806480838081806880830895F5
:101780008F929F92AF92BF92CF92DF92EF92FF9291
:10179000CF93DF9380913401811104C010923E01F8
:1017A00010923D010E94CE09882309F497C081E080
:1017B00080933401A0906D01B0906E0180906F0114
:1017C0009090700120917101309172012A0D3B1DA2
:1017D0008091730190917401880D991DC0913D0114
:1017E000D0913E0182179307E4F5B401882777FD75
:1017F0008095982F0E94FC1B6B017C01B501681934
:101800007909882777FD8095982F0E94FC1B23E398
:1018100033E343E35FE30E94B01C4B015C01BE0174
:10182000882777FD8095982F0E94FC1B29E23CE5D4
:101830004FE85DE30E94B01C9B01AC01C501B401FF
:101840000E94F91A9B01AC01C701B6010E94F91A66
:101850000E94C91B7093700160936F018DEE93E03D
:101860003BC0B501882777FD8095982F0E94FC1B0F
:101870006B017C01B4016A197B09882777FD80958B
:10188000982F0E94FC1B23E333E343E35FE30E94B2
:10189000B01C4B015C01BE01882777FD8095982F15
:1018A0000E94FC1B29E23CE54FE85DE30E94B01C6E
:1018B0009B01AC01C501B4010E94F81A9B01AC0167
:1018C000C701B6010E94F91A0E94C91B70936E01EC
:1018D00060936D018FEC93E00E94BA1680916D01C8
:1018E00090916E0120916F0130917001821B930BDA
:1018F00090933E0180933D01DF91CF91FF90EF9057
:10190000DF90CF90BF90AF909F908F9008958F926F
:101910009F92AF92BF92CF92DF92EF92FF920F937E
:101920001F93CF93DF93A0916D01B0916E01E09171
:101930006F01F09170019D012E1B3F0B30933C0114
:1019400020933B016091710170917201409173018C
:1019500050917401EB01C41BD50BD0933A01C09395
:101960003901EA0FFB1F460F571F4E175F070CF098
:101970009FC2121613060CF054C10E94B7020E94B7
:10198000CE09882321F0813009F4C7C049C3809172
:101990006D0190916E01813991400CF45BC0809192
:1019A0006F0190917001803991400CF053C0C0914B
:1019B0003B01D0913C01BE01882777FD8095982F8F
:1019C0000E94FC1B26E636E646EE5EE30E94B01C53
:1019D0006B017C018091370190913801BE01681B39
:1019E000790B882777FD8095982F0E94FC1B2AE0B1
:1019F00037ED43E25DE30E94B01C9B01AC01C701DF
:101A0000B6010E94F81A0E94CE1B70938D0060935D
:101A10008C0080918C0090918D0090938B0080932E
:101A20008A002A9A2B988FEB93E00E94BA16809135
:101A30008C0090918D000E94EE168AEA93E00E943D
:101A4000BA1680918A0090918B000E94EE1688EA67
:101A500093E0E4C2809188009091890090938D007A
:101A600080938C006091880070918900C0913B0147
:101A7000D0913C0180E090E00E94FA1B6B017C0158
:101A8000BE01882777FD8095982F0E94FC1B2DECC6
:101A90003CEC4CEC5EE30E94B01C9B01AC01C70126
:101AA000B6010E94F81A6B017C0180913701909178
:101AB0003801BE01681B790B882777FD8095982F28
:101AC0000E94FC1B2DEC3CEC4CEC5CE30E94B01C37
:101AD0009B01AC01C701B6010E94F91A0E94CE1BFE
:101AE00070938B0060938A002A9A2B9A88E993E07E
:101AF0000E94BA1680918C0090918D000E94EE1683
:101B000084E893E00E94BA1680918A0090918B003D
:101B10000E94EE1682E893E081C2C0913B01D09111
:101B20003C01CC3B82E0D8070CF052C06CEB72E079
:101B30006C1B7D0B882777FD8095982F0E94FC1BDE
:101B400023E333E343E35FE30E94B01C6B017C01BA
:101B50008091370190913801BE01681B790B88276D
:101B600077FD8095982F0E94FC1B29E23CE54FE809
:101B70005DE30E94B01C9B01AC01C701B6010E944D
:101B8000F91A0E94CE1B70938D0060938C00809197
:101B90008C0090918D0090938B0080938A002A98FE
:101BA0002B9A81E793E00E94BA1680918C00909165
:101BB0008D000E94EE168DE593E00E94BA1680918A
:101BC0008A0090918B000E94EE168BE593E026C26E
:101BD000809188009091890090938D0080938C0073
:101BE000809188009091890090938B0080938A0067
:101BF0002A9A2B9A8BE493E00E94BA1680918C006B
:101C000090918D000E94EE1687E393E00E94BA1631
:101C100080918A0090918B000E94EE1685E393E0FC
:101C2000FDC10E94B7020E94CE09C0913B01D09134
:101C30003C01882321F0813009F4BBC0F1C18091BF
:101C40006D0190916E01009137011091380180393A
:101C500091400CF053C080916F01909170018139D7
:101C600091400CF44BC0BE01882777FD8095982FDA
:101C70000E94FC1B26E636E646EE5EEB0E94B01C98
:101C80006B017C01BE01601B710B882777FD80957D
:101C9000982F0E94FC1B2AE037ED43E25DE30E948F
:101CA000B01C9B01AC01C701B6010E94F91A0E9449
:101CB000CE1B70938D0060938C0080918C0090916E
:101CC0008D0090938B0080938A002A982B9A84E24F
:101CD00093E00E94BA1680918C0090918D000E9432
:101CE000EE1680E193E00E94BA1680918A009091EE
:101CF0008B000E94EE168EE093E090C16091880008
:101D00007091890080E090E00E94FA1B6B017C01D9
:101D1000BE01882777FD8095982F0E94FC1B2DEC33
:101D20003CEC4CEC5EE30E94B01C9B01AC01C70193
:101D3000B6010E94F91A6B017C01BE01601B710B98
:101D4000882777FD8095982F0E94FC1B2DEC3CEC9A
:101D50004CEC5CE30E94B01C9B01AC01C701B601D6
:101D60000E94F81A0E94CE1B70938D0060938C0025
:101D7000809188009091890090938B0080938A00D5
:101D80002A9A2B9A8EEF92E00E94BA1680918C00CC
:101D900090918D000E94EE168AEE92E00E94BA1693
:101DA00080918A0090918B000E94EE1688EE92E05E
:101DB00035C1C5348DEFD8070CF451C0BE01645451
:101DC0007D4F882777FD8095982F0E94FC1B23E389
:101DD00033E343E35FE30E94B01C6B017C0180911D
:101DE000370190913801BE01681B790B882777FD78
:101DF0008095982F0E94FC1B29E23CE54FE85DE3AB
:101E00000E94B01C9B01AC01C701B6010E94F81AE8
:101E10000E94CE1B70938D0060938C0080918C008B
:101E200090918D0090938B0080938A002A9A2B9832
:101E300088ED92E00E94BA1680918C0090918D00FE
:101E40000E94EE1683EC92E00E94BA1680918A00FE
:101E500090918B000E94EE1681EC92E0DFC08091A1
:101E600088009091890090938D0080938C008091E0
:101E700088009091890090938B0080938A002A9A21
:101E80002B9A81EB92E00E94BA1680918C0090917F
:101E90008D000E94EE168DE992E00E94BA168091A4
:101EA0008A0090918B000E94EE168BE992E0B6C0FA
:101EB0006E01EE24D7FCE094FE2C009135011091C8
:101EC0003601609188007091890080E090E01C16D6
:101ED0001D060CF052C00E94FA1B4B015C01C701A9
:101EE000B6010E94FC1B2DEC3CEC4CEC5DE30E9427
:101EF000B01C9B01AC01C501B4010E94F81A6B0132
:101F00007C01BE01601B710B882777FD8095982F9F
:101F10000E94FC1B2AE037ED43E25CE30E94B01C08
:101F20009B01AC01C701B6010E94F81A0E94CE1BAA
:101F300070938D0060938C0080918C0090918D0047
:101F400090938B0080938A002A9A2B988BE892E0DA
:101F50000E94BA1680918C0090918D000E94EE161E
:101F600086E792E00E94BA1680918A0090918B00D9
:101F70000E94EE1684E792E051C00E94FA1B4B01CA
:101F80005C01C701B6010E94FC1B2DEC3CEC4CEC43
:101F90005DE30E94B01C9B01AC01C501B4010E942D
:101FA000F91A6B017C01BE01601B710B882777FD5C
:101FB0008095982F0E94FC1B2AE037ED43E25CE3FA
:101FC0000E94B01C9B01AC01C701B6010E94F91A26
:101FD0000E94CE1B70938D0060938C0080918C00CA
:101FE00090918D0090938B0080938A002A982B9A71
:101FF00083E692E00E94BA1680918C0090918D0049
:102000000E94EE168FE492E00E94BA1680918A0038
:1020100090918B000E94EE168DE492E00E94BA1619
:1020200080913B0190913C0190933801809337015E
:102030008091390190913A01909336018093350156
:10204000DF91CF911F910F91FF90EF90DF90CF9094
:10205000BF90AF909F908F900895589A599A5A9A2E
:102060008CE08093B800E9E6F0E0808180628083B4
:1020700080818F7E8083EA9A7894089584E88093A3
:10208000BC008091BC0087FFFCCF8091BB0008950D
:1020900084E98093BC00089520E030E08091BC008A
:1020A00087FD06C02F5F3F4F293E83E03807B1F719
:1020B00081E0283E334009F480E008958093BB001E
:1020C00084E88093BC000E944C10882321F080910A
:1020D000B900887F089580E008951F93CF93DF9320
:1020E0001F92CDB7DEB7182F84EA8093BC006983B6
:1020F0000E944C106981811104C094E99093BC0046
:1021000014C0812F880F662331F08F5F0E945E100C
:10211000883451F404C00E945E10803229F484E9AE
:102120008093BC0080E001C081E00F90DF91CF91EF
:102130001F910895CF93DF93C82FD62F60E00E94A0
:102140006D10882391F08D2F0E945E10882369F016
:1021500084E98093BC0061E08C2F0E946D1088237D
:1021600021F0DF91CF910C943E1080E0DF91CF9170
:102170000895CF93DF93D62FC42F60E00E946D1097
:10218000811102C080E00EC08D2F0E945E10882356
:10219000C9F38C2F0E945E108823A1F384E98093F9
:1021A000BC0081E0DF91CF910895CF93DF9300D001
:1021B0001F92CDB7DEB74B836A8389830E942D10AF
:1021C00094EA9093BC0089816A814B819091BC0014
:1021D00097FFFCCF90E59093BB0094E89093BC00F0
:1021E0009091BC0097FFFCCF9091B900987F9032FE
:1021F00029F484E98093BC0080E029C091E09093A9
:10220000BB0094E89093BC009091BC0097FFFCCF7A
:102210008093BB0084E88093BC008091BC0087FF62
:10222000FCCF6093BB0084E88093BC008091BC002D
:1022300087FFFCCF4093BB0084E88093BC00809173
:10224000BC0087FFFCCF84E98093BC0081E00F9045
:102250000F900F90DF91CF91089524EA2093BC0056
:102260002091BC0027FFFCCF21E52093BB0024E890
:102270002093BC002091BC0027FFFCCF2091B90027
:10228000287F2834A9F024EC2093BC002091BC00C6
:1022900027FFFCCF2091BB0026130AC0FC0120E0E1
:1022A00030E0772767FD70956150710944EC0EC0EE
:1022B00084E98093BC0080E008955091BC0057FFF2
:1022C000FCCF5091BB0051932F5F3F4F261737072C
:1022D0001CF44093BC00F1CF44E84093BC00409113
:1022E000BC0047FFFCCF4091BB00FC01E20FF31F95
:1022F000408384E98093BC0081E00895F89494EAD7
:102300009093BC009091BC0097FFFCCF90E5909318
:10231000BB0094E89093BC009091BC0097FFFCCF69
:102320009091B900987F903231F484E98093BC0099
:10233000789480E0089593E09093BB0094E89093A4
:10234000BC009091BC0097FFFCCF8093BB0084E859
:102350008093BC008091BC0087FFFCCFFB01552718
:1023600047FD509524E8CF01861B970B84179507EE
:1023700054F481918093BB002093BC008091BC00F9
:1023800087FFFCCFF0CF84E98093BC00789481E094
:1023900008958091E80080FFFCCF089581E080934C
:1023A000D70080EA8093D80082E189BD09B400FE9D
:1023B000FDCF80E98093D8001092E0001092420196
:1023C00010923F018CE08093E20078940895809110
:1023D000420108959FB7F89480914201882339F013
:1023E00083E08093E9008091E80085FD03C09FBFF2
:1023F0008FEF08958091F1002091E80025FD03C042
:102400002BE62093E8009FBF08959FB7F894809132
:102410004201882331F083E08093E9008091F2004B
:1024200001C080E09FBF089580914201882371F030
:102430008FB7F89493E09093E9002BE69091E80031
:1024400095FF03C02093E800F9CF8FBF08959091C6
:102450004201992371F09FB7F89424E02093E9009A
:1024600020914001222349F02091E80025FD03C07E
:102470009FBF8FEF0895109240012091E400275EE6
:1024800034E04091E80045FD12C09FBF9091E40008
:10249000921304C081E080934001EBCF9091420100
:1024A000992339F39FB7F8943093E900EACF8093EA
:1024B000F1008091E80085FD03C08AE38093E80085
:1024C00085E0809341019FBF80E008959091420193
:1024D0009923D1F09FB7F89424E02093E90020914C
:1024E000E80025FD02C09FBF0FC08093F1008091DE
:1024F000E80085FD03C08AE38093E80085E08093CF
:1025000041019FBF80E008958FEF0895EF92FF9201
:102510001F93CF93DF937C01CB01209142012223B3
:1025200071F0AFB7F89424E02093E90020914001C6
:10253000222349F02091E80025FD03C0AFBF8FEFB3
:1025400042C210924001B4E0C0E4DAE315E0009723
:1025500009F437C22091E400275E3091E80035FD90
:1025600012C0AFBF3091E400321304C081E0809309
:102570004001E5CF30914201332309F3AFB7F8941E
:10258000B093E900EACF2091F2004C2F421B242F98
:1025900030E08217930708F4482F841B910950E01C
:1025A0004134510508F0FDC14A5A5F4FFA010C94BD
:1025B0006A1DF70120812093F10097012F5F3F4FA3
:1025C0007901F70120812093F10097012F5F3F4FA0
:1025D0007901F70120812093F10097012F5F3F4F90
:1025E0007901F70120812093F10097012F5F3F4F80
:1025F0007901F70120812093F10097012F5F3F4F70
:102600007901F70120812093F10097012F5F3F4F5F
:102610007901F70120812093F10097012F5F3F4F4F
:102620007901F70120812093F10097012F5F3F4F3F
:102630007901F70120812093F10097012F5F3F4F2F
:102640007901F70120812093F10097012F5F3F4F1F
:102650007901F70120812093F10097012F5F3F4F0F
:102660007901F70120812093F10097012F5F3F4FFF
:102670007901F70120812093F10097012F5F3F4FEF
:102680007901F70120812093F10097012F5F3F4FDF
:102690007901F70120812093F10097012F5F3F4FCF
:1026A0007901F70120812093F10097012F5F3F4FBF
:1026B0007901F70120812093F10097012F5F3F4FAF
:1026C0007901F70120812093F10097012F5F3F4F9F
:1026D0007901F70120812093F10097012F5F3F4F8F
:1026E0007901F70120812093F10097012F5F3F4F7F
:1026F0007901F70120812093F10097012F5F3F4F6F
:102700007901F70120812093F10097012F5F3F4F5E
:102710007901F70120812093F10097012F5F3F4F4E
:102720007901F70120812093F10097012F5F3F4F3E
:102730007901F70120812093F10097012F5F3F4F2E
:102740007901F70120812093F10097012F5F3F4F1E
:102750007901F70120812093F10097012F5F3F4F0E
:102760007901F70120812093F10097012F5F3F4FFE
:102770007901F70120812093F10097012F5F3F4FEE
:102780007901F70120812093F10097012F5F3F4FDE
:102790007901F70120812093F10097012F5F3F4FCE
:1027A0007901F70120812093F10097012F5F3F4FBE
:1027B0007901F70120812093F10097012F5F3F4FAE
:1027C0007901F70120812093F10097012F5F3F4F9E
:1027D0007901F70120812093F10097012F5F3F4F8E
:1027E0007901F70120812093F10097012F5F3F4F7E
:1027F0007901F70120812093F10097012F5F3F4F6E
:102800007901F70120812093F10097012F5F3F4F5D
:102810007901F70120812093F10097012F5F3F4F4D
:102820007901F70120812093F10097012F5F3F4F3D
:102830007901F70120812093F10097012F5F3F4F2D
:102840007901F70120812093F10097012F5F3F4F1D
:102850007901F70120812093F10097012F5F3F4F0D
:102860007901F70120812093F10097012F5F3F4FFD
:102870007901F70120812093F10097012F5F3F4FED
:102880007901F70120812093F10097012F5F3F4FDD
:102890007901F70120812093F10097012F5F3F4FCD
:1028A0007901F70120812093F10097012F5F3F4FBD
:1028B0007901F70120812093F10097012F5F3F4FAD
:1028C0007901F70120812093F10097012F5F3F4F9D
:1028D0007901F70120812093F10097012F5F3F4F8D
:1028E0007901F70120812093F10097012F5F3F4F7D
:1028F0007901F70120812093F10097012F5F3F4F6D
:102900007901F70120812093F10097012F5F3F4F5C
:102910007901F70120812093F10097012F5F3F4F4C
:102920007901F70120812093F10097012F5F3F4F3C
:102930007901F70120812093F10097012F5F3F4F2C
:102940007901F70120812093F10097012F5F3F4F1C
:102950007901F70120812093F10097012F5F3F4F0C
:102960007901F70120812093F10097012F5F3F4FFC
:102970007901F70120812093F10097012F5F3F4FEC
:102980007901F70120812093F10097012F5F3F4FDC
:102990007901F70120812093F10097012F5F3F4FCC
:1029A0007901F70120812093F10097012F5F3F4FBC
:1029B00079012091E80025FFD093E80010934101B0
:1029C000C6CDAFBF80E0DF91CF911F91FF90EF9018
:1029D00008958FB7F89490914101992341F094E0C4
:1029E0009093E9009AE39093E800109241018FBF21
:1029F00008958091040108958091050108958091C2
:102A00000601089580913F0108959FB7F8942091A1
:102A10004201222339F022E02093E9003091E800BE
:102A200035FD03C09FBF8FEF089531EA3093F10069
:102A300030E23093F1001092F1001092F100109208
:102A4000F1001092F1002093F1001092F1008093B8
:102A5000F1001092F1008AE38093E8009FBF80E0CC
:102A600008951F920F920FB60F9211248F939F9388
:102A70008091E1001092E10083FF11C01092E90003
:102A800091E09093EB001092EC0092E19093ED00B6
:102A900098E09093F0001092420110923F0182FF63
:102AA00013C080914201882379F0809141018823ED
:102AB00059F0815080934101811106C084E08093D8
:102AC000E9008AE38093E8009F918F910F900FBEF9
:102AD0000F901F9018951F920F920FB60F9211240E
:102AE000EF92FF920F931F932F933F934F935F9318
:102AF0006F937F938F939F93AF93BF93EF93FF93C6
:102B0000CF93DF931F92CDB7DEB71092E90080918B
:102B1000E80083FF14C19091F1008091F1003091A1
:102B2000F1002091F100E32EF12CF22A0091F10046
:102B30002091F10010E0122B2091F1006091F10042
:102B400032EF3093E800863009F046C036E081E38A
:102B500094E0FC01459154914E155F0539F4FC0158
:102B60003296459154914017510721F00796315004
:102B700081F7E5C0FC01349645915491FC013696ED
:102B8000849130E0362B2F3F310519F010F02FEFF4
:102B900030E0281708F4822F3EEF9091E800292FAB
:102BA0002570D9F392FDCEC0982F813108F090E1C5
:102BB000FA01292F222331F064916093F100215012
:102BC0003196F8CF490F511D891B3093E8008111D0
:102BD000E4CF903111F3B6C0853051F48EEF80937D
:102BE000E8000E94C9118E2D80688093E300AAC07E
:102BF000893059F5911180C0E092420110923F0155
:102C0000109241018EEF8093E80041E08AED94E05C
:102C10004093E9009C012F5F3F4FFC01549150937A
:102C2000EB00552359F0F90124912093EC009C010D
:102C30002D5F3F4F319684918093ED004F5F45307B
:102C400011F0C901E5CF8EE175C0883051F490389C
:102C500009F052C00E94C911809142018093F10095
:102C600047C0813279F4913A09F046C00E94C911F7
:102C7000E0E0F1E081918093F10081E0E730F80736
:102C8000C9F736C0803299F49132B1F58091E800ED
:102C900082FFFCCFE0E0F1E08091F100819381E0E0
:102CA000E730F807C9F78BEF8093E80021C0823244
:102CB00041F4913209F043C0E0923F010E94C911F2
:102CC00017C0811119C099830E94C9119981923846
:102CD00051F40093E9008091EB0085FB882780F98F
:102CE0001092E90001C080E08093F1001092F100A1
:102CF0008EEF8093E80026C0282F2D7F2130F9F435
:102D00009230E9F4EF28D9F40F779FEF900F9430C9
:102D1000B0F49EEF9093E8000093E900833079F0DF
:102D200089E18093EB0081E090E0002E01C0880FE4
:102D30000A94EAF78093EA001092EA0003C081E265
:102D40008093EB000F90DF91CF91FF91EF91BF91B6
:102D5000AF919F918F917F916F915F914F913F9133
:102D60002F911F910F91FF90EF900F900FBE0F903A
:102D70001F9018951F93CF93DF93EC01FE011491E0
:102D8000112351F01A3019F48DE00E942712812F7F
:102D90000E9427122196F2CFDF91CF911F910895C3
:102DA0008A3010F490E301C097E3890F0C94271246
:102DB000CF93C82F82958F700E94D0168C2F8F7062
:102DC000CF910C94D016CF93C82F892F0E94D8167C
:102DD0008C2FCF910C94D8160C94D816EF92FF92AA
:102DE0000F931F93CF93DF93CDB7DEB727970FB61F
:102DF000F894DEBF0FBECDBF8E010F5F1F4F27E0DF
:102E0000F80111922A95E9F74AE0B8010E94701D75
:102E10007E01F8E0EF0EF11CF80181918F01811124
:102E20000E9427120E151F05B9F727960FB6F894C2
:102E3000DEBF0FBECDBFDF91CF911F910F91FF90ED
:102E4000EF900895EF92FF920F931F93CF93DF932C
:102E500000D000D000D0CDB7DEB78E010F5F1F4F7E
:102E600026E0F80111922A95E9F74AE0B8010E949C
:102E7000AC1D7E01F6E0EF0EF11CF80181918F018F
:102E800081110E9427120E151F05B9F726960FB65D
:102E9000F894DEBF0FBECDBFDF91CF911F910F9190
:102EA000FF90EF900895EF92FF920F931F93CF93AF
:102EB000DF93CDB7DEB72B970FB6F894DEBF0FBE0A
:102EC000CDBF8E010F5F1F4F2BE0F80111922A95A5
:102ED000E9F72AE0A8010E947B1D7E01FCE0EF0ECD
:102EE000F11CF80181918F0181110E9427120E15AA
:102EF0001F05B9F72B960FB6F894DEBF0FBECDBFF6
:102F0000DF91CF911F910F91FF90EF900895EF9275
:102F1000FF920F931F93CF93DF93CDB7DEB72B971D
:102F20000FB6F894DEBF0FBECDBF8E010F5F1F4FEF
:102F30002BE0F80111922A95E9F72AE0A8010E94F6
:102F40008A1D7E01FBE0EF0EF11CF80181918F01DB
:102F500081110E9427120E151F05B9F72B960FB687
:102F6000F894DEBF0FBECDBFDF91CF911F910F91BF
:102F7000FF90EF90089520E030E08091BC0087FD45
:102F800006C02F5F3F4F293E83E03807B1F781E04D
:102F9000283E334009F480E008958093BB0084E824
:102FA0008093BC000E94BB17882319F08091B90060
:102FB000887F0895CF93C82F84EA8093BC000E9435
:102FC000BB17882361F08C2F880F0E94CD178032A9
:102FD00029F484E98093BC0080E001C081E0CF91B6
:102FE00008950E942D1088E50E94DA17811102C011
:102FF00080E0089580E30E94CD178823C9F381E023
:103000000E94CD178823A1F384E98093BC008FE34D
:103010009CE90197F1F700C0000088E50E94DA17EB
:10302000882331F380E00E94CD17882309F380E0E4
:103030000E94CD178823E1F280E00E94CD178823FB
:10304000B9F280E00E94CD17882391F280E00E94BF
:10305000CD17882369F280E00E94CD17882341F2C2
:1030600080E00E94CD17882319F280E90E94CD17D5
:10307000882309F4BDCF84E98093BC008FE39CE9E9
:103080000197F1F700C0000088E50E94DA17882355
:1030900009F4AECF87E00E94CD17882309F4A8CFAA
:1030A00080E00E94CD17882309F4A2CF81E40E941A
:1030B000CD17882309F49CCF84E98093BC008FE36B
:1030C0009CE90197F1F700C0000088E50E94DA173B
:1030D000882309F48DCF8AE10E94CD17882309F453
:1030E00087CF80E40E94CD17882309F481CF80E048
:1030F0000E94CD17882309F47BCF84E98093BC001C
:103100008FE39CE90197F1F700C0000088E50E9479
:10311000DA17882309F46CCF83E30E94CD17882344
:1031200009F466CF83E00E94CD17882309F460CFAD
:1031300084E98093BC008FE39CE90197F1F700C01C
:10314000000088E50E94DA17882309F451CF80E354
:103150000E94CD17882309F44BCF88E00E94CD1739
:10316000882309F445CF84E98093BC008FE39CE970
:103170000197F1F700C0000081E00895CF93C82FB8
:1031800084EA8093BC000E94BB17882369F08C2FCF
:10319000880F8F5F0E94CD17883429F484E98093CB
:1031A000BC0080E001C081E0CF910895EF92FF92D2
:1031B0000F931F93CF93DF93CDB7DEB760970FB612
:1031C000F894DEBF0FBECDBF7C018E010F5F1F4F95
:1031D00080E1F80111928A95E9F788E50E94DA17F3
:1031E000811102C080E05EC086E30E94CD17882373
:1031F000C9F384E98093BC00F5E8FA95F1F7000083
:1032000088E50E94BE18882369F3F8019E01205FBB
:103210003F4F94EC9093BC008091BC0087FFFCCFA3
:103220008091BB008193E217F307A1F784E88093B4
:10323000BC008091BC0087FFFCCF8091BB00888BD5
:1032400084E98093BC00DE01149687016C91762F8F
:103250007073AD0142505109FA01808190E0F0E1B4
:103260007F9F800D911D1124F80191838083762F1B
:10327000707C4F5F5F4FFA01808190E0F4E07F9FA8
:10328000800D911D1124F801938382836F70862F26
:1032900090E09583848313960A5F1F4FA217B307AC
:1032A000A9F681E060960FB6F894DEBF0FBECDBFE1
:1032B000DF91CF911F910F91FF90EF90089584E9D6
:1032C0008093BC00089584EF91E0909389008093EF
:1032D0008800E1E8F0E080818B7F808380818D7FB2
:1032E0008083808181608083808180618083808110
:1032F00088608083E0E8F0E0808182608083808164
:103300008160808380818062808380818F7E8083E2
:1033100080818860808380818B7F8083269A279A32
:1033200008951F920F920FB60F9211242F933F937F
:103330004F935F936F937F938F939F93AF93BF93BD
:10334000EF93FF936E9A76986AE083E491E00E948F
:103350002D118091430190E00E94EE16809143016F
:1033600090E0FC01E05AF109E830F10550F5E9562A
:10337000FF4F0C946A1D87E195E00E94BA1681E028
:1033800090E006C080E195E00E94BA1682E090E0ED
:1033900090934E0180934D0114C088E095E00BC0DE
:1033A00080E095E008C089EF94E005C08FEE94E0DE
:1033B00002C084EE94E00E94BA1610924E01109260
:1033C0004D016E9A769AFF91EF91BF91AF919F91C7
:1033D0008F917F916F915F914F913F912F910F90BE
:1033E0000FBE0F901F901895189B1BC082EA9EEF8E
:1033F00090930C0180930B0186EF9FEF90930E0149
:1034000080930D0180E590E090930801809307017F
:103410008AE090E090930A01809309015F985E9A98
:10342000089582E791E090930C0180930B018AE06C
:1034300090E090930E0180930D0180EB9FEF9093AD
:1034400008018093070186EF9FEF90930A01809314
:1034500009015F9A5E9808951F920F920FB60F921E
:1034600011242F933F934F935F936F937F938F9389
:103470009F93AF93BF93EF93FF930E94F419FF9133
:10348000EF91BF91AF919F918F917F916F915F91DC
:103490004F913F912F910F900FBE0F901F90189555
:1034A00020982198249A259A579A569A85B1836034
:1034B00085B9E8E6F0E0808181608083EBE6F0E0AA
:1034C0008081836080830C94F4196A9A7298E1E693
:1034D000F0E080E8808310820E94CE110E942D10BF
:1034E0002FEF87EA91E6215080409040E1F700C03D
:1034F00000004AE06DE181E00E94D5100E94950B2A
:103500000E946319239A229A3E9A3F9A539A78947A
:103510000E94501A0E94F1176A9A729A08950E94A6
:10352000651AC0E480914D0190914E018130910562
:1035300071F082309105E9F10097C1F710928B008C
:1035400010928A0010928D0010928C00EBCF6E9A30
:103550008EB18C278EB92FEF87E893E12150804000
:103560009040E1F700C000006E9A8EB18C278EB9B2
:103570002FEF87E893E1215080409040E1F700C0B1
:1035800000008FE39FE10197F1F700C000009FEF7B
:1035900023EC89E0915020408040E1F700C000001A
:1035A0006E9A8EB18C278EB910924E0110924D01F9
:1035B000B9CF6A9A72980E94230A813049F082300A
:1035C00071F0811112C087E091E00E944C080DC09B
:1035D000469A8BE091E00E944C08469806C0479AB4
:1035E0008BE091E00E94870C47986A9A729A9ACF72
:1035F0005058BB27AA270ED075C166D130F06BD1C9
:1036000020F031F49F3F11F41EF45BC10EF4E095FD
:10361000E7FB51C1E92F77D180F3BA17620773072F
:103620008407950718F071F49EF58FC10EF4E095AC
:103630000B2EBA2FA02D0B01B90190010C01CA016C
:10364000A0011124FF27591B99F0593F50F4503E17
:1036500068F11A16F040A22F232F342F4427585F09
:10366000F3CF469537952795A795F0405395C9F721
:103670007EF41F16BA0B620B730B840BBAF09150D9
:10368000A1F0FF0FBB1F661F771F881FC2F70EC078
:10369000BA0F621F731F841F48F48795779567954B
:1036A000B795F7959E3F08F0B3CF9395880F08F034
:1036B0009927EE0F979587950895D9D008F481E062
:1036C00008950CD00FC107D140F0FED030F021F4A6
:1036D0005F3F19F0F0C0511139C1F3C014D198F314
:1036E0009923C9F35523B1F3951B550BBB27AA2783
:1036F00062177307840738F09F5F5F4F220F331FF5
:10370000441FAA1FA9F333D00E2E3AF0E0E830D0C0
:1037100091505040E695001CCAF729D0FE2F27D0C3
:10372000660F771F881FBB1F261737074807AB0791
:10373000B0E809F0BB0B802DBF01FF2793585F4F06
:103740002AF09E3F510568F0B6C000C15F3FECF320
:10375000983EDCF3869577956795B795F7959F5FCB
:10376000C9F7880F911D9695879597F90895E1E01F
:10377000660F771F881FBB1F621773078407BA077E
:1037800020F0621B730B840BBA0BEE1F88F7E095D9
:10379000089504D06894B111D9C00895BCD088F0C0
:1037A0009F5790F0B92F9927B751A0F0D1F0660F2D
:1037B000771F881F991F1AF0BA95C9F712C0B13048
:1037C00081F0C3D0B1E00895C0C0672F782F88275B
:1037D000B85F39F0B93FCCF3869577956795B39587
:1037E000D9F73EF490958095709561957F4F8F4FF6
:1037F0009F4F0895E89409C097FB3EF490958095FB
:10380000709561957F4F8F4F9F4F9923A9F0F92FA6
:1038100096E9BB279395F695879577956795B79524
:10382000F111F8CFFAF4BB0F11F460FF1BC06F5F0A
:103830007F4F8F4F9F4F16C0882311F096E911C01C
:10384000772321F09EE8872F762F05C0662371F03D
:1038500096E8862F70E060E02AF09A95660F771F51
:10386000881FDAF7880F9695879597F90895990F2D
:103870000008550FAA0BE0E8FEEF16161706E8073A
:10388000F907C0F012161306E407F50798F0621B5B
:10389000730B840B950B39F40A2661F0232B242B30
:1038A000252B21F408950A2609F4A140A6958FEF4F
:1038B000811D811D089597F99F6780E870E060E0A1
:1038C00008959FEF80EC089500240A9416161706B9
:1038D00018060906089500240A9412161306140601
:1038E00005060895092E0394000C11F4882352F064
:1038F000BB0F40F4BF2B11F460FF04C06F5F7F4F1C
:103900008F4F9F4F089557FD9058440F551F59F002
:103910005F3F71F04795880F97FB991F61F09F3FBC
:1039200079F087950895121613061406551FF2CFE5
:103930004695F1DF08C0161617061806991FF1CF35
:1039400086957105610508940895E894BB2766275C
:103950007727CB0197F908958ADF08F48FEF089550
:103960000BD0C0CFB1DF28F0B6DF18F0952309F0F7
:10397000A2CFA7CF1124EACFC6DFA0F3959FD1F342
:10398000950F50E0551F629FF001729FBB27F00D0D
:10399000B11D639FAA27F00DB11DAA1F649F662762
:1039A000B00DA11D661F829F2227B00DA11D621FB1
:1039B000739FB00DA11D621F839FA00D611D221F6B
:1039C000749F3327A00D611D231F849F600D211D4F
:1039D000822F762F6A2F11249F5750408AF0E1F0F2
:1039E00088234AF0EE0FFF1FBB1F661F771F881F3B
:1039F00091505040A9F79E3F510570F05CCFA6CF83
:103A00005F3FECF3983EDCF3869577956795B79525
:103A1000F795E7959F5FC1F7FE2B880F911D96954F
:103A2000879597F9089511F40EF44BCF3EC073DFDC
:103A3000D0F39923D9F3CEF39F57550B87FF43D08B
:103A40000024A0E640EA900180585695979528F406
:103A5000805C660F771F881F20F0261737074807FE
:103A600030F4621B730B840B202931294A2BA69555
:103A700017940794202531254A2758F7660F771F9A
:103A8000881F20F026173707480730F4620B730BA6
:103A9000840B200D311D411DA09581F7B901842FA4
:103AA0009158880F9695879508959F3F31F09150D2
:103AB00020F4879577956795B795880F911D969512
:103AC000879597F9089591505040660F771F881F8A
:103AD000D2F70895EE0FFF1F0590F491E02D0994A1
:103AE000BB274A3031F4992322F4BDE290958195A9
:103AF0009F4F0C94AD1DBB272A3051F4992342F4FB
:103B0000BDE290958095709561957F4F8F4F9F4F47
:103B10000C948B1DBB27FA01A62F62177105810536
:103B20009105330B30FB66F0AA27660F771F881FBD
:103B3000991FAA1FA21710F0A21B63953850A9F76E
:103B4000A05DAA3308F0A95DA19336F7B111B19336
:103B50001082CA010C94C61DBB27FB015527AA275A
:103B6000880F991FAA1FA41710F0A41B839550510A
:103B7000B9F7A05DAA3308F0A95DA193009779F782
:103B8000B111B1931192CB010C94C61DDC01FC0163
:103B9000672F71917723E1F7329704C07C916D9381
:103BA00070836291AE17BF07C8F30895F894FFCFF2
:103BB00000E1000000000850000A00A2FEF6FF002D
:00000001FF
