:100000000C9473030C9490030C9490030C949C1E1A
:100010000C9490030C9490030C9490030C94900314
:100020000C9490030C944B1F0C943C1A0C94761A6D
:100030000C9490030C9490030C9490030C949003F4
:100040000C9490030C9490030C9490030C949003E4
:100050000C9490030C9490030C9490030C949003D4
:100060000C9490030C9490030C9490030C949003C4
:100070000C9490030C9490030C9490030C949003B4
:100080000C9490030C9490030C9490030C949003A4
:100090000C9490030C9490030C9490030C94900394
:1000A0000C9490030C9490030C949003E419DC19C5
:1000B000D419CC19C419BC19B419AC19A4199C19B8
:1000C00094198C1984197C1974196C1964195C19A8
:1000D00054194C1944193C1934192C1924191C1998
:1000E00014190C190419FC18F418EC18E418DC188D
:1000F000D418CC18C418BC18B418AC18A4189C1880
:1001000094188C1884187C1874186C1864185C186F
:1001100054184C1844183C1834182C1824181C185F
:1001200014180C180418FC17F417EC17E417C61E63
:10013000CD1ED81EDB1EDE1EEC1EE11EE41E0A00D4
:100140002020202020204F435231423A20202000FE
:100150004F435231433A202020004C65667420748E
:1001600075726E2020200052696768742074757261
:100170006E202020000A00202020636F735F6F72C2
:10018000695F676F616C3A20200020202073696EE0
:100190005F6F72695F676F616C3A2020000A002010
:1001A0002020636F735F726F626F5F676F616C3A7D
:1001B00020200020202073696E5F726F626F5F677E
:1001C0006F616C3A2020000A00202020636F735F6B
:1001D00074686574615F726F626F3A20200020203E
:1001E0002073696E5F74686574615F726F626F3AE5
:1001F0002020000A00202020795F706F73697469E5
:100200006F6E3A202000785F706F736974696F6E4B
:100210003A2020000A00202020676F616C5B315D6E
:100220003A202000676F616C5B305D3A2020000A45
:10023000006D61782064697374616E6365206F7509
:1002400074206F662072616E6765000A000A0020E4
:100250002020526967687420466F72776172643A31
:100260002020004C656674204261636B7761726484
:100270003A2020000A00202020526967687420423A
:1002800061636B776172643A2020004C656674206C
:10029000466F72776172643A2020000A00202020A5
:1002A000526967687420466F72776172643A2020E1
:1002B000004C65667420466F72776172643A202044
:1002C000000A00202020526967687420466F727708
:1002D0006172643A2020004C65667420466F727724
:1002E0006172643A2020000A002020205269676869
:1002F0007420466F72776172643A2020004C656604
:100300007420466F72776172643A2020000A0020E0
:100310002020526967687420466F72776172643A70
:100320002020004C656674204261636B77617264C3
:100330003A2020000A002020205269676874204675
:100340006F72776172643A2020004C6566742046B3
:100350006F72776172643A202000436173652033C5
:100360003A200A000A00202020526967687420465B
:100370006F72776172643A2020004C656674204683
:100380006F72776172643A2020000A0020202052A8
:100390006967687420466F72776172643A20200042
:1003A0004C65667420466F72776172643A20200053
:1003B0000A00202020526967687420466F727761B6
:1003C00072643A2020004C65667420466F72776133
:1003D00072643A2020000A00202020526967687465
:1003E000204261636B776172643A2020004C65663D
:1003F0007420466F72776172643A2020000A0020F0
:100400002020526967687420466F72776172643A7F
:100410002020004C65667420466F72776172643AE2
:100420002020004361736520323A200A000A002030
:100430002020526967687420466F72776172643A4F
:100440002020004C65667420466F72776172643AB2
:100450002020000A00202020526967687420466F1F
:1004600072776172643A2020004C65667420466F92
:1004700072776172643A2020000A002020205269BD
:1004800067687420466F72776172643A2020004C6E
:1004900065667420466F72776172643A2020000AA4
:1004A00000202020526967687420466F727761725D
:1004B000643A2020004C65667420466F7277617242
:1004C000643A2020000A00202020526967687420C6
:1004D000466F72776172643A2020004C6566742022
:1004E000466F72776172643A2020000A0020202053
:1004F000526967687420466F72776172643A20208F
:10050000004C65667420466F72776172643A2020F1
:10051000004361736520313A200A000A0020202040
:10052000526967687420466F72776172643A20205E
:10053000004C65667420466F72776172643A2020C1
:10054000000A00202020526967687420466F727785
:100550006172643A2020004C656674204261636BCE
:10056000776172643A2020000A00202020526967D7
:10057000687420466F72776172643A2020004C657F
:10058000667420466F72776172643A2020000A0018
:100590002020205269676874204261636B77617222
:1005A000643A2020004C65667420466F7277617251
:1005B000643A2020004361736520303A200A000A23
:1005C00000202020002020200020202000202020AB
:1005D00000202020004E6F20656666656374697692
:1005E000652049520A00000100007D061200020049
:1005F000003A064300030000360604010309042202
:100600000612020309041A06060303090410060869
:100610000803340031003000000006034D003200B2
:10062000000012034A002E00200046006900650009
:100630006E00650000000403090409024300020182
:1006400000C032090400000102020100052400106C
:100650000105240101010424020605240600010706
:1006600005820310004009040100020A000000078F
:10067000050302400000070584024000001201004B
:100680000202000010C0167A0400010102030100FA
:1006900001C11201803601813647616D65206F7698
:1006A00065720A0048616C6674696D650A00506184
:1006B0007573650A00476F616C20420A00476F61DD
:1006C0006C20520A00506C6179200A00436F6D6DF6
:1006D0006F6E20546573743A20666C617368204CA9
:1006E0004544200A000011241FBECFEFDAE0DEBF30
:1006F000CDBF11E0A0E0B1E0E6E2F6E402C0059073
:100700000D92A631B107D9F721E0A6E1B1E001C011
:100710001D92A138B207E1F70E94AE1F0C9411237D
:100720000C9400002F923F924F925F926F927F92B3
:100730008F929F92AF92BF92CF92DF92EF92FF92F1
:100740000F931F93CF93DF93CDB7DEB7E2970FB62A
:10075000F894DEBF0FBECDBF9EA38DA3CDB6DEB68F
:10076000D8AACFA68EE191E00E94E11DEEE1F1E072
:10077000A12CB12C208131812F3F43E03407C9F0F7
:10078000828193818F3F53E0950799F0D501AA0F9D
:10079000BB1FCC24C394D12CCC0EDD1EAC0DBD1DD3
:1007A00019963C932E9318978D939C932FEFA21A32
:1007B000B20A369631E0E633F307E1F643E0A416D9
:1007C000B1040CF424C5CDB6DEB6DAA6C9A69501EF
:1007D000215031093AA329A32A9DC0012B9D900DD8
:1007E0003A9D900D1124959587959C01220F331FFA
:1007F0004DB75EB7421B530B0FB6F8945EBF0FBEEA
:100800004DBF2DB73EB72F5F3F4F38A72FA3880F9F
:10081000991F880F991F481B590B0FB6F8945EBF9C
:100820000FBE4DBF8DB79EB701963C018E01075F8D
:100830001F4FBE016F5F7F4F212C312C1A8E198EF6
:10084000A98DBA8D1196BA8BA98BF101EE0FFF1FFE
:10085000EE0FFF1FE60DF71DFAABE9AB6101CC0C03
:10086000DD1C2FA138A52C0D3D1D3E8F2D8F7D0148
:10087000412C512CEA14FB040CF080C0E98DFA8D58
:10088000A9A9BAA91196FC93EE931396FC92EE9245
:100890001297D8018D919C91F801E40DF51D2281EC
:1008A0003381821B930BFB0120813181E40DF51D07
:1008B00042815381241B350B229FA001239F500DA1
:1008C000500D1124889F9001899F300D300D112407
:1008D000420F531FED8DFE8DE40DF51D51834083B6
:1008E0009F01E9A9FAA9410181149104B9F1D90143
:1008F0000D90BC91A02DBE8BAD8BB1E08B1A9108F1
:10090000D9015E914E91CD0134979D01CD88DE884D
:100910004C155D051CF5C080D180DCA6CBA6A2815C
:10092000B381BEA7ADA7C480D580D182C082C68066
:10093000D780D382C282CD88DE88DC01CD92DC9262
:10094000ABA5BCA5B583A483CDA4DEA4D782C68203
:10095000DC0113965C934E931297C6CF2FEF221AA9
:10096000320A3FEFE31AF30A49A95AA94C5F5F4FD5
:100970005AAB49AB52E0450E511C7CCF0E5F1F4F66
:100980006E5F7F4F89899A89A9A1BAA18A179B07AF
:100990001CF49A8F898F54CF8BE492E00E94C51B80
:1009A000EFA1F8A500811181013EFEE21F0774F05E
:1009B00081E392E00E94C51BB801882777FD8095EE
:1009C000982F0E94921C8FE292E018C4D3018D9060
:1009D0009C90119714966D917C91159712968D911C
:1009E0009C9113970134BFE11B07B4F19401220FCE
:1009F000331F8616970631F0F3014681578184161E
:100A00009506A9F4E1E0F0E0EC0FFD1FE20FF31F03
:100A1000E084F18400811181FC01EE0FFF1FCC24E2
:100A2000C394D12CCC0EDD1EEC0DFD1D10C0FC01BD
:100A3000EE0FFF1F41E050E04C0F5D1FE40FF51F6C
:100A4000E084F18400811181FA01E20FF31FC08478
:100A5000D1842080318088C1D3011696AD90BC909E
:100A60001797013717410CF4BDC0880E991EF40189
:100A7000E60FF71FEA0DFB1D3397EE0FFF1FCC2487
:100A8000C394D12CCC0EDD1EEC0DFD1DE084F18451
:100A900000811181D30118962D913C9119971A96D6
:100AA0004D915C911B97820E931E840E951EB3E0B0
:100AB0008B1A9108A60EB71EA20EB31EA40EB51E69
:100AC000E3E0AE1AB108B701882777FD8095982F2B
:100AD0000E9437212B013C01880C991C8C0C9D1C19
:100AE000D40118966D917C9119976E197F0980E059
:100AF00090E00E94352121EA37E643EF5EE30E9451
:100B0000EB21698B7A8B8B8B9C8BAA0CBB1CAC0C5E
:100B1000BD1CF501608571856E197F0980E090E04C
:100B20000E94352120E33CE446E05FE30E94EB2194
:100B30009B01AC0169897A898B899C890E94342048
:100B400027E634E44DE450E40E94EB219B01AC0124
:100B5000C301B2010E9434200E9404216B01B8013C
:100B6000882777FD8095982F0E9437212B013C0123
:100B7000D4016D917C91601B710B80E090E00E942C
:100B8000352121EA37E643EF5EE30E94EB21698BD2
:100B90007A8B8B8B9C8BF50160817181601B710B53
:100BA00080E090E00E94352120E33CE446E05FE3F2
:100BB0000E94EB219B01AC0169897A898B899C8910
:100BC0000E94342027E634E44DE450E40E94EB21F7
:100BD0009B01AC01C301B2010E9434200E94042198
:100BE0001B01C2C0D30118964D915C9119971A96BA
:100BF0002D913C911B97FB01EA0DFB1DE40FF51FA6
:100C0000E20FF31F3397EE0FFF1FCC24C394D12CB8
:100C1000CC0EDD1EEC0DFD1DC084D1842080318002
:100C2000880E991E8401060F171F0A0D1B1D035005
:100C30001109840E951E820E931E23E0821A9108DC
:100C4000B601882777FD8095982F0E9437212B01C8
:100C50003C01880C991C41E050E04C0F5D1F840E54
:100C6000951ED40118966D917C9119976C197D0988
:100C700080E090E00E94352121EA37E643EF5EE311
:100C80000E94EB21698B7A8B8B8B9C8B000F111F41
:100C9000E1E0F0E0EC0FFD1F0E0F1F1FD8011896CA
:100CA0006D917C9119976C197D0980E090E00E940C
:100CB000352120E33CE446E05FE30E94EB219B0109
:100CC000AC0169897A898B899C890E94342027EE3E
:100CD0003BEF49EB5FE30E94EB219B01AC01C301B9
:100CE000B2010E9434200E9404217B01B1018827B7
:100CF00077FD8095982F0E9437212B013C01F4014C
:100D0000608171816219730980E090E00E94352151
:100D100021EA37E643EF5EE30E94EB214B015C01E1
:100D2000D8016D917C916219730980E090E00E9476
:100D3000352120E33CE446E05FE30E94EB219B0188
:100D4000AC01C501B4010E94342027EE3BEF49EB12
:100D50005FE30E94EB219B01AC01C301B2010E9441
:100D600034200E9404218B0136016E187F08210176
:100D7000401A510A449CB001459C700D700D11241D
:100D8000669CC001679C900D900D1124680F791F1F
:100D9000882777FD8095982F0E9437210E94522244
:100DA0004B015C01B201882777FD8095982F0E9446
:100DB0003721A50194010E949C20698B7A8B8B8B33
:100DC0009C8B60936501709366018093670190939B
:100DD0006801B301882777FD8095982F0E943721FD
:100DE000A50194010E949C20698F7A8F8B8F9C8F24
:100DF00060936D0170936E0180936F019093700109
:100E000080E094E08E199F098C199D0997FD019649
:100E1000BC0175956795882777FD8095982F0E946E
:100E200037214B015C0180E093E0801B910B82191C
:100E3000930997FD0196BC0175956795882777FD05
:100E40008095982F0E9437216B017C0129893A896E
:100E50004B895C89C501B4010E94EB212B013C0147
:100E6000298D3A8D4B8D5C8DC701B6010E94EB2117
:100E70009B01AC01C301B2010E9433206D8F7E8FB4
:100E80008F8F98A3609316017093170180931801B8
:100E900090931901298D3A8D4B8D5C8DC501B4015C
:100EA0000E94EB214B015C0129893A894B895C89BD
:100EB000C701B6010E94EB219B01AC01C501B40141
:100EC0000E9434202B013C0160931A0170931B0196
:100ED00080931C0190931D01EDA1FEA160817181A1
:100EE000882777FD8095982F0E94372169A37AA3E0
:100EF0008BA39CA39B01AC016D8D7E8D8F8D98A1E2
:100F00000E9433204B015C01ADA1BEA112966D91F0
:100F10007C911397882777FD8095982F0E94372121
:100F20006D8B7E8B8F8B988F9B01AC01C301B201BF
:100F30000E9433206B017C01A5019401C501B4011D
:100F40000E94EB214B015C01A7019601C701B6018C
:100F50000E94EB219B01AC01C501B4010E94342029
:100F60000E9452226B017C016093590170935A01D7
:100F700080935B0190935C012D8D3E8D4F8D58A128
:100F800069A17AA18BA19CA10E943320A70196019F
:100F90000E949C204B015C016093550170935601A7
:100FA0008093570190935801A30192016D897E8926
:100FB0008F89988D0E943320A70196010E949C2062
:100FC0006B017C016093690170936A0180936B01EE
:100FD00090936C01A5019401698D7A8D8B8D9C8D08
:100FE0000E94EB212B013C01A701960169897A89B6
:100FF0008B899C890E94EB219B01AC01C301B2014A
:101000000E943320609361017093620180936301B9
:1010100090936401A501940169897A898B899C89DF
:101020000E94EB214B015C01A7019601698D7A8D2D
:101030008B8D9C8D0E94EB219B01AC01C501B401FD
:101040000E94342060935D0170935E0180935F0184
:101050009093600184E292E00E94C51BEDA1FEA185
:10106000808191810E94F91B86E192E00E94C51B5C
:10107000ADA1BEA112968D919C9113970E94F91B70
:1010800084E192E00E94C51B86E092E00E94C51BAD
:1010900060911601709117018091180190911901CA
:1010A0000E940421CB010E94F91B85EF91E00E9470
:1010B000C51B60911A0170911B0180911C019091D8
:1010C0001D010E940421CB010E94F91B83EF91E0D6
:1010D0000E94C51B8EED91E00E94C51B20E030E40C
:1010E0004CE156E460916D0170916E0180916F0149
:1010F000909170010E94EB210E940421CB010E947B
:10110000F91B89EC91E00E94C51B20E030E44CE122
:1011100056E460916501709166018091670190913C
:1011200068010E94EB210E940421CB010E94F91B5F
:1011300087EC91E00E94C51B83EB91E00E94C51BE8
:1011400020E030E44CE156E46091690170916A015D
:1011500080916B0190916C010E94EB210E9404210F
:10116000CB010E94F91B8FE991E00E94C51B20E092
:1011700030E44CE156E46091550170915601809144
:101180005701909158010E94EB210E940421CB014C
:101190000E94F91B8DE991E00E94C51B8AE891E04D
:1011A0000E94C51B20E030E44CE156E460916101EF
:1011B0007091620180916301909164010E94EB2122
:1011C0000E940421CB010E94F91B87E791E00E9455
:1011D000C51B20E030E44CE156E460915D01709164
:1011E0005E0180915F01909160010E94EB210E945D
:1011F0000421CB010E94F91B85E791E00E94C51BE9
:10120000C9A4DAA40FB6F894DEBE0FBECDBECFA43B
:10121000D8A80FB6F894DEBE0FBECDBEE2960FB6CC
:10122000F894DEBF0FBECDBFDF91CF911F910F911C
:10123000FF90EF90DF90CF90BF90AF909F908F90F6
:101240007F906F905F904F903F902F9008958F9276
:101250009F92AF92BF92CF92DF92EF92FF920E9445
:10126000920320E030E040E251E460915901709136
:101270005A0180915B0190915C010E94982087FF48
:1012800009C010928D0010928C0010928B00109269
:101290008A0021C1C0906101D0906201E090630199
:1012A000F090640120E030E0A901C701B6010E947E
:1012B000982020E030E0A90187FF86C060915D01A1
:1012C00070915E0180915F01909160010E94982071
:1012D00087FD0AC022EA35E446E35FEBC701B601A9
:1012E0000E94982087FF2BC0609188007091890030
:1012F00080E090E00E9435212DEC3CEC4CE45FE373
:101300000E94EB210E94092170938D0060938C0054
:10131000609188007091890080E090E00E94352102
:101320002DEC3CEC4CE45FE30E94EB210E94092190
:1013300070938B0060938A002A9A2B9842C0809108
:1013400088009091890090938D0080938C0060912B
:1013500088007091890080E090E00E9435214B0167
:101360005C0120E030E04AEF52E4C701B6010E9480
:10137000EB219B01AC01C501B4010E9434204B015B
:101380005C01209136013091370140913801509134
:101390003901C701B6010E94332020E030E048E463
:1013A00051E40E94EB219B01AC01C501B4010E94F4
:1013B00034200E94092170938B0060938A002A9A3E
:1013C0002B9A87E691E085C060915D0170915E0186
:1013D00080915F01909160010E94982087FD0AC072
:1013E00022EA35E446E35FE3C701B6010E94E72144
:1013F00018165CF5609188007091890080E090E09B
:101400000E9435212DEC3CEC4CE45FE30E94EB2183
:101410000E94092170938B0060938A00609188007C
:101420007091890080E090E00E9435212DEC3CEC29
:101430004CE45FE30E94EB210E94092170938D0030
:1014400060938C002B982A9A42C0809188009091DA
:10145000890090938B0080938A006091880070913E
:10146000890080E090E00E9435214B015C0120E082
:1014700030E04AEF52E4C701B6010E94EB219B0124
:10148000AC01C501B4010E9433204B015C012091E5
:101490003601309137014091380150913901C7012F
:1014A000B6010E94332020E030E048E451E40E947D
:1014B000EB219B01AC01C501B4010E9433200E94C5
:1014C000092170938D0060938C002A9A2B9A8AE5EB
:1014D00091E00E94C51B8091610190916201A091F1
:1014E0006301B09164018093360190933701A0931A
:1014F0003801B093390180E591E00E94C51B8091CD
:101500008C0090918D000E94F91B80E491E00E9474
:10151000C51B80918A0090918B000E94F91B8EE37D
:1015200091E0FF90EF90DF90CF90BF90AF909F90B1
:101530008F900C94C51B8F929F92AF92BF92CF92C7
:10154000DF92EF92FF928090550190905601A0900B
:101550005701B0905801209165013091660140918A
:10156000670150916801C501B4010E94EB212DEC87
:101570003CEC4CE45EE30E94982087FF2BC0C090B7
:101580001A01D0901B01E0901C01F0901D0120E099
:1015900030E048E452E4C701B6010E94982087FF7A
:1015A0000AC020E030E048E452ECC701B6010E94D6
:1015B000E72118168CF0A5019401C701B6010E941D
:1015C000EB2120E030E0A9010E94E721181634F455
:1015D00082E005C080E003C081E001C083E0FF90AD
:1015E000EF90DF90CF90BF90AF909F908F90089535
:1015F000FC01329624E030E080E090E0419151918E
:10160000841795070CF4CA012150310921153105C1
:10161000A9F7089580917A008F7780937A0080915E
:101620007C008B7F80937C0080917C008D7F8093F9
:101630007C0080917C008E7F80937C0080917A007A
:10164000806880937A0080917A00806480937A0029
:1016500080917A0084FFFCCF20917800309179004E
:1016600080E094E0821B930B909372018093710150
:1016700080917A008F7E80937A0080917A008F77B4
:1016800080937A0080917C008B7F80937C00809196
:101690007C008D7F80937C0080917C0081608093B2
:1016A0007C0080917A00806880937A0080917A0033
:1016B000806480937A0080917A0084FFFCCF20912F
:1016C00078003091790080E094E0821B930B909336
:1016D0007C0180937B0120917A002F7E20937A00F9
:1016E0002091710130917201280F391F6E9A293EA5
:1016F00033401CF0769881E00895769A80917A00C4
:101700008F7780937A0080917C008E7F80937C001D
:1017100080917C008D7F80937C0080917C00846030
:1017200080937C0080917A00806880937A00809119
:101730007A00806480937A0080917A0084FFFCCFE5
:10174000209178003091790080E094E0821B930B27
:10175000909374018093730180917A008F7E8093BF
:101760007A0080917A008F7780937A0080917C0054
:10177000816080937C0080917A00806880937A00F9
:1017800080917A00806480937A0080917A0084FF4F
:10179000FCCF209178003091790080E094E0821BAA
:1017A000930B909376018093750180917A008F7EE0
:1017B00080937A0080917A008F7780937A0080916D
:1017C0007C008E7F80937C0080917C00826080937F
:1017D0007C0080917A00806880937A0080917A0002
:1017E000806480937A0080917A0084FFFCCF2091FE
:1017F00078003091790080E094E0821B930B909305
:1018000078018093770180917A008F7E80937A00AF
:1018100080917A008F7780937A0080917C0081603C
:1018200080937C0080917A00806880937A00809118
:101830007A00806480937A0080917A0084FFFCCFE4
:10184000209178003091790080E094E0821B930B26
:1018500090937A018093790180917A008F7E8093B2
:101860007A0081E791E00E94F80A8639910534F404
:1018700085ED95E00E94C51B80E00895809171017F
:10188000909172010E942D1C81ED95E00E94C51B74
:1018900080917B0190917C010E942D1C8DEC95E044
:1018A0000E94C51B80917301909174010E942D1CB0
:1018B00089EC95E00E94C51B80917501909176019D
:1018C0000E942D1C85EC95E00E94C51B809177013C
:1018D000909178010E942D1C81EC95E00E94C51B1F
:1018E0008091790190917A010E942D1C8FEB95E0F7
:1018F0000E94C51B82E0089580E885BF85BFECE7A4
:10190000F0E080818F778083808180648083EAE744
:10191000F0E080818160808380818260808380812B
:1019200084608083EEE7F0E0808181608083808145
:1019300082608083808180618083808180628083F7
:1019400080818064808380818068808308958F9205
:101950009F92AF92BF92CF92DF92EF92FF920F933E
:101960001F93CF93DF93E0917301F0917401609125
:101970007501709176019F01261B370B309346014C
:101980002093450140917701509178012091790190
:1019900030917A01EA01C21BD30BD0934401C0936A
:1019A00043016E0F7F1F240F351F261737070CF0DA
:1019B0007AC70E9492030E949B0A813009F4E4C115
:1019C00024F4882351F00C940B15823009F4B9C328
:1019D000833009F4ADC50C940B1585EB95E00E949E
:1019E000C51BC0914501D09146011C161D060CF087
:1019F000FFC08091750190917601803991400CF083
:101A000094C0BE01882777FD8095982F0E943721CA
:101A100026E636E646EE5EE30E94EB216B017C0192
:101A20008091410190914201BE01681B790B88278A
:101A300077FD8095982F0E9437212AE037ED43E209
:101A40005DE30E94EB219B01AC01C701B6010E943E
:101A500033200E94092170938D0060938C00C09107
:101A60007301D0917401C03981E0D807ECF5609121
:101A70008C0070918D0080E090E00E9435216B0118
:101A80007C0160E971E06C1B7D0B660F771F882776
:101A900077FD8095982F0E9437214B015C01809142
:101AA0003F0190914001BE01681B790B882777FDAB
:101AB0008095982F0E9437212DEC3CEC4CE45EE39E
:101AC0000E94EB219B01AC01C501B4010E943420AE
:101AD0009B01AC01C701B6010E9434200E9409217C
:101AE00070938D0060938C0080918C0090918D009C
:101AF00090938B0080938A002A9A2B9885EA95E030
:101B00000E94C51B80918C0090918D000E94F91B52
:101B100080E995E00E94C51B80918A0090918B001E
:101B20000E94F91B8EE895E074C78091880090911F
:101B3000890090938D0080938C0060918800709153
:101B40008900C0914501D091460180E090E00E945B
:101B500035216B017C01BE01882777FD8095982F88
:101B60000E9437212DEC3CEC4CEC5EE30E94EB2113
:101B70009B01AC01C701B6010E9433206B017C01BF
:101B80008091410190914201BE01681B790B882729
:101B900077FD8095982F0E9437212DEC3CEC4CEC82
:101BA0005CE30E94EB219B01AC01C701B6010E94DE
:101BB00034200E94092170938B0060938A002A9A36
:101BC0002B9A8EE795E00E94C51B80918C00909126
:101BD0008D000E94F91B8AE695E00E94C51B80914A
:101BE0008A0090918B000E94F91B88E695E011C74E
:101BF00080917301909174016E01EE24D7FCE09402
:101C0000FE2C0091410110914201803991400CF06D
:101C100063C0C701B6010E94372126E636E646EECC
:101C20005EEB0E94EB216B017C01BE01601B710B1E
:101C3000882777FD8095982F0E9437212AE037ED7D
:101C400043E25DE30E94EB219B01AC01C701B601B9
:101C50000E9434200E94092170938D0060938C00B3
:101C6000809175019091760180399140A4F4209182
:101C70008C0030918D0080E991E040913D015091C0
:101C80003E01841B950B880F991F820F931F909321
:101C90008D0080938C0080918C0090918D009093AA
:101CA0008B0080938A002A982B9A87E595E00E9402
:101CB000C51B80918C0090918D000E94F91B83E4DC
:101CC00095E00E94C51B80918A0090918B000E9434
:101CD000F91B81E495E09DC66091880070918900B0
:101CE00080E090E00E9435214B015C01C701B60104
:101CF0000E9437212DEC3CEC4CEC5EE30E94EB2182
:101D00009B01AC01C501B4010E9434206B017C0130
:101D1000BE01601B710B882777FD8095982F0E946C
:101D200037212DEC3CEC4CEC5CE30E94EB219B0159
:101D3000AC01C701B6010E9433200E9409217093B3
:101D40008D0060938C008091880090918900909321
:101D50008B0080938A002A9A2B9A81E395E00E9457
:101D6000C51B80918C0090918D000E94F91B8DE124
:101D700095E00E94C51B80918A0090918B000E9483
:101D8000F91B8BE195E045C681E195E00E94C51BFA
:101D9000C0914501D09146011C161D060CF0E5C00E
:101DA000CE3E82E0D8070CF062C06091880070914E
:101DB000890080E090E00E9435216B017C016EEE8D
:101DC00072E06C1B7D0B882777FD8095982F0E9411
:101DD00037212DEC3CEC4CEC5EE30E94EB219B01A7
:101DE000AC01C701B6010E9433206B017C018091D8
:101DF000410190914201BE01681B790B882777FD54
:101E00008095982F0E9437212DEC3CEC4CEC5CE344
:101E10000E94EB219B01AC01C701B6010E94332057
:101E20000E94092170938D0060938C00809188003E
:101E30009091890090938B0080938A002A9A2B9A24
:101E400081E095E00E94C51B80918C0090918D00EF
:101E50000E94F91B8DEE94E00E94C51B80918A00C0
:101E600090918B000E94F91B8BEE94E0D2C580917B
:101E700088009091890090938D0080938C00C335E9
:101E8000D3400CF451C02091880030918900C0915A
:101E90004501D091460182E593E08C1B9D0BBC016E
:101EA000660F771F680F791F620F731F80E090E045
:101EB0000E9435216B017C0180914101909142018A
:101EC000BE01681B790B882777FD8095982F0E94AB
:101ED00037212DEC3CEC4CE45EE30E94EB219B01AE
:101EE000AC01C701B6010E9434200E940921709301
:101EF0008B0060938A002A9A2B9A8BED94E00E94C3
:101F0000C51B80918C0090918D000E94F91B87EC7D
:101F100094E00E94C51B80918A0090918B000E94E2
:101F2000F91B85EC94E075C580918800909189003B
:101F300090938B0080938A002A9A2B9A85EB94E0E9
:101F40000E94C51B80918C0090918D000E94F91B0E
:101F500081EA94E00E94C51B80918A0090918B00D9
:101F60000E94F91B8FE994E054C5C3318DEFD80767
:101F70000CF465C0809188009091890090938D0049
:101F800080938C006091880070918900C091450118
:101F9000D091460180E090E00E9435216B017C01E8
:101FA000BE0162517D4F882777FD8095982F0E9452
:101FB00037212DEC3CEC4CEC5EE30E94EB219B01C5
:101FC000AC01C701B6010E9433206B017C018091F6
:101FD000410190914201BE01681B790B882777FD72
:101FE0008095982F0E9437212DEC3CEC4CEC5CE363
:101FF0000E94EB219B01AC01C701B6010E94342075
:102000000E94092170938B0060938A002A9A2B9A70
:102010008FE894E00E94C51B80918C0090918D0008
:102020000E94F91B8BE794E00E94C51B80918A00F7
:1020300090918B000E94F91B89E794E0EAC4CE3AA4
:102040002CEFD2070CF054C0209188003091890009
:10205000CE018E5A9C4FBC01660F771F680F791F07
:10206000620F731F80E090E00E9435216B017C01BC
:102070008091410190914201BE01681B790B882734
:1020800077FD8095982F0E9437212DEC3CEC4CE495
:102090005EE30E94EB219B01AC01C701B6010E94E7
:1020A00033200E94092170938D0060938C008091F1
:1020B00088009091890090938B0080938A002A9ADF
:1020C0002B9A89E694E00E94C51B80918C00909128
:1020D0008D000E94F91B85E594E00E94C51B80914C
:1020E0008A0090918B000E94F91B83E594E091C4D3
:1020F000809188009091890090938D0080938C004E
:10210000809188009091890090938B0080938A0041
:102110002A9A2B9A83E494E00E94C51B80918C003C
:1021200090918D000E94F91B8FE294E00E94C51BE4
:1021300080918A0090918B000E94F91B8DE294E0BF
:1021400068C483E294E00E94C51BC0914501D09110
:1021500046011C161D060CF0FFC0CF3E82E0D807DA
:102160000CF466C0809188009091890090938D0056
:1021700080938C006091880070918900C091450126
:10218000D091460180E090E00E9435216B017C01F6
:102190006EEE72E06C1B7D0B882777FD8095982F83
:1021A0000E9437212DEC3CEC4CEC5EE30E94EB21CD
:1021B0009B01AC01C701B6010E9434206B017C0178
:1021C0008091410190914201BE01681B790B8827E3
:1021D00077FD8095982F0E9437212DEC3CEC4CEC3C
:1021E0005CE30E94EB219B01AC01C701B6010E9498
:1021F00034200E94092170938B0060938A002A9AF0
:102200002B9A83E194E00E94C51B80918C009091F1
:102210008D000E94F91B8FEF93E00E94C51B8091F7
:102220008A0090918B000E94F91B8DEF93E0F1C31F
:10223000BE01882777FD8095982F0E94372126E6DA
:1022400036E646EE5EE30E94EB216B017C01809155
:10225000410190914201BE01681B790B882777FDEF
:102260008095982F0E9437212AE037ED43E25DE305
:102270000E94EB219B01AC01C701B6010E943320F3
:102280000E94092170938D0060938C00C0917301AE
:10229000D0917401C03921E0D207ECF560918C0037
:1022A00070918D0080E090E00E9435216B017C01EF
:1022B00060E971E06C1B7D0B660F771F882777FD47
:1022C0008095982F0E9437214B015C0180913F013E
:1022D00090914001BE01681B790B882777FD80959E
:1022E000982F0E9437212DEC3CEC4CE45EE30E94D9
:1022F000EB219B01AC01C501B4010E9434209B017C
:10230000AC01C701B6010E9434200E9409217093DC
:102310008D0060938C0080918C0090918D00909343
:102320008B0080938A002A9A2B988DEE93E00E946E
:10233000C51B80918C0090918D000E94F91B88ED47
:1023400093E00E94C51B80918A0090918B000E94AF
:10235000F91B86ED93E05DC3C3318DEFD8070CF414
:1023600065C0809188009091890090938D00809342
:102370008C006091880070918900C0914501D091D6
:10238000460180E090E00E9435216B017C01BE0196
:1023900062517D4F882777FD8095982F0E943721C5
:1023A0002DEC3CEC4CEC5EE30E94EB219B01AC017C
:1023B000C701B6010E9433206B017C01809141016D
:1023C00090914201BE01681B790B882777FD8095AB
:1023D000982F0E9437212DEC3CEC4CEC5CE30E94E2
:1023E000EB219B01AC01C701B6010E9434200E9481
:1023F000092170938B0060938A002A9A2B9A86ECAD
:1024000093E00E94C51B80918C0090918D000E94EA
:10241000F91B82EB93E00E94C51B80918A0090918A
:102420008B000E94F91B80EB93E0F3C2CE3A2CEFB5
:10243000D2070CF054C02091880030918900CE0161
:102440008E5A9C4FBC01660F771F680F791F620F71
:10245000731F80E090E00E9435216B017C01809128
:10246000410190914201BE01681B790B882777FDDD
:102470008095982F0E9437212DEC3CEC4CE45EE3D4
:102480000E94EB219B01AC01C701B6010E943320E1
:102490000E94092170938D0060938C0080918800C8
:1024A0009091890090938B0080938A002A9A2B9AAE
:1024B00080EA93E00E94C51B80918C0090918D0072
:1024C0000E94F91B8CE893E00E94C51B80918A0052
:1024D00090918B000E94F91B8AE893E09AC2809148
:1024E00088009091890090938D0080938C0080915A
:1024F00088009091890090938B0080938A002A9A9B
:102500002B9A8AE793E00E94C51B80918C009091E2
:102510008D000E94F91B86E693E00E94C51B809106
:102520008A0090918B000E94F91B84E693E071C2AF
:102530008AE593E00E94C51BC0914501D0914601F8
:10254000D7FFCCC00091410110914201C2318DEF03
:10255000D8070CF05DC0609188007091890080E020
:1025600090E00E9435216B017C01BE0162517D4FDC
:10257000882777FD8095982F0E9437212DEC3CEC21
:102580004CEC5EE30E94EB219B01AC01C701B6015C
:102590000E9434206B017C01BE01601B710B8827F7
:1025A00077FD8095982F0E9437212DEC3CEC4CEC68
:1025B0005CE30E94EB219B01AC01C701B6010E94C4
:1025C00033200E94092170938D0060938C008091CC
:1025D00088009091890090938B0080938A002A9ABA
:1025E0002B9A8AE493E00E94C51B80918C00909105
:1025F0008D000E94F91B86E393E00E94C51B809129
:102600008A0090918B000E94F91B84E393E001C241
:10261000BE01882777FD8095982F0E94372126E6F6
:1026200036E646EE5EEB0E94EB216B017C01BE01BB
:10263000601B710B882777FD8095982F0E943721AA
:102640002AE037ED43E25DE30E94EB219B01AC0100
:10265000C701B6010E9434200E94092170938D00A9
:1026600060938C0080917501909176018039914042
:10267000A4F420918C0030918D0080E991E040918C
:102680003D0150913E01841B950B880F991F820FCD
:10269000931F90938D0080938C0080918C0090917B
:1026A0008D0090938B0080938A002A982B9A83E266
:1026B00093E00E94C51B80918C0090918D000E9438
:1026C000F91B8FE093E00E94C51B80918A009091D6
:1026D0008B000E94F91B8DE093E09BC1CE3E82E00F
:1026E000D8070CF062C0609188007091890080E08A
:1026F00090E00E9435216B017C016EEE72E06C1B54
:102700007D0B882777FD8095982F0E9437212DEC2F
:102710003CEC4CEC5EE30E94EB219B01AC01C70159
:10272000B6010E9433206B017C01809141019091A0
:102730004201BE01681B790B882777FD8095982F91
:102740000E9437212DEC3CEC4CEC5CE30E94EB2129
:102750009B01AC01C701B6010E9433200E940921F0
:1027600070938D0060938C00809188009091890017
:1027700090938B0080938A002A9A2B9A8DEF92E097
:102780000E94C51B80918C0090918D000E94F91BC6
:1027900089EE92E00E94C51B80918A0090918B0087
:1027A0000E94F91B87EE92E034C1809188009091DD
:1027B000890090938D0080938C00C335D3400CF436
:1027C00051C02091880030918900C0914501D0917D
:1027D000460182E593E08C1B9D0BBC01660F771FC1
:1027E000680F791F620F731F80E090E00E9435210F
:1027F0006B017C018091410190914201BE01681BF7
:10280000790B882777FD8095982F0E9437212DEC32
:102810003CEC4CE45EE30E94EB219B01AC01C70160
:10282000B6010E9434200E94092170938B006093AE
:102830008A002A9A2B9A87ED92E00E94C51B80910C
:102840008C0090918D000E94F91B83EC92E00E9415
:10285000C51B80918A0090918B000E94F91B81EC2E
:1028600092E0D7C0809188009091890090938B006E
:1028700080938A002A9A2B9A81EB92E00E94C51BD2
:1028800080918C0090918D000E94F91B8DE992E05F
:102890000E94C51B80918A0090918B000E94F91BB9
:1028A0008BE992E0B6C06E01EE24D7FCE094FE2CDA
:1028B00000913B0110913C0160918800709189006A
:1028C00080E090E01C161D060CF052C00E943521DD
:1028D0004B015C01C701B6010E9437212DEC3CEC95
:1028E0004CEC5DE30E94EB219B01AC01C501B401FE
:1028F0000E9433206B017C01BE01601B710B882795
:1029000077FD8095982F0E9437212AE037ED43E22A
:102910005CE30E94EB219B01AC01C701B6010E9460
:1029200033200E94092170938D0060938C00809168
:102930008C0090918D0090938B0080938A002A9A4E
:102940002B988BE892E00E94C51B80918C0090919F
:102950008D000E94F91B86E792E00E94C51B8091C2
:102960008A0090918B000E94F91B84E792E051C08D
:102970000E9435214B015C01C701B6010E9437213D
:102980002DEC3CEC4CEC5DE30E94EB219B01AC0197
:10299000C501B4010E9434206B017C01BE01601BA3
:1029A000710B882777FD8095982F0E9437212AE0A8
:1029B00037ED43E25CE30E94EB219B01AC01C701D0
:1029C000B6010E9434200E94092170938D0060930B
:1029D0008C0080918C0090918D0090938B0080935F
:1029E0008A002A982B9A83E692E00E94C51B809168
:1029F0008C0090918D000E94F91B8FE492E00E9460
:102A0000C51B80918A0090918B000E94F91B8DE478
:102A100092E00E94C51B80914501909146019093E0
:102A20004201809341018091430190914401909330
:102A30003C0180933B0180917301909174019093CC
:102A4000400180933F0180917501909176019093B0
:102A50003E0180933D01DF91CF911F910F91FF9037
:102A6000EF90DF90CF90BF90AF909F908F900895A0
:102A7000589A599A5A9A8CE08093B800E9E6F0E0A7
:102A800080818062808380818F7E8083EA9A7894BF
:102A9000089584E88093BC008091BC0087FFFCCF40
:102AA0008091BB00089584E98093BC00089520E0E4
:102AB00030E08091BC0087FD06C02F5F3F4F293E6C
:102AC00083E03807B1F781E0283E334009F480E025
:102AD00008958093BB0084E88093BC000E94571542
:102AE000882321F08091B900887F089580E00895BF
:102AF0001F93CF93DF931F92CDB7DEB7182F84EAD1
:102B00008093BC0069830E9457156981811104C0BC
:102B100094E99093BC0014C0812F880F662331F094
:102B20008F5F0E946915883451F404C00E946915B2
:102B3000803229F484E98093BC0080E001C081E008
:102B40000F90DF91CF911F910895CF93DF93C82FFE
:102B5000D62F60E00E947815882391F08D2F0E9477
:102B60006915882369F084E98093BC0061E08C2FAB
:102B70000E947815882321F0DF91CF910C9449159C
:102B800080E0DF91CF910895CF93DF93D62FC42FAC
:102B900060E00E947815811102C080E00EC08D2F88
:102BA0000E9469158823C9F38C2F0E946915882318
:102BB000A1F384E98093BC0081E0DF91CF91089577
:102BC000CF93DF9300D01F92CDB7DEB74B836A83DC
:102BD00089830E94381594EA9093BC0089816A81A8
:102BE0004B819091BC0097FFFCCF90E59093BB0088
:102BF00094E89093BC009091BC0097FFFCCF90911B
:102C0000B900987F903229F484E98093BC0080E079
:102C100029C091E09093BB0094E89093BC00909100
:102C2000BC0097FFFCCF8093BB0084E88093BC007E
:102C30008091BC0087FFFCCF6093BB0084E8809349
:102C4000BC008091BC0087FFFCCF4093BB0084E8B0
:102C50008093BC008091BC0087FFFCCF84E9809307
:102C6000BC0081E00F900F900F90DF91CF910895FD
:102C700024EA2093BC002091BC0027FFFCCF21E573
:102C80002093BB0024E82093BC002091BC0027FFC8
:102C9000FCCF2091B900287F2834A9F024EC2093A0
:102CA000BC002091BC0027FFFCCF2091BB00261365
:102CB0000AC0FC0120E030E0772767FD7095615085
:102CC000710944EC0EC084E98093BC0080E0089553
:102CD0005091BC0057FFFCCF5091BB0051932F5F28
:102CE0003F4F261737071CF44093BC00F1CF44E850
:102CF0004093BC004091BC0047FFFCCF4091BB001B
:102D0000FC01E20FF31F408384E98093BC0081E063
:102D10000895F89494EA9093BC009091BC0097FFBA
:102D2000FCCF90E59093BB0094E89093BC00909109
:102D3000BC0097FFFCCF9091B900987F903231F49E
:102D400084E98093BC00789480E0089593E09093A8
:102D5000BB0094E89093BC009091BC0097FFFCCF1F
:102D60008093BB0084E88093BC008091BC0087FF07
:102D7000FCCFFB01552747FD509524E8CF01861B6A
:102D8000970B8417950754F481918093BB0020938F
:102D9000BC008091BC0087FFFCCFF0CF84E980931A
:102DA000BC00789481E008958091E80080FFFCCF1A
:102DB000089581E08093D70080EA8093D80082E173
:102DC00089BD09B400FEFDCF80E98093D800109240
:102DD000E00010924A01109247018CE08093E200DB
:102DE0007894089580914A0108959FB7F89480914E
:102DF0004A01882339F083E08093E9008091E8005C
:102E000085FD03C09FBF8FEF08958091F100209151
:102E1000E80025FD03C02BE62093E8009FBF08953E
:102E20009FB7F89480914A01882331F083E0809322
:102E3000E9008091F20001C080E09FBF0895809179
:102E40004A01882371F08FB7F89493E09093E900DA
:102E50002BE69091E80095FF03C02093E800F9CF9E
:102E60008FBF089590914A01992371F09FB7F8940C
:102E700024E02093E90020914801222349F0209189
:102E8000E80025FD03C09FBF8FEF08951092480111
:102E90002091E400275E34E04091E80045FD12C037
:102EA0009FBF9091E400921304C081E08093480199
:102EB000EBCF90914A01992339F39FB7F89430935F
:102EC000E900EACF8093F1008091E80085FD03C01E
:102ED0008AE38093E80085E0809349019FBF80E00A
:102EE000089590914A019923D1F09FB7F89424E076
:102EF0002093E9002091E80025FD02C09FBF0FC08C
:102F00008093F1008091E80085FD03C08AE38093FF
:102F1000E80085E0809349019FBF80E008958FEF2E
:102F20000895EF92FF921F93CF93DF937C01CB0123
:102F300020914A01222371F0AFB7F89424E0209346
:102F4000E90020914801222349F02091E80025FD65
:102F500003C0AFBF8FEF42C210924801B4E0C0E49B
:102F6000DAE315E0009709F437C22091E400275E08
:102F70003091E80035FD12C0AFBF3091E40032134C
:102F800004C081E080934801E5CF30914A013323AA
:102F900009F3AFB7F894B093E900EACF2091F200BB
:102FA0004C2F421B242F30E08217930708F4482F40
:102FB000841B910950E04134510508F0FDC14A5A83
:102FC0005F4FFA010C94A522F70120812093F100B4
:102FD00097012F5F3F4F7901F70120812093F10086
:102FE00097012F5F3F4F7901F70120812093F10076
:102FF00097012F5F3F4F7901F70120812093F10066
:1030000097012F5F3F4F7901F70120812093F10055
:1030100097012F5F3F4F7901F70120812093F10045
:1030200097012F5F3F4F7901F70120812093F10035
:1030300097012F5F3F4F7901F70120812093F10025
:1030400097012F5F3F4F7901F70120812093F10015
:1030500097012F5F3F4F7901F70120812093F10005
:1030600097012F5F3F4F7901F70120812093F100F5
:1030700097012F5F3F4F7901F70120812093F100E5
:1030800097012F5F3F4F7901F70120812093F100D5
:1030900097012F5F3F4F7901F70120812093F100C5
:1030A00097012F5F3F4F7901F70120812093F100B5
:1030B00097012F5F3F4F7901F70120812093F100A5
:1030C00097012F5F3F4F7901F70120812093F10095
:1030D00097012F5F3F4F7901F70120812093F10085
:1030E00097012F5F3F4F7901F70120812093F10075
:1030F00097012F5F3F4F7901F70120812093F10065
:1031000097012F5F3F4F7901F70120812093F10054
:1031100097012F5F3F4F7901F70120812093F10044
:1031200097012F5F3F4F7901F70120812093F10034
:1031300097012F5F3F4F7901F70120812093F10024
:1031400097012F5F3F4F7901F70120812093F10014
:1031500097012F5F3F4F7901F70120812093F10004
:1031600097012F5F3F4F7901F70120812093F100F4
:1031700097012F5F3F4F7901F70120812093F100E4
:1031800097012F5F3F4F7901F70120812093F100D4
:1031900097012F5F3F4F7901F70120812093F100C4
:1031A00097012F5F3F4F7901F70120812093F100B4
:1031B00097012F5F3F4F7901F70120812093F100A4
:1031C00097012F5F3F4F7901F70120812093F10094
:1031D00097012F5F3F4F7901F70120812093F10084
:1031E00097012F5F3F4F7901F70120812093F10074
:1031F00097012F5F3F4F7901F70120812093F10064
:1032000097012F5F3F4F7901F70120812093F10053
:1032100097012F5F3F4F7901F70120812093F10043
:1032200097012F5F3F4F7901F70120812093F10033
:1032300097012F5F3F4F7901F70120812093F10023
:1032400097012F5F3F4F7901F70120812093F10013
:1032500097012F5F3F4F7901F70120812093F10003
:1032600097012F5F3F4F7901F70120812093F100F3
:1032700097012F5F3F4F7901F70120812093F100E3
:1032800097012F5F3F4F7901F70120812093F100D3
:1032900097012F5F3F4F7901F70120812093F100C3
:1032A00097012F5F3F4F7901F70120812093F100B3
:1032B00097012F5F3F4F7901F70120812093F100A3
:1032C00097012F5F3F4F7901F70120812093F10093
:1032D00097012F5F3F4F7901F70120812093F10083
:1032E00097012F5F3F4F7901F70120812093F10073
:1032F00097012F5F3F4F7901F70120812093F10063
:1033000097012F5F3F4F7901F70120812093F10052
:1033100097012F5F3F4F7901F70120812093F10042
:1033200097012F5F3F4F7901F70120812093F10032
:1033300097012F5F3F4F7901F70120812093F10022
:1033400097012F5F3F4F7901F70120812093F10012
:1033500097012F5F3F4F7901F70120812093F10002
:1033600097012F5F3F4F7901F70120812093F100F2
:1033700097012F5F3F4F7901F70120812093F100E2
:1033800097012F5F3F4F7901F70120812093F100D2
:1033900097012F5F3F4F7901F70120812093F100C2
:1033A00097012F5F3F4F7901F70120812093F100B2
:1033B00097012F5F3F4F7901F70120812093F100A2
:1033C00097012F5F3F4F79012091E80025FFD093AF
:1033D000E80010934901C6CDAFBF80E0DF91CF91E7
:1033E0001F91FF90EF9008958FB7F8949091490145
:1033F000992341F094E09093E9009AE39093E800D8
:10340000109249018FBF0895809104010895809121
:10341000050108958091060108958091470108955E
:103420009FB7F89420914A01222339F022E020939B
:10343000E9003091E80035FD03C09FBF8FEF08958C
:1034400031EA3093F10030E23093F1001092F10054
:103450001092F1001092F1001092F1002093F1000F
:103460001092F1008093F1001092F1008AE38093B2
:10347000E8009FBF80E008951F920F920FB60F9251
:1034800011248F939F938091E1001092E10083FFBC
:1034900011C01092E90091E09093EB001092EC00C3
:1034A00092E19093ED0098E09093F00010924A0121
:1034B0001092470182FF13C080914A01882379F05E
:1034C00080914901882359F08150809349018111ED
:1034D00006C084E08093E9008AE38093E8009F912E
:1034E0008F910F900FBE0F901F9018951F920F9203
:1034F0000FB60F921124EF92FF920F931F932F9309
:103500003F934F935F936F937F938F939F93AF936B
:10351000BF93EF93FF93CF93DF931F92CDB7DEB7A7
:103520001092E9008091E80083FF14C19091F100AE
:103530008091F1003091F1002091F100E32EF12C07
:10354000F22A0091F1002091F10010E0122B20915D
:10355000F1006091F10032EF3093E800863009F01D
:1035600046C036E086EE95E0FC01459154914E153B
:103570005F0539F4FC01329645915491401751078B
:1035800021F00796315081F7E5C0FC013496459152
:103590005491FC013696849130E0362B2F3F310553
:1035A00019F010F02FEF30E0281708F4822F3EEFCB
:1035B0009091E800292F2570D9F392FDCEC0982F65
:1035C000813108F090E1FA01292F222331F0649132
:1035D0006093F10021503196F8CF490F511D891B9E
:1035E0003093E8008111E4CF903111F3B6C08530FB
:1035F00051F48EEF8093E8000E94D4168E2D8068DF
:103600008093E300AAC0893059F5911180C0E092FF
:103610004A0110924701109249018EEF8093E80011
:1036200041E08FE896E04093E9009C012F5F3F4F17
:10363000FC0154915093EB00552359F0F90124916A
:103640002093EC009C012D5F3F4F31968491809335
:10365000ED004F5F453011F0C901E5CF8EE175C037
:10366000883051F4903809F052C00E94D4168091ED
:103670004A018093F10047C0813279F4913A09F010
:1036800046C00E94D416E0E0F1E081918093F10001
:1036900081E0E730F807C9F736C0803299F49132FB
:1036A000B1F58091E80082FFFCCFE0E0F1E080918D
:1036B000F100819381E0E730F807C9F78BEF809341
:1036C000E80021C0823241F4913209F043C0E09217
:1036D00047010E94D41617C0811119C099830E9416
:1036E000D4169981923851F40093E9008091EB004F
:1036F00085FB882780F91092E90001C080E0809363
:10370000F1001092F1008EEF8093E80026C0282F80
:103710002D7F2130F9F49230E9F4EF28D9F40F77B6
:103720009FEF900F9430B0F49EEF9093E8000093D9
:10373000E900833079F089E18093EB0081E090E04B
:10374000002E01C0880F0A94EAF78093EA001092D5
:10375000EA0003C081E28093EB000F90DF91CF91EC
:10376000FF91EF91BF91AF919F918F917F916F9159
:103770005F914F913F912F911F910F91FF90EF908B
:103780000F900FBE0F901F9018951F93CF93DF934C
:10379000EC01FE011491112351F01A3019F48DE05F
:1037A0000E943217812F0E9432172196F2CFDF91AB
:1037B000CF911F9108958A3010F490E301C097E3F0
:1037C000890F0C943217CF93C82F82958F700E9467
:1037D000DB1B8C2F8F70CF910C94DB1BCF93C82FEA
:1037E000892F0E94E31B8C2FCF910C94E31B0C9428
:1037F000E31BEF92FF920F931F93CF93DF93CDB70D
:10380000DEB727970FB6F894DEBF0FBECDBF8E018F
:103810000F5F1F4F27E0F80111922A95E9F74AE060
:10382000B8010E94AB227E01F8E0EF0EF11CF80116
:1038300081918F0181110E9432170E151F05B9F772
:1038400027960FB6F894DEBF0FBECDBFDF91CF91A4
:103850001F910F91FF90EF900895EF92FF920F93B9
:103860001F93CF93DF9300D000D000D0CDB7DEB749
:103870008E010F5F1F4F26E0F80111922A95E9F79C
:103880004AE0B8010E94E7227E01F6E0EF0EF11C4B
:10389000F80181918F0181110E9432170E151F05C9
:1038A000B9F726960FB6F894DEBF0FBECDBFDF91F5
:1038B000CF911F910F91FF90EF900895EF92FF929B
:1038C0000F931F93CF93DF93CDB7DEB72B970FB630
:1038D000F894DEBF0FBECDBF8E010F5F1F4F2BE0F0
:1038E000F80111922A95E9F72AE0A8010E94B62270
:1038F0007E01FCE0EF0EF11CF80181918F01811136
:103900000E9432170E151F05B9F72B960FB6F894C3
:10391000DEBF0FBECDBFDF91CF911F910F91FF9002
:10392000EF900895EF92FF920F931F93CF93DF9341
:10393000CDB7DEB72B970FB6F894DEBF0FBECDBF65
:103940008E010F5F1F4F2BE0F80111922A95E9F7C6
:103950002AE0A8010E94C5227E01FBE0EF0EF11CC7
:10396000F80181918F0181110E9432170E151F05F8
:10397000B9F72B960FB6F894DEBF0FBECDBFDF911F
:10398000CF911F910F91FF90EF90089520E030E0CC
:103990008091BC0087FD06C02F5F3F4F293E83E02A
:1039A0003807B1F781E0283E334009F480E00895FC
:1039B0008093BB0084E88093BC000E94C61C8823CF
:1039C00019F08091B900887F0895CF93C82F84EAB9
:1039D0008093BC000E94C61C882361F08C2F880F46
:1039E0000E94D81C803229F484E98093BC0080E0D6
:1039F00001C081E0CF9108950E94381588E50E94AA
:103A0000E51C811102C080E0089580E30E94D81C6B
:103A10008823C9F381E00E94D81C8823A1F384E99C
:103A20008093BC008FE39CE90197F1F700C0000090
:103A300088E50E94E51C882331F380E00E94D81CB1
:103A4000882309F380E00E94D81C8823E1F280E0FB
:103A50000E94D81C8823B9F280E00E94D81C8823D9
:103A600091F280E00E94D81C882369F280E00E94D5
:103A7000D81C882341F280E00E94D81C882319F2C8
:103A800080E90E94D81C882309F4BDCF84E9809383
:103A9000BC008FE39CE90197F1F700C0000088E5C6
:103AA0000E94E51C882309F4AECF87E00E94D81C51
:103AB000882309F4A8CF80E00E94D81C882309F449
:103AC000A2CF81E40E94D81C882309F49CCF84E90A
:103AD0008093BC008FE39CE90197F1F700C00000E0
:103AE00088E50E94E51C882309F48DCF8AE10E94B5
:103AF000D81C882309F487CF80E40E94D81C88232F
:103B000009F481CF80E00E94D81C882309F47BCF80
:103B100084E98093BC008FE39CE90197F1F700C032
:103B2000000088E50E94E51C882309F46CCF83E33C
:103B30000E94D81C882309F466CF83E00E94D81C19
:103B4000882309F460CF84E98093BC008FE39CE96B
:103B50000197F1F700C0000088E50E94E51C88236A
:103B600009F451CF80E30E94D81C882309F44BCF7D
:103B700088E00E94D81C882309F445CF84E980930B
:103B8000BC008FE39CE90197F1F700C0000081E0E1
:103B90000895CF93C82F84EA8093BC000E94C61C6E
:103BA000882369F08C2F880F8F5F0E94D81C88347F
:103BB00029F484E98093BC0080E001C081E0CF91CA
:103BC0000895EF92FF920F931F93CF93DF93CDB79A
:103BD000DEB760970FB6F894DEBF0FBECDBF7C0195
:103BE0008E010F5F1F4F80E1F80111928A95E9F76E
:103BF00088E50E94E51C811102C080E05EC086E37A
:103C00000E94D81C8823C9F384E98093BC00F5E89E
:103C1000FA95F1F7000088E50E94C91D882369F331
:103C2000F8019E01205F3F4F94EC9093BC0080917F
:103C3000BC0087FFFCCF8091BB008193E217F307A4
:103C4000A1F784E88093BC008091BC0087FFFCCF83
:103C50008091BB00888B84E98093BC00DE011496C0
:103C600087016C91762F7073AD0142505109FA01B2
:103C7000808190E0F0E17F9F800D911D1124F8017B
:103C800091838083762F707C4F5F5F4FFA01808134
:103C900090E0F4E07F9F800D911D1124F801938343
:103CA00082836F70862F90E09583848313960A5FDA
:103CB0001F4FA217B307A9F681E060960FB6F894DC
:103CC000DEBF0FBECDBFDF91CF911F910F91FF904F
:103CD000EF90089584E98093BC00089584EF91E00B
:103CE0009093890080938800E1E8F0E080818B7FE9
:103CF000808380818D7F80838081816080838081CB
:103D000080618083808188608083E0E8F0E080814A
:103D100082608083808181608083808180628083F3
:103D200080818F7E808380818860808380818B7F8B
:103D30008083269A279A08951F920F920FB60F92AA
:103D400011242F933F934F935F936F937F938F93A0
:103D50009F93AF93BF93EF93FF936E9A76986AE029
:103D60008BE491E00E94381680914B0190E00E9414
:103D7000F91B80914B0190E0FC01E05AF109E83019
:103D8000F10550F5E956FF4F0C94A5228CEC96E016
:103D90000E94C51B81E090E006C085EC96E00E9481
:103DA000C51B82E090E0909314018093130114C02E
:103DB0008DEB96E00BC085EB96E008C08EEA96E0AE
:103DC00005C084EA96E002C089E996E00E94C51B1E
:103DD00010921401109213016E9A769AFF91EF914E
:103DE000BF91AF919F918F917F916F915F914F9113
:103DF0003F912F910F900FBE0F901F901895189B19
:103E000025C082EA9EEF9093100180930F0186EF08
:103E10009FEF909312018093110188EC90E09093B2
:103E20000C0180930B018AE090E090930E01809347
:103E30000D0122E731E030930801209307019093B0
:103E40000A01809309015F985E9A089582E791E0E4
:103E50009093100180930F018AE090E090931201FB
:103E60008093110188E39FEF90930C0180930B01E5
:103E700086EF9FEF90930E0180930D0122EA3EEFB3
:103E8000309308012093070190930A018093090160
:103E90005F9A5E9808951F920F920FB60F921124A9
:103EA0002F933F934F935F936F937F938F939F9342
:103EB000AF93BF93EF93FF930E94FF1EFF91EF918B
:103EC000BF91AF919F918F917F916F915F914F9132
:103ED0003F912F910F900FBE0F901F901895209833
:103EE0002198249A259A579A569A85B1836085B964
:103EF000E8E6F0E0808181608083EBE6F0E080819D
:103F0000836080830C94FF1E6A9A7298E1E6F0E069
:103F100080E8808310820E94D9160E9438152FEF06
:103F200087EA91E6215080409040E1F700C0000010
:103F30004AE06CE181E00E94E0150E947C0C0E9446
:103F40006E1E239A229A3E9A3F9A539A78940E9420
:103F50006F1F0E94FC1C6A9A729A08950E94841F27
:103F600080911301909114018130910579F0823094
:103F7000910509F459C00097B9F710928B0010927F
:103F80008A0010928D0010928C00EACF189B24C0FA
:103F90005F9A5E982FEF83EC99E02150804090402B
:103FA000E1F700C000005F985E9A2FEF83EC99E084
:103FB000215080409040E1F700C000005F9A5E9879
:103FC0002FEF83EC99E0215080409040E1F700C052
:103FD00000005F985E9A23C05F985E9A2FEF83EC93
:103FE00099E0215080409040E1F700C000005F9AC6
:103FF0005E982FEF83EC99E0215080409040E1F7EC
:1040000000C000005F985E9A2FEF83EC99E021508A
:1040100080409040E1F700C000005F9A5E981092E7
:104020001401109213019CCF6A9A72980E940A0B95
:10403000813049F0823071F0811112C08BE091E043
:104040000E9427090DC0469A8FE091E00E9427093F
:10405000469806C0479A8FE091E00E94A70C4798C7
:104060006A9A729A7DCF5058BB27AA270ED075C185
:1040700066D130F06BD120F031F49F3F11F41EF483
:104080005BC10EF4E095E7FB51C1E92F77D180F3D6
:10409000BA17620773078407950718F071F49EF545
:1040A0008FC10EF4E0950B2EBA2FA02D0B01B90194
:1040B00090010C01CA01A0011124FF27591B99F09E
:1040C000593F50F4503E68F11A16F040A22F232FAA
:1040D000342F4427585FF3CF469537952795A795FA
:1040E000F0405395C9F77EF41F16BA0B620B730BA1
:1040F000840BBAF09150A1F0FF0FBB1F661F771F12
:10410000881FC2F70EC0BA0F621F731F841F48F4C6
:10411000879577956795B795F7959E3F08F0B3CF4C
:104120009395880F08F09927EE0F97958795089536
:10413000D9D008F481E008950CD00FC107D140F028
:10414000FED030F021F45F3F19F0F0C0511139C1B9
:10415000F3C014D198F39923C9F35523B1F3951BF8
:10416000550BBB27AA2762177307840738F09F5F98
:104170005F4F220F331F441FAA1FA9F333D00E2E07
:104180003AF0E0E830D091505040E695001CCAF774
:1041900029D0FE2F27D0660F771F881FBB1F261739
:1041A00037074807AB07B0E809F0BB0B802DBF010C
:1041B000FF2793585F4F2AF09E3F510568F0B6C025
:1041C00000C15F3FECF3983EDCF3869577956795E9
:1041D000B795F7959F5FC9F7880F911D96958795BD
:1041E00097F90895E1E0660F771F881FBB1F6217DC
:1041F00073078407BA0720F0621B730B840BBA0B9A
:10420000EE1F88F7E095089504D06894B111D9C0E5
:104210000895BCD088F09F5790F0B92F9927B751D7
:10422000A0F0D1F0660F771F881F991F1AF0BA957A
:10423000C9F712C0B13081F0C3D0B1E00895C0C059
:10424000672F782F8827B85F39F0B93FCCF3869570
:1042500077956795B395D9F73EF4909580957095CD
:1042600061957F4F8F4F9F4F0895E89409C097FB4A
:104270003EF490958095709561957F4F8F4F9F4F3D
:104280009923A9F0F92F96E9BB279395F695879581
:1042900077956795B795F111F8CFFAF4BB0F11F444
:1042A00060FF1BC06F5F7F4F8F4F9F4F16C08823EB
:1042B00011F096E911C0772321F09EE8872F762F21
:1042C00005C0662371F096E8862F70E060E02AF062
:1042D0009A95660F771F881FDAF7880F969587954E
:1042E00097F90895990F0008550FAA0BE0E8FEEF23
:1042F00016161706E807F907C0F012161306E407AA
:10430000F50798F0621B730B840B950B39F40A26A2
:1043100061F0232B242B252B21F408950A2609F480
:10432000A140A6958FEF811D811D089597F99F6784
:1043300080E870E060E008959FEF80EC089500242D
:104340000A941616170618060906089500240A94FA
:1043500012161306140605060895092E0394000C80
:1043600011F4882352F0BB0F40F4BF2B11F460FF0F
:1043700004C06F5F7F4F8F4F9F4F089557FD905838
:10438000440F551F59F05F3F71F04795880F97FB19
:10439000991F61F09F3F79F08795089512161306D3
:1043A0001406551FF2CF4695F1DF08C01616170602
:1043B0001806991FF1CF8695710561050894089537
:1043C000E894BB2766277727CB0197F908958ADF02
:1043D00008F48FEF08950BD0C0CFB1DF28F0B6DF1F
:1043E00018F0952309F0A2CFA7CF1124EACFC6DF9A
:1043F000A0F3959FD1F3950F50E0551F629FF001F8
:10440000729FBB27F00DB11D639FAA27F00DB11D50
:10441000AA1F649F6627B00DA11D661F829F2227D9
:10442000B00DA11D621F739FB00DA11D621F839F60
:10443000A00D611D221F749F3327A00D611D231F36
:10444000849F600D211D822F762F6A2F11249F5784
:1044500050408AF0E1F088234AF0EE0FFF1FBB1FA7
:10446000661F771F881F91505040A9F79E3F510546
:1044700070F05CCFA6CF5F3FECF3983EDCF38695FF
:1044800077956795B795F795E7959F5FC1F7FE2BF1
:10449000880F911D9695879597F9089511F40EF45C
:1044A0004BCF3EC073DFD0F39923D9F3CEF39F57A0
:1044B000550B87FF43D00024A0E640EA90018058C6
:1044C0005695979528F4805C660F771F881F20F01B
:1044D00026173707480730F4621B730B840B20291B
:1044E00031294A2BA69517940794202531254A2770
:1044F00058F7660F771F881F20F0261737074807E1
:1045000030F4620B730B840B200D311D411DA095FF
:1045100081F7B901842F9158880F96958795089552
:104520009F3F31F0915020F4879577956795B79527
:10453000880F911D9695879597F908959150504051
:10454000660F771F881FD2F70895EE0FFF1F0590A3
:10455000F491E02D0994BB274A3031F4992322F4D9
:10456000BDE2909581959F4F0C94E822BB272A309D
:1045700051F4992342F4BDE2909580957095619530
:104580007F4F8F4F9F4F0C94C622BB27FA01A62F57
:104590006217710581059105330B30FB66F0AA2780
:1045A000660F771F881F991FAA1FA21710F0A21B62
:1045B00063953850A9F7A05DAA3308F0A95DA193CF
:1045C00036F7B111B1931082CA010C940123BB27B5
:1045D000FB015527AA27880F991FAA1FA41710F0BF
:1045E000A41B83955051B9F7A05DAA3308F0A95DCB
:1045F000A193009779F7B111B1931192CB010C946B
:104600000123DC01FC01672F71917723E1F73297D9
:1046100004C07C916D9370836291AE17BF07C8F39D
:064620000895F894FFCF9D
:1046260000E1000000000872010A00C8000A00A2AA
:06463600FEF6FF02000089
:00000001FF
