:100000000C9460010C947D010C947D010C94F0091A
:100010000C947D010C947D010C947D010C947D0168
:100020000C947D010C949B0A0C94E2180C941C19FE
:100030000C947D010C947D010C947D010C947D0148
:100040000C947D010C947D010C947D010C947D0138
:100050000C947D010C947D010C947D010C947D0128
:100060000C947D010C947D010C947D010C947D0118
:100070000C947D010C947D010C947D010C947D0108
:100080000C947D010C947D010C947D010C947D01F8
:100090000C947D010C947D010C947D010C947D01E8
:1000A0000C947D010C947D010C947D011A0A210AA7
:1000B0002C0A2F0A320A400A350A380A8A1882188E
:1000C0007A1872186A1862185A1852184A18421880
:1000D0003A1832182A1822181A1812180A18021870
:1000E000FA17F217EA17E217DA17D217CA17C21768
:1000F000BA17B217AA17A2179A1792178A17821758
:100100007A1772176A1762175A1752174A17421747
:100110003A1732172A1722171A1712170A17021737
:10012000FA16F216EA16E216DA16D216CA16C2162F
:10013000BA16B216AA16A2169A1692168A164C6506
:100140006674207475726E2020200052696768748E
:10015000207475726E202020004C656674207475C2
:10016000726E202020005269676874207475726E68
:10017000202020000A0047616D65206F7665720AB5
:100180000048616C6674696D650A0050617573653D
:100190000A00476F616C20420A00476F616C205271
:1001A0000A00506C6179200A00436F6D6D6F6E20FC
:1001B000546573743A20666C617368204C45442022
:1001C0000A004361736520333A200A004361736576
:1001D00020323A200A004361736520313A200A0038
:1001E0004361736520303A200A004E6F20656666D1
:1001F0006563746976652049520A004E6F20656612
:10020000666563746976652049520A000001000042
:10021000A3021200020000600243000300005C021F
:100220000401030904480212020309044002060300
:1002300003090436020808033400310030000000CE
:1002400006034D003200000012034A002E00200079
:100250004600690065006E006500000004030904A3
:1002600009024300020100C0320904000001020239
:1002700001000524001001052401010104240206E7
:10028000052406000107058203100040090401004F
:10029000020A00000007050302400000070584026F
:1002A0004000001201000202000010C0167A040093
:1002B00001010203010001C11201803601813600F3
:1002C00011241FBECFEFDAE0DEBFCDBF11E0A0E00A
:1002D000B1E0E6E2F1E402C005900D92A431B1076D
:1002E000D9F721E0A4E1B1E001C01D92A538B20721
:1002F000E1F70E94141D0C9491200C9400002F92A1
:100300003F924F925F926F927F928F929F92AF92A5
:10031000BF92CF92DF92EF92FF920F931F93CF93F2
:10032000DF93CDB7DEB7E2970FB6F894DEBF0FBE0E
:10033000CDBF9EA38DA3CDB6DEB6D8AACFA68CE145
:1003400091E00E94871CECE1F1E0A12CB12C20810E
:1003500031812F3F43E03407C9F0828193818F3F81
:1003600053E0950799F0D501AA0FBB1FCC24C39485
:10037000D12CCC0EDD1EAC0DBD1D19963C932E93D9
:1003800018978D939C932FEFA21AB20A369631E0FC
:10039000E433F307E1F643E0A416B1040CF441C4DE
:1003A000CDB6DEB6DAA6C9A69501215031093AA329
:1003B00029A32A9DC0012B9D900D3A9D900D1124DB
:1003C000959587959C01220F331F4DB75EB7421B51
:1003D000530B0FB6F8945EBF0FBE4DBF2DB73EB79F
:1003E0002F5F3F4F38A72FA3880F991F880F991FA2
:1003F000481B590B0FB6F8945EBF0FBE4DBF8DB7AB
:100400009EB701963C018E01075F1F4FBE016F5FD3
:100410007F4F212C312C1A8E198EA98DBA8D1196F1
:10042000BA8BA98BF101EE0FFF1FEE0FFF1FE60D38
:10043000F71DFAABE9AB6101CC0CDD1C2FA138A58F
:100440002C0D3D1D3E8F2D8F7D01412C512CEA142A
:10045000FB040CF080C0E98DFA8DA9A9BAA9119608
:10046000FC93EE931396FC92EE921297D8018D9125
:100470009C91F801E40DF51D22813381821B930BC1
:10048000FB0120813181E40DF51D42815381241B44
:10049000350B229FA001239F500D500D1124889FE2
:1004A0009001899F300D300D1124420F531FED8DA7
:1004B000FE8DE40DF51D518340839F01E9A9FAA942
:1004C000410181149104B9F1D9010D90BC91A02D85
:1004D000BE8BAD8BB1E08B1A9108D9015E914E9124
:1004E000CD0134979D01CD88DE884C155D051CF546
:1004F000C080D180DCA6CBA6A281B381BEA7ADA768
:10050000C480D580D182C082C680D780D382C28287
:10051000CD88DE88DC01CD92DC92ABA5BCA5B5838D
:10052000A483CDA4DEA4D782C682DC0113965C939B
:100530004E931297C6CF2FEF221A320A3FEFE31ADB
:10054000F30A49A95AA94C5F5F4F5AAB49AB52E035
:10055000450E511C7CCF0E5F1F4F6E5F7F4F898908
:100560009A89A9A1BAA18A179B071CF49A8F898F2F
:1005700054CF84E791E00E946B1AEFA1F8A5408167
:100580005181413EFEE25F070CF044C3D3018D90E0
:100590009C9011971496AD90BC90159712962D9142
:1005A0003C9113974134BFE15B07B4F1C401880F5C
:1005B000991F8A149B0431F0F301468157818416F8
:1005C0009506A9F4E1E0F0E0EC0FFD1FE80FF91F3C
:1005D000E084F18400811181F901EE0FFF1FCC242A
:1005E000C394D12CCC0EDD1EEC0DFD1D10C0F90105
:1005F000EE0FFF1F21E030E02C0F3D1FE20FF31F35
:10060000E084F18400811181F901E80FF91FC084B1
:10061000D1842080318088C1D30116968D919C9120
:100620001797413757410CF4BDC0820E931EF40159
:10063000EA0DFB1DE80FF91F3397EE0FFF1FCC24C7
:10064000C394D12CCC0EDD1EEC0DFD1DE084F18495
:1006500000811181D30118964D915C9119971A96DA
:100660006D917C911B97840E951E860E971EB3E0AC
:100670008B1A9108A80EB91EA40EB51EA60EB71EA1
:10068000E3E0AE1AB108B701882777FD8095982F6F
:100690000E94B71E2B013C01880C991C8C0C9D1CE0
:1006A000D40118966D917C9119976E197F0980E09D
:1006B00090E00E94B51E21EA37E643EF5EE30E9418
:1006C0006B1F698B7A8B8B8B9C8BAA0CBB1CAC0C25
:1006D000BD1CF501608571856E197F0980E090E091
:1006E0000E94B51E20E33CE446E05FE30E946B1FDE
:1006F0009B01AC0169897A898B899C890E94B41D10
:1007000027E634E44DE450E40E946B1F9B01AC01EA
:10071000C301B2010E94B41D0E94841E6B01B80186
:10072000882777FD8095982F0E94B71E2B013C01EA
:10073000D4016D917C91601B710B80E090E00E9470
:10074000B51E21EA37E643EF5EE30E946B1F698B1B
:100750007A8B8B8B9C8BF50160817181601B710B97
:1007600080E090E00E94B51E20E33CE446E05FE3B9
:100770000E946B1F9B01AC0169897A898B899C89D6
:100780000E94B41D27E634E44DE450E40E946B1F40
:100790009B01AC01C301B2010E94B41D0E94841EE2
:1007A0001B01C2C0D30118966D917C9119971A96BE
:1007B0004D915C911B97F501E80FF91FE60FF71FAC
:1007C000E40FF51F3397EE0FFF1FCC24C394D12CF9
:1007D000CC0EDD1EEC0DFD1DC084D1842080318047
:1007E000820E931E84010A0D1B1D080F191F035052
:1007F0001109860E971E840E951E23E0821A910819
:10080000B601882777FD8095982F0E94B71E2B018F
:100810003C01880C991C41E050E04C0F5D1F840E98
:10082000951ED40118966D917C9119976C197D09CC
:1008300080E090E00E94B51E21EA37E643EF5EE3D8
:100840000E946B1F698B7A8B8B8B9C8B000F111F07
:10085000E1E0F0E0EC0FFD1F0E0F1F1FD80118960E
:100860006D917C9119976C197D0980E090E00E9450
:10087000B51E20E33CE446E05FE30E946B1F9B0152
:10088000AC0169897A898B899C890E94B41D27EE05
:100890003BEF49EB5FE30E946B1F9B01AC01C3017F
:1008A000B2010E94B41D0E94841E7B01B101882701
:1008B00077FD8095982F0E94B71E2B013C01F40113
:1008C000608171816219730980E090E00E94B51E19
:1008D00021EA37E643EF5EE30E946B1F4B015C01A8
:1008E000D8016D917C916219730980E090E00E94BB
:1008F000B51E20E33CE446E05FE30E946B1F9B01D2
:10090000AC01C501B4010E94B41D27EE3BEF49EBD9
:100910005FE30E946B1F9B01AC01C301B2010E9407
:10092000B41D0E94841E8B0136016E187F082101C0
:10093000401A510A449CB001459C700D700D112461
:10094000669CC001679C900D900D1124680F791F63
:10095000882777FD8095982F0E94B71E0E94D21F8E
:100960004B015C01B201882777FD8095982F0E948A
:10097000B71EA50194010E941C1E698B7A8B8B8B7C
:100980009C8B6093650170936601809367019093DF
:100990006801B301882777FD8095982F0E94B71EC4
:1009A000A50194010E941C1E698F7A8F8B8F9C8FEA
:1009B00060936D0170936E0180936F01909370014D
:1009C00080E094E08E199F098C199D0997FD01968E
:1009D000BC0175956795882777FD8095982F0E94B3
:1009E000B71E4B015C0180E093E0801B910B8219E4
:1009F000930997FD0196BC0175956795882777FD4A
:100A00008095982F0E94B71E6B017C0129893A8935
:100A10004B895C89C501B4010E946B1F2B013C010D
:100A2000298D3A8D4B8D5C8DC701B6010E946B1FDD
:100A30009B01AC01C301B2010E94B31D6D8F7E8F7B
:100A40008F8F98A360931401709315018093160102
:100A500090931701298D3A8D4B8D5C8DC501B401A2
:100A60000E946B1F4B015C0129893A894B895C8983
:100A7000C701B6010E946B1F9B01AC01C501B40107
:100A80000E94B41D2B013C01609318017093190161
:100A900080931A0190931B01EDA1FEA160817181E9
:100AA000882777FD8095982F0E94B71E69A37AA3A7
:100AB0008BA39CA39B01AC016D8D7E8D8F8D98A126
:100AC0000E94B31D4B015C01ADA1BEA112966D91B8
:100AD0007C911397882777FD8095982F0E94B71EE9
:100AE0006D8B7E8B8F8B988F9B01AC01C301B20104
:100AF0000E94B31D6B017C01A5019401C501B401E5
:100B00000E946B1F4B015C01A7019601C701B60152
:100B10000E946B1F9B01AC01C501B4010E94B41D72
:100B20000E94D21F6B017C016093590170935A019E
:100B300080935B0190935C012D8D3E8D4F8D58A16C
:100B400069A17AA18BA19CA10E94B31DA701960166
:100B50000E941C1E4B015C0160935501709356016D
:100B60008093570190935801A30192016D897E896A
:100B70008F89988D0E94B31DA70196010E941C1EAB
:100B80006B017C016093690170936A0180936B0132
:100B900090936C01A5019401698D7A8D8B8D9C8D4C
:100BA0000E946B1F2B013C01A701960169897A897C
:100BB0008B899C890E946B1F9B01AC01C301B20110
:100BC0000E94B31D60936101709362018093630181
:100BD00090936401A501940169897A898B899C8924
:100BE0000E946B1F4B015C01A7019601698D7A8DF4
:100BF0008B8D9C8D0E946B1F9B01AC01C501B401C4
:100C00000E94B41D60935D0170935E0180935F014B
:100C100090936001C9A4DAA40FB6F894DEBE0FBEAB
:100C2000CDBECFA4D8A80FB6F894DEBE0FBECDBE01
:100C3000E2960FB6F894DEBF0FBECDBFDF91CF9125
:100C40001F910F91FF90EF90DF90CF90BF90AF90EA
:100C50009F908F907F906F905F904F903F902F90DC
:100C600008958F929F92AF92BF92CF92DF92EF92B0
:100C7000FF920E947F01C0906101D0906201E090DC
:100C80006301F090640120E030E0A901C701B601E2
:100C90000E94181E20E030E0A90187FF7AC0609111
:100CA0005D0170915E0180915F01909160010E94F1
:100CB000181E87FD0AC022EA35E446E35FEBC70150
:100CC000B6010E94181E87FF1FC0609188007091B6
:100CD000890080E090E00E94B51E2DEC3CEC4CE4D5
:100CE0005FE30E946B1F0E94891E70938D006093CA
:100CF0008C00809188009091890010928B00109256
:100D00008A002A9A2B9842C080918800909189008D
:100D100090938D0080938C00609188007091890081
:100D200080E090E00E94B51E4B015C0120E030E0C5
:100D300048E453E4C701B6010E946B1F9B01AC015C
:100D4000C501B4010E94B41D4B015C012091380122
:100D50003091390140913A0150913B01C701B601F0
:100D60000E94B31D20E030E048E451E40E946B1F74
:100D70009B01AC01C501B4010E94B41D0E94891EF3
:100D800070938B0060938A002A9A2B9A86E691E0F2
:100D90008BC060915D0170915E0180915F019091C7
:100DA00060010E94181E87FD0AC022EA35E446E36E
:100DB0005FE3C701B6010E94671F1816FCF480911B
:100DC00088009091890010928B0010928A006091A7
:100DD00088007091890080E090E00E94B51E2DECA3
:100DE0003CEC4CE45FE30E946B1F0E94891E7093F1
:100DF0008D0060938C002B9A2A9854C060918800D3
:100E00007091890080E090E00E94B51E2DEC3CECD2
:100E10004CE45FE30E946B1F0E94891E70938B005D
:100E200060938A00609188007091890080E090E072
:100E30000E94B51E2DEC3CEC4CE45FE30E946B1F5E
:100E40004B015C0120E030E048E453E4C701B60107
:100E50000E946B1F9B01AC01C501B4010E94B31D30
:100E60004B015C01209138013091390140913A01E8
:100E700050913B01C701B6010E94B31D20E030E054
:100E800048E451E40E946B1F9B01AC01C501B40111
:100E90000E94B31D0E94891E70938D0060938C0088
:100EA0002A9A2B9A89E591E00E946B1A8091610140
:100EB00090916201A0916301B09164018093380127
:100EC00090933901A0933A01B0933B01FF90EF90CA
:100ED000DF90CF90BF90AF909F908F9008958F92AA
:100EE0009F92AF92BF92CF92DF92EF92FF9280904B
:100EF000550190905601A0905701B0905801209153
:100F00006501309166014091670150916801C5010A
:100F1000B4010E946B1F2DEC3CEC4CE45EE30E949C
:100F2000181E87FF2BC0C0901801D0901901E090C7
:100F30001A01F0901B0120E030E048E452E4C701C0
:100F4000B6010E94181E87FF0AC020E030E048E486
:100F500052ECC701B6010E94671F18168CF0A5015C
:100F60009401C701B6010E946B1F20E030E0A90187
:100F70000E94671F181634F482E005C080E003C0A9
:100F800081E001C083E0FF90EF90DF90CF90BF90B1
:100F9000AF909F908F9008958F929F92AF92BF9243
:100FA000CF92DF92EF92FF92CF93DF930E947F0167
:100FB000C0906101D0906201E0906301F090640103
:100FC00020E030E0A901C701B6010E94181E20E010
:100FD00030E0A90187FFBCC060915D0170915E01A6
:100FE00080915F01909160010E94181E87FD0AC0E8
:100FF00022EA35E446E35FEBC701B6010E94181E02
:1010000087FF2BC0609188007091890080E090E09C
:101010000E94B51E2DEC3CEC4CE45FE30E946B1F7C
:101020000E94891E70938D0060938C0060918800EF
:101030007091890080E090E00E94B51E2DEC3CECA0
:101040004CE45FE30E946B1F0E94891E70938B002B
:1010500060938A002A9A2B9878C0809059019090CA
:101060005A01A0905B01B0905C0120E030E048E4C0
:1010700052E4C501B4010E94671F18166CF48091F8
:1010800088009091890090938D0080938C006091EE
:1010900088007091890023C0C0918800D091890098
:1010A0002FE632E143E85CE3C501B4010E946B1F07
:1010B0004B015C01BE0180E090E00E94B51E9B01E7
:1010C000AC01C501B4010E946B1F0E94891E709380
:1010D0008D0060938C0060918C0070918D0080E099
:1010E00090E00E94B51E4B015C0120E030E048E436
:1010F00053E4C701B6010E946B1F9B01AC01C501FF
:10110000B4010E94B41D4B015C0120913401309167
:1011100035014091360150913701C701B6010E9457
:10112000B31D20E030E048E451E40E946B1F9B01B6
:10113000AC01C501B4010E94B41D0E94891E7093C8
:101140008B0060938A002A9A2B9A8BE491E0E9C085
:1011500060915D0170915E0180915F0190916001ED
:101160000E94181E87FD0AC022EA35E446E35FE3C9
:10117000C701B6010E94671F18165CF560918800D0
:101180007091890080E090E00E94B51E2DEC3CEC4F
:101190004CE45FE30E946B1F0E94891E70938B00DA
:1011A00060938A00609188007091890080E090E0EF
:1011B0000E94B51E2DEC3CEC4CE45FE30E946B1FDB
:1011C0000E94891E70938D0060938C002B982A9A40
:1011D000A6C08090590190905A01A0905B01B090F8
:1011E0005C0120E030E048E452E4C501B4010E9413
:1011F000671F1816DCF58091880090918900909304
:101200008B0080938A00609188007091890080E053
:1012100090E00E94B51E4B015C0120E030E048E404
:1012200053E4C701B6010E946B1F9B01AC01C501CD
:10123000B4010E94B31D4B015C0120913401309137
:1012400035014091360150913701C701B6010E9426
:10125000B31D20E030E048E451E40E946B1F9B0185
:10126000AC01C501B4010E94B31D51C0C0918800FA
:10127000D09189002FE632E143E85CE3C501B40177
:101280000E946B1F4B015C01BE0180E090E00E9458
:10129000B51E9B01AC01C501B4010E946B1F0E94E9
:1012A000891E70938B0060938A0060918A00709110
:1012B0008B0080E090E00E94B51E4B015C0120E0B5
:1012C00030E048E453E4C701B6010E946B1F9B0164
:1012D000AC01C501B4010E94B41D4B015C01209119
:1012E0003401309135014091360150913701C701E9
:1012F000B6010E94B31D20E030E048E451E40E94B2
:101300006B1F9B01AC01C501B4010E94B41D0E947A
:10131000891E70938D0060938C002A9A2B9A8EE31D
:1013200091E00E946B1A8091610190916201A091FD
:101330006301B09164018093340190933501A093CF
:101340003601B0933701C1E020E030E048E452E4D8
:101350006091590170915A0180915B0190915C01FB
:101360000E94671F18160CF0C0E081E08C27DF9107
:10137000CF91FF90EF90DF90CF90BF90AF909F9074
:101380008F90089584EF91E0909389008093880076
:10139000E1E8F0E080818B7F808380818D7F808396
:1013A000808181608083808180618083808188608A
:1013B0008083E0E8F0E080818260808380818160CA
:1013C000808380818062808380818F7E8083808122
:1013D0008860808380818B7F8083269A279A0895F6
:1013E0001F920F920FB60F9211242F933F934F939A
:1013F0005F936F937F938F939F93AF93BF93EF937D
:10140000FF936E9A76986AE08CE391E00E94DE1476
:1014100080913C0190E00E949F1A80913C0190E0F5
:10142000FC01E05AF109E830F10550F5EA5AFF4FA6
:101430000C94252089EA91E00E946B1A81E090E0EB
:1014400006C082EA91E00E946B1A82E090E09093DD
:1014500047018093460114C08AE991E00BC082E9FC
:1014600091E008C08BE891E005C081E891E002C0FE
:1014700086E791E00E946B1A109247011092460194
:101480006E9A769AFF91EF91BF91AF919F918F9154
:101490007F916F915F914F913F912F910F900FBE70
:1014A0000F901F901895189B23C082EA9EEF90938F
:1014B00009018093080186EF9FEF90930B018093C1
:1014C0000A0110920501109204018AE090E09093C5
:1014D00007018093060122E731E030930101209358
:1014E000000190930301809302015F985E9A089532
:1014F00082E791E090930901809308018AE090E0EF
:1015000090930B0180930A0110920501109204013F
:1015100086EF9FEF909307018093060122EA3EEF4A
:101520003093010120930001909303018093020105
:101530005F9A5E9808951F920F920FB60F92112432
:101540002F933F934F935F936F937F938F939F93CB
:10155000AF93BF93EF93FF930E94530AFF91EF91D4
:10156000BF91AF919F918F917F916F915F914F91BB
:101570003F912F910F900FBE0F901F9018952098BC
:101580002198249A259A579A569A85B1836085B9ED
:10159000E8E6F0E0808181608083EBE6F0E0808126
:1015A000836080830C94530A6A9A7298E1E6F0E0B3
:1015B00080E8808310820E947F150E94DE132FEF47
:1015C00087EA91E6215080409040E1F700C000009A
:1015D0004AE06CE181E00E9486140E949B0D0E940B
:1015E000C209239A229A3E9A3F9A539A249A78944F
:1015F0000E94BF0A0E94A21B6A9A729A0895FC0177
:10160000329624E030E080E090E0419151918417DF
:1016100095070CF4CA012150310921153105A9F7AC
:10162000089580917A008F7780937A0080917C0072
:101630008B7F80937C0080917C008D7F80937C00E9
:1016400080917C008E7F80937C0080917A008068FE
:1016500080937A0080917A00806480937A008091F0
:101660007A0084FFFCCF209178003091790080E0EF
:1016700094E0821B930B9093780180937701809183
:101680007A008F7E80937A0080917A008F778093A2
:101690007A0080917C008B7F80937C0080917C001D
:1016A0008D7F80937C0080917C00816080937C00A2
:1016B00080917A00806880937A0080917A008064BB
:1016C00080937A0080917A0084FFFCCF209178008B
:1016D0003091790080E094E0821B930B909382011B
:1016E0008093810120917A002F7E20937A002091AF
:1016F000770130917801280F391F6E9A2D343440CC
:101700001CF0769881E00895769A80917A008F7720
:1017100080937A0080917C008E7F80937C00809102
:101720007C008D7F80937C0080917C00846080931E
:101730007C0080917A00806880937A0080917A00A2
:10174000806480937A0080917A0084FFFCCF20919E
:1017500078003091790080E094E0821B930B9093A5
:101760007A018093790180917A008F7E80937A004C
:1017700080917A008F7780937A0080917C008160DD
:1017800080937C0080917A00806880937A008091B9
:101790007A00806480937A0080917A0084FFFCCF85
:1017A000209178003091790080E094E0821B930BC7
:1017B00090937C0180937B0180917A008F7E80934F
:1017C0007A0080917A008F7780937A0080917C00F4
:1017D0008E7F80937C0080917C00826080937C006F
:1017E00080917A00806880937A0080917A0080648A
:1017F00080937A0080917A0084FFFCCF209178005A
:101800003091790080E094E0821B930B90937E01ED
:1018100080937D0180917A008F7E80937A00809101
:101820007A008F7780937A0080917C00816080932A
:101830007C0080917A00806880937A0080917A00A1
:10184000806480937A0080917A0084FFFCCF20919D
:1018500078003091790080E094E0821B930B9093A4
:10186000800180937F0180917A008F7E80937A003F
:1018700087E791E00E94FF0A8639910534F48BEFE7
:1018800091E00E946B1A80E0089582E00895CF9362
:10189000DF9380917A008F7780937A0080917C002B
:1018A0008B7F80937C0080917C008D7F80937C0077
:1018B00080917C008E7F80937C0080917A0080688C
:1018C00080937A0080917A00806480937A0080917E
:1018D0007A0084FFFCCF209178003091790080E07D
:1018E00094E0821B930B9093780180937701809111
:1018F0007A008F7E80937A0080917A008F77809330
:101900007A0080917C008B7F80937C0080917C00AA
:101910008D7F80937C0080917C00816080937C002F
:1019200080917A00806880937A0080917A00806448
:1019300080937A0080917A0084FFFCCF2091780018
:101940003091790080E094E0821B930B90938201A8
:101950008093810120917A002F7E20937A0020913C
:10196000770130917801280F391F6E9A293E334054
:101970001CF0769881E0DCC0769A80917A008F77AF
:1019800080937A0080917C008E7F80937C00809190
:101990007C008D7F80937C0080917C0084608093AC
:1019A0007C0080917A00806880937A0080917A0030
:1019B000806480937A0080917A0084FFFCCF20912C
:1019C00078003091790080E094E0821B930B909333
:1019D0007A018093790180917A008F7E80937A00DA
:1019E00080917A008F7780937A0080917C0081606B
:1019F00080937C0080917A00806880937A00809147
:101A00007A00806480937A0080917A0084FFFCCF12
:101A1000209178003091790080E094E0821B930B54
:101A200090937C0180937B0180917A008F7E8093DC
:101A30007A0080917A008F7780937A0080917C0081
:101A40008E7F80937C0080917C00826080937C00FC
:101A500080917A00806880937A0080917A00806417
:101A600080937A0080917A0084FFFCCF20917800E7
:101A70003091790080E094E0821B930B90937E017B
:101A800080937D0180917A008F7E80937A0080918F
:101A90007A008F7780937A0080917C0081608093B8
:101AA0007C0080917A00806880937A0080917A002F
:101AB000806480937A0080917A0084FFFCCF8091CB
:101AC000780090917900C0E0D4E0C81BD90BD09386
:101AD0008001C0937F0180917A008F7E80937A008D
:101AE00087E791E00E94FF0A8639910534F48AEE77
:101AF00091E00E946B1A80E01BC080917901909167
:101B00007A018739910514F082E012C080917B013F
:101B100090917C0187399105BCF780917D0190916E
:101B20007E018739910584F7C739D1056CF783E0C9
:101B3000DF91CF91089580E885BF85BFECE7F0E0A5
:101B400080818F778083808180648083EAE7F0E002
:101B500080818160808380818260808380818460D5
:101B60008083EEE7F0E08081816080838081826005
:101B70008083808180618083808180628083808196
:101B80008064808380818068808308958F929F9293
:101B9000AF92BF92CF92DF92EF92FF920F931F937B
:101BA000CF93DF936091790170917A0140917B012D
:101BB00050917C018B01041B150B1093760100934F
:101BC000750120917D0130917E0180917F0190917E
:101BD0008001E901C81BD90BD0938401C093830114
:101BE000460F571F820F931F841795070CF052C0A2
:101BF0006801EE24D7FCE094FE2CC0914A01D091FC
:101C00004B01609188007091890080E090E010168F
:101C1000110604F50E94B51E2BE037ED43EA5EE3A2
:101C20000E946B1F4B015C01C701B6010E94B71EE9
:101C30002DEC3CEC4CEC5DE30E946B1F9B01AC0176
:101C4000C501B4010E94B41D6B017C01B8016C1B7D
:101C50007D0B52C00E94B51E2BE037ED43EA5EE3D8
:101C60000E946B1F4B015C01C701B6010E94B71EA9
:101C70002DEC3CEC4CEC5DE30E946B1F9B01AC0136
:101C8000C501B4010E94B31D6B017C01B8016C1B3E
:101C90007D0B74C06E01EE24D7FCE094FE2C009105
:101CA000480110914901609188007091890080E09D
:101CB00090E01C161D060CF042C00E94B51E2DECD3
:101CC0003CEC4CE45FE30E946B1F4B015C01C701DD
:101CD000B6010E94B71E2DEC3CEC4CEC5DE30E947B
:101CE0006B1F9B01AC01C501B4010E94B31D6B01C8
:101CF0007C01BE01601B710B882777FD8095982FB2
:101D00000E94B71E2AE037ED43E25CE30E946B1F9E
:101D10009B01AC01C701B6010E94B31D0E94891E40
:101D200070938D0060938C0080918C0090918D0059
:101D300090938B0080938A002A9A2B9841C00E942E
:101D4000B51E2DEC3CEC4CE45FE30E946B1F4B0195
:101D50005C01C701B6010E94B71E2DEC3CEC4CECB7
:101D60005DE30E946B1F9B01AC01C501B4010E94A1
:101D7000B41D6B017C01BE01601B710B882777FDD0
:101D80008095982F0E94B71E2AE037ED43E25CE36E
:101D90000E946B1F9B01AC01C701B6010E94B41DDC
:101DA0000E94891E70938D0060938C0080918C003E
:101DB00090918D0090938B0080938A002A982B9AA3
:101DC000809175019091760190934B0180934A0127
:101DD0009093490180934801DF91CF911F910F911A
:101DE000FF90EF90DF90CF90BF90AF909F908F903B
:101DF00008954F925F926F927F928F929F92AF92CF
:101E0000BF92CF92DF92EF92FF920F931F93CF93E7
:101E1000DF93E0917901F0917A0160917B017091FB
:101E20007C019F01261B370B3093760120937501AF
:101E300040917D0150917E0120917F013091800180
:101E4000EA01C21BD30BD0938401C09383016E0FB0
:101E50007F1F240F351F261737070CF0F9C30E9488
:101E60007F010E946F07813009F431C11CF488237F
:101E700041F073C4823009F446C1833009F4A2C230
:101E80006CC480EE91E00E946B1AE0907501F090B6
:101E90007601C0907901D0907A0100917B01109178
:101EA0007C011E141F040CF0A2C0003911400CF07C
:101EB0006AC0B701882777FD8095982F0E94B71ECA
:101EC00026E636E646EE5EE30E946B1F4B015C01A0
:101ED00080914A0190914B01B701681B790B8827CB
:101EE00077FD8095982F0E94B71E2AE037ED43E2D8
:101EF0005DE30E946B1F9B01AC01C501B4010E9410
:101F0000B31D0E94891E70938D0060938C0080E940
:101F1000C81681E0D8060CF0B9C160918C007091B0
:101F20008D0080E090E00E94B51E4B015C0160E9ED
:101F300071E06C197D09660F771F882777FD809502
:101F4000982F0E94B71E2B013C0180914F01909168
:101F50005001B601681B790B882777FD8095982F73
:101F60000E94B71E2DEC3CEC4CE45EE30E946B1F1C
:101F70009B01AC01C301B2010E94B41D9B01AC01E5
:101F8000C501B4017BC1609188007091890080E037
:101F900090E00E94B51E2DEC3CEC4CE45FE30E9407
:101FA0006B1F0E94891E70938D0060938C0060915E
:101FB000880070918900C0917501D091760180E010
:101FC00090E00E94B51E2DEC3CEC4CE45FE30E94D7
:101FD0006B1F6B017C01BE01882777FD8095982FD0
:101FE0000E94B71E20E030E040E05FE394C147016B
:101FF000AA2497FCA094BA2CC0914A01D0914B011D
:1020000020E9C21621E0D20664F5C501B4010E94A0
:10201000B71E26E636E646EE5EEB0E946B1F4B01CE
:102020005C01B7016C1B7D0B882777FD8095982F8D
:102030000E94B71E2AE037ED43E25DE30E946B1F6A
:102040009B01AC01C501B4010E94B41D0E94891E10
:1020500070938D0060938C00003911400CF421C204
:1020600072C3609188007091890080E090E00E94C6
:10207000B51E2DEC3CEC4CE45FE30E946B1F2B0182
:102080003C01C501B4010E94B71E20E030E040E0F1
:102090005FE30E946B1F9B01AC01C301B2010E9470
:1020A000B41D4B015C01B7016C1B7D0B882777FDCC
:1020B0008095982F0E94B71E2DEC3CEC4CEC5CE315
:1020C0000E946B1F9B01AC01C501B40142C286EDA9
:1020D00091E00E946B1AC0917501D09176016091D8
:1020E0008800709189001C161D060CF0DEC0CE3EE3
:1020F00022E0D2070CF4F2C1C335D3400CF45FC127
:1021000080E090E02FC28CEC91E00E946B1AC091AD
:102110007501D09176011C161D060CF0C2C0CE3E92
:1021200022E0D2070CF03FC06091880070918900D6
:1021300080E090E00E94B51E2DEC3CEC4CE45FE3A7
:102140000E946B1F0E94891E70938D0060938C000B
:102150006091880070918900C0917501D0917601DD
:1021600080E090E00E94B51E2DEC3CEC4CE45FE377
:102170000E946B1F6B017C016EEE72E06C1B7D0B8D
:10218000882777FD8095982F0E94B71E2DEC3CEC98
:102190004CEC5EE30E946B1F9B01AC01C701B601D2
:1021A0000E94B41DC0C0BE01882777FD8095982F7E
:1021B0000E94B71E26E636E646EE5EE30E946B1FDF
:1021C0006B017C0180914A0190914B01BE01681B1B
:1021D000790B882777FD8095982F0E94B71E2AE0FB
:1021E00037ED43E25DE30E946B1F9B01AC01C70129
:1021F000B6010E94B31D0E94891E70938D006093EA
:102200008C00C0917901D0917A01C03981E0D80762
:10221000ECF560918C0070918D0080E090E00E9460
:10222000B51E6B017C0160E971E06C1B7D0B660FD4
:10223000771F882777FD8095982F0E94B71E4B0146
:102240005C0180914F0190915001BE01681B790B98
:10225000882777FD8095982F0E94B71E2DEC3CECC7
:102260004CE45EE30E946B1F9B01AC01C501B4010D
:102270000E94B41D9B01AC01C701B6010E94B41DB0
:102280000E94891E70938D0060938C0080918C0059
:1022900090918D0090938B0080938A002A9A2B98BE
:1022A0005CC26091880070918900C3312DEFD20724
:1022B0000CF44DC080E090E00E94B51E2DEC3CEC8B
:1022C0004CE45FE30E946B1F0E94891E70938D0097
:1022D00060938C006091880070918900C0917501B5
:1022E000D091760180E090E00E94B51E2DEC3CEC90
:1022F0004CE45FE30E946B1F6B017C01BE016251E5
:102300007D4F882777FD8095982F0E94B71E2DEC72
:102310003CEC4CEC5EE30E946B1F9B01AC01C701DF
:10232000B6010E94B31D6B017C0180914A0190911E
:102330004B01BE01681B790B882777FD8095982F8C
:102340000E94B71E2DEC3CEC4CEC5CE354C1CE3A41
:102350008CEFD807A4F580E090E00E94B51E2DEC2C
:102360003CEC4CE45FE30E946B1F6B017C01CE01EF
:102370008E5A9C4FBC01660F771F680F791F882704
:1023800077FD8095982F0E94B71E9B01AC01C70175
:10239000B6010E94B41D6B017C0180914A019091AD
:1023A0004B01BE01681B790B882777FD8095982F1C
:1023B0000E94B71E2DEC3CEC4CE45EE3C4C080E010
:1023C00090E022C182EC91E00E946B1AC0917501ED
:1023D000D0917601D7FF7AC000914A0110914B014C
:1023E000C3312DEFD2075CF16091880070918900B4
:1023F00080E090E00E94B51E2DEC3CEC4CE45FE3E5
:102400000E946B1F6B017C01BE0162517D4F8827CA
:1024100077FD8095982F0E94B71E2DEC3CEC4CEC7C
:102420005EE30E946B1F9B01AC01C701B6010E94D5
:10243000B41D6B017C01BE01601B710B7AC0BE0133
:10244000882777FD8095982F0E94B71E26E636E6EE
:1024500046EE5EEB0E946B1F6B017C01BE01601BB0
:10246000710B882777FD8095982F0E94B71E2AE070
:1024700037ED43E25DE30E946B1F9B01AC01C70196
:10248000B6010E94B41D0E94891E70938D00609356
:102490008C0080917B0190917C01803991400CF0FF
:1024A00052C120918C0030918D0080E991E04091E3
:1024B0004D0150914E01841B950B880F991F820F7F
:1024C000931F90938D0080938C003DC16091880094
:1024D00070918900CE3E82E0D807F4F580E090E06C
:1024E0000E94B51E2DEC3CEC4CE45FE30E946B1F98
:1024F0006B017C016EEE72E06C1B7D0B882777FD13
:102500008095982F0E94B71E2DEC3CEC4CEC5EE3BE
:102510000E946B1F9B01AC01C701B6010E94B31D55
:102520006B017C0180914A0190914B01BE01681BB7
:10253000790B882777FD8095982F0E94B71E2DEC88
:102540003CEC4CEC5CE30E946B1F9B01AC01C701AF
:10255000B6010E94B31D60C080E090E0C335D34057
:102560000CF452C00E94B51E2DEC3CEC4CE45FE331
:102570000E946B1F0E94891E70938D0060938C00D7
:102580006091880070918900C0917501D0917601A9
:1025900080E090E00E94B51E2DEC3CEC4CE45FE343
:1025A0000E946B1F6B017C01CE0182559340BC01E0
:1025B000660F771F680F791F882777FD8095982F02
:1025C0000E94B71E9B01AC01C701B6010E94B31D5A
:1025D0006B017C0180914A0190914B01BE01681B07
:1025E000790B882777FD8095982F0E94B71E2DECD8
:1025F0003CEC4CE45EE30E946B1F9B01AC01C70105
:10260000B6010E94B41D1CC00E94B51E2DEC3CEC0E
:102610004CE45FE30E946B1F0E94891E70938D0043
:1026200060938C00609188007091890080E090E058
:102630000E94B51E2DEC3CEC4CE45FE30E946B1F46
:102640000E94891E70938B0060938A002A9A84C02E
:102650006E01EE24D7FCE094FE2C0091480110910D
:102660004901609188007091890080E090E01C161B
:102670001D0694F50E94B51E2DEC3CEC4CE45FE386
:102680000E946B1F4B015C01C701B6010E94B71E7F
:102690002DEC3CEC4CEC5DE30E946B1F9B01AC010C
:1026A000C501B4010E94B31D6B017C01BE01601B1A
:1026B000710B882777FD8095982F0E94B71E2AE01E
:1026C00037ED43E25CE30E946B1F9B01AC01C70145
:1026D000B6010E94B31DD4CD0E94B51E2DEC3CEC7A
:1026E0004CE45FE30E946B1F4B015C01C701B60124
:1026F0000E94B71E2DEC3CEC4CEC5DE30E946B1F7E
:102700009B01AC01C501B4010E94B41D6B017C01A9
:10271000BE01601B710B882777FD8095982F0E9462
:10272000B71E2AE037ED43E25CE30E946B1F9B017A
:10273000AC01C701B6010E94B41D0E94891E7093AE
:102740008D0060938C0080918C0090918D0090930F
:102750008B0080938A002A982B9A80917501909122
:10276000760190934B0180934A018091830190916F
:10277000840190934901809348018091790190915F
:102780007A019093500180934F0180917B01909149
:102790007C0190934E0180934D01DF91CF911F9169
:1027A0000F91FF90EF90DF90CF90BF90AF909F90F0
:1027B0008F907F906F905F904F900895589A599A9C
:1027C0005A9A8CE08093B800E9E6F0E0808180625C
:1027D000808380818F7E8083EA9A7894089584E84C
:1027E0008093BC008091BC0087FFFCCF8091BB0030
:1027F000089584E98093BC00089520E030E0809142
:10280000BC0087FD06C02F5F3F4F293E83E038079D
:10281000B1F781E0283E334009F480E008958093C9
:10282000BB0084E88093BC000E94FD13882321F044
:102830008091B900887F089580E008951F93CF9319
:10284000DF931F92CDB7DEB7182F84EA8093BC00C8
:1028500069830E94FD136981811104C094E99093FA
:10286000BC0014C0812F880F662331F08F5F0E9457
:102870000F14883451F404C00E940F14803229F4DC
:1028800084E98093BC0080E001C081E00F90DF917B
:10289000CF911F910895CF93DF93C82FD62F60E07B
:1028A0000E941E14882391F08D2F0E940F148823FC
:1028B00069F084E98093BC0061E08C2F0E941E14B3
:1028C000882321F0DF91CF910C94EF1380E0DF910A
:1028D000CF910895CF93DF93D62FC42F60E00E944D
:1028E0001E14811102C080E00EC08D2F0E940F14B3
:1028F0008823C9F38C2F0E940F148823A1F384E945
:102900008093BC0081E0DF91CF910895CF93DF9356
:1029100000D01F92CDB7DEB74B836A8389830E94B4
:10292000DE1394EA9093BC0089816A814B81909177
:10293000BC0097FFFCCF90E59093BB0094E8909388
:10294000BC009091BC0097FFFCCF9091B900987F9C
:10295000903229F484E98093BC0080E029C091E0A2
:102960009093BB0094E89093BC009091BC0097FFBB
:10297000FCCF8093BB0084E88093BC008091BC00B6
:1029800087FFFCCF6093BB0084E88093BC008091FC
:10299000BC0087FFFCCF4093BB0084E88093BC0061
:1029A0008091BC0087FFFCCF84E98093BC0081E06C
:1029B0000F900F900F90DF91CF91089524EA20930C
:1029C000BC002091BC0027FFFCCF21E52093BB0079
:1029D00024E82093BC002091BC0027FFFCCF20916D
:1029E000B900287F2834A9F024EC2093BC00209162
:1029F000BC0027FFFCCF2091BB0026130AC0FC01BE
:102A000020E030E0772767FD70956150710944EC54
:102A10000EC084E98093BC0080E008955091BC0012
:102A200057FFFCCF5091BB0051932F5F3F4F2617AC
:102A300037071CF44093BC00F1CF44E84093BC003E
:102A40004091BC0047FFFCCF4091BB00FC01E20F6E
:102A5000F31F408384E98093BC0081E00895F894DB
:102A600094EA9093BC009091BC0097FFFCCF90E556
:102A70009093BB0094E89093BC009091BC0097FFAA
:102A8000FCCF9091B900987F903231F484E9809323
:102A9000BC00789480E0089593E09093BB0094E8A4
:102AA0009093BC009091BC0097FFFCCF8093BB003B
:102AB00084E88093BC008091BC0087FFFCCFFB01C1
:102AC000552747FD509524E8CF01861B970B8417A7
:102AD000950754F481918093BB002093BC008091B2
:102AE000BC0087FFFCCFF0CF84E98093BC007894D2
:102AF00081E008958091E80080FFFCCF089581E097
:102B00008093D70080EA8093D80082E189BD09B420
:102B100000FEFDCF80E98093D8001092E000109273
:102B20005401109251018CE08093E2007894089552
:102B30008091540108959FB7F8948091540188239F
:102B400039F083E08093E9008091E80085FD03C0BF
:102B50009FBF8FEF08958091F1002091E80025FD3F
:102B600003C02BE62093E8009FBF08959FB7F89419
:102B700080915401882331F083E08093E9008091B3
:102B8000F20001C080E09FBF089580915401882326
:102B900071F08FB7F89493E09093E9002BE6909151
:102BA000E80095FF03C02093E800F9CF8FBF089598
:102BB00090915401992371F09FB7F89424E02093E9
:102BC000E90020915201222349F02091E80025FDDF
:102BD00003C09FBF8FEF0895109252012091E4002F
:102BE000275E34E04091E80045FD12C09FBF909100
:102BF000E400921304C081E080935201EBCF9091E6
:102C00005401992339F39FB7F8943093E900EACF40
:102C10008093F1008091E80085FD03C08AE38093F2
:102C2000E80085E0809353019FBF80E00895909174
:102C300054019923D1F09FB7F89424E02093E90040
:102C40002091E80025FD02C09FBF0FC08093F100D6
:102C50008091E80085FD03C08AE38093E80085E069
:102C6000809353019FBF80E008958FEF0895EF9206
:102C7000FF921F93CF93DF937C01CB0120915401EE
:102C8000222371F0AFB7F89424E02093E90020915B
:102C90005201222349F02091E80025FD03C0AFBF77
:102CA0008FEF42C210925201B4E0C0E4DAE315E0C3
:102CB000009709F437C22091E400275E3091E800C4
:102CC00035FD12C0AFBF3091E400321304C081E083
:102CD00080935201E5CF30915401332309F3AFB70C
:102CE000F894B093E900EACF2091F2004C2F421BF8
:102CF000242F30E08217930708F4482F841B910992
:102D000050E04134510508F0FDC1425A5F4FFA01CD
:102D10000C942520F70120812093F10097012F5F6B
:102D20003F4F7901F70120812093F10097012F5F38
:102D30003F4F7901F70120812093F10097012F5F28
:102D40003F4F7901F70120812093F10097012F5F18
:102D50003F4F7901F70120812093F10097012F5F08
:102D60003F4F7901F70120812093F10097012F5FF8
:102D70003F4F7901F70120812093F10097012F5FE8
:102D80003F4F7901F70120812093F10097012F5FD8
:102D90003F4F7901F70120812093F10097012F5FC8
:102DA0003F4F7901F70120812093F10097012F5FB8
:102DB0003F4F7901F70120812093F10097012F5FA8
:102DC0003F4F7901F70120812093F10097012F5F98
:102DD0003F4F7901F70120812093F10097012F5F88
:102DE0003F4F7901F70120812093F10097012F5F78
:102DF0003F4F7901F70120812093F10097012F5F68
:102E00003F4F7901F70120812093F10097012F5F57
:102E10003F4F7901F70120812093F10097012F5F47
:102E20003F4F7901F70120812093F10097012F5F37
:102E30003F4F7901F70120812093F10097012F5F27
:102E40003F4F7901F70120812093F10097012F5F17
:102E50003F4F7901F70120812093F10097012F5F07
:102E60003F4F7901F70120812093F10097012F5FF7
:102E70003F4F7901F70120812093F10097012F5FE7
:102E80003F4F7901F70120812093F10097012F5FD7
:102E90003F4F7901F70120812093F10097012F5FC7
:102EA0003F4F7901F70120812093F10097012F5FB7
:102EB0003F4F7901F70120812093F10097012F5FA7
:102EC0003F4F7901F70120812093F10097012F5F97
:102ED0003F4F7901F70120812093F10097012F5F87
:102EE0003F4F7901F70120812093F10097012F5F77
:102EF0003F4F7901F70120812093F10097012F5F67
:102F00003F4F7901F70120812093F10097012F5F56
:102F10003F4F7901F70120812093F10097012F5F46
:102F20003F4F7901F70120812093F10097012F5F36
:102F30003F4F7901F70120812093F10097012F5F26
:102F40003F4F7901F70120812093F10097012F5F16
:102F50003F4F7901F70120812093F10097012F5F06
:102F60003F4F7901F70120812093F10097012F5FF6
:102F70003F4F7901F70120812093F10097012F5FE6
:102F80003F4F7901F70120812093F10097012F5FD6
:102F90003F4F7901F70120812093F10097012F5FC6
:102FA0003F4F7901F70120812093F10097012F5FB6
:102FB0003F4F7901F70120812093F10097012F5FA6
:102FC0003F4F7901F70120812093F10097012F5F96
:102FD0003F4F7901F70120812093F10097012F5F86
:102FE0003F4F7901F70120812093F10097012F5F76
:102FF0003F4F7901F70120812093F10097012F5F66
:103000003F4F7901F70120812093F10097012F5F55
:103010003F4F7901F70120812093F10097012F5F45
:103020003F4F7901F70120812093F10097012F5F35
:103030003F4F7901F70120812093F10097012F5F25
:103040003F4F7901F70120812093F10097012F5F15
:103050003F4F7901F70120812093F10097012F5F05
:103060003F4F7901F70120812093F10097012F5FF5
:103070003F4F7901F70120812093F10097012F5FE5
:103080003F4F7901F70120812093F10097012F5FD5
:103090003F4F7901F70120812093F10097012F5FC5
:1030A0003F4F7901F70120812093F10097012F5FB5
:1030B0003F4F7901F70120812093F10097012F5FA5
:1030C0003F4F7901F70120812093F10097012F5F95
:1030D0003F4F7901F70120812093F10097012F5F85
:1030E0003F4F7901F70120812093F10097012F5F75
:1030F0003F4F7901F70120812093F10097012F5F65
:103100003F4F7901F70120812093F10097012F5F54
:103110003F4F79012091E80025FFD093E8001093FC
:103120005301C6CDAFBF80E0DF91CF911F91FF90DB
:10313000EF9008958FB7F89490915301992341F03F
:1031400094E09093E9009AE39093E8001092530181
:103150008FBF089580911101089580911201089503
:103160008091130108958091510108959FB7F894BB
:1031700020915401222339F022E02093E90030917C
:10318000E80035FD03C09FBF8FEF089531EA30930B
:10319000F10030E23093F1001092F1001092F10052
:1031A0001092F1001092F1002093F1001092F100C2
:1031B0008093F1001092F1008AE38093E8009FBFB2
:1031C00080E008951F920F920FB60F9211248F93F3
:1031D0009F938091E1001092E10083FF11C0109253
:1031E000E90091E09093EB001092EC0092E1909353
:1031F000ED0098E09093F00010925401109251016C
:1032000082FF13C080915401882379F0809153018B
:10321000882359F0815080935301811106C084E0C6
:103220008093E9008AE38093E8009F918F910F904B
:103230000FBE0F901F9018951F920F920FB60F920E
:103240001124EF92FF920F931F932F933F934F936D
:103250005F936F937F938F939F93AF93BF93EF93FE
:10326000FF93CF93DF931F92CDB7DEB71092E900A3
:103270008091E80083FF14C19091F1008091F100EA
:103280003091F1002091F100E32EF12CF22A00910F
:10329000F1002091F10010E0122B2091F1006091DB
:1032A000F10032EF3093E800863009F046C036E096
:1032B0008CE092E0FC01459154914E155F0539F484
:1032C000FC013296459154914017510721F0079621
:1032D000315081F7E5C0FC01349645915491FC01D1
:1032E0003696849130E0362B2F3F310519F010F0DF
:1032F0002FEF30E0281708F4822F3EEF9091E8007E
:10330000292F2570D9F392FDCEC0982F813108F076
:1033100090E1FA01292F222331F064916093F100AA
:1033200021503196F8CF490F511D891B3093E80089
:103330008111E4CF903111F3B6C0853051F48EEF96
:103340008093E8000E947A158E2D80688093E300B8
:10335000AAC0893059F5911180C0E09254011092B1
:103360005101109253018EEF8093E80041E085EB0C
:1033700092E04093E9009C012F5F3F4FFC01549184
:103380005093EB00552359F0F90124912093EC0060
:103390009C012D5F3F4F319684918093ED004F5FEC
:1033A000453011F0C901E5CF8EE175C0883051F488
:1033B000903809F052C00E947A1580915401809390
:1033C000F10047C0813279F4913A09F046C00E9479
:1033D0007A15EDE0F1E081918093F10081E0E43134
:1033E000F807C9F736C0803299F49132B1F580916F
:1033F000E80082FFFCCFEDE0F1E08091F1008193E5
:1034000081E0E431F807C9F78BEF8093E80021C031
:10341000823241F4913209F043C0E09251010E949E
:103420007A1517C0811119C099830E947A15998164
:10343000923851F40093E9008091EB0085FB8827D6
:1034400080F91092E90001C080E08093F1001092B1
:10345000F1008EEF8093E80026C0282F2D7F2130C9
:10346000F9F49230E9F4EF28D9F40F779FEF900F39
:103470009430B0F49EEF9093E8000093E90083301D
:1034800079F089E18093EB0081E090E0002E01C0AB
:10349000880F0A94EAF78093EA001092EA0003C0CA
:1034A00081E28093EB000F90DF91CF91FF91EF913C
:1034B000BF91AF919F918F917F916F915F914F914C
:1034C0003F912F911F910F91FF90EF900F900FBEA2
:1034D0000F901F9018951F93CF93DF93EC01FE017F
:1034E0001491112351F01A3019F48DE00E94D8156F
:1034F000812F0E94D8152196F2CFDF91CF911F9195
:1035000008958A3010F490E301C097E3890F0C947A
:10351000D815CF93C82F82958F700E94811A8C2F57
:103520008F70CF910C94811ACF93C82F892F0E944E
:10353000891A8C2FCF910C94891A0C94891AEF92C6
:10354000FF920F931F93CF93DF93CDB7DEB72797EB
:103550000FB6F894DEBF0FBECDBF8E010F5F1F4FB9
:1035600027E0F80111922A95E9F74AE0B8010E9494
:103570002B207E01F8E0EF0EF11CF80181918F0104
:1035800081110E94D8150E151F05B9F727960FB6A1
:10359000F894DEBF0FBECDBFDF91CF911F910F9189
:1035A000FF90EF900895EF92FF920F931F93CF93A8
:1035B000DF9300D000D000D0CDB7DEB78E010F5F13
:1035C0001F4F26E0F80111922A95E9F74AE0B80169
:1035D0000E9467207E01F6E0EF0EF11CF801819158
:1035E0008F0181110E94D8150E151F05B9F7269677
:1035F0000FB6F894DEBF0FBECDBFDF91CF911F9104
:103600000F91FF90EF900895EF92FF920F931F9309
:10361000CF93DF93CDB7DEB72B970FB6F894DEBF0D
:103620000FBECDBF8E010F5F1F4F2BE0F80111922F
:103630002A95E9F72AE0A8010E9436207E01FCE0E5
:10364000EF0EF11CF80181918F0181110E94D815B4
:103650000E151F05B9F72B960FB6F894DEBF0FBEF7
:10366000CDBFDF91CF911F910F91FF90EF90089503
:10367000EF92FF920F931F93CF93DF93CDB7DEB7F7
:103680002B970FB6F894DEBF0FBECDBF8E010F5F34
:103690001F4F2BE0F80111922A95E9F72AE0A801C3
:1036A0000E9445207E01FBE0EF0EF11CF8018191A4
:1036B0008F0181110E94D8150E151F05B9F72B96A1
:1036C0000FB6F894DEBF0FBECDBFDF91CF911F9133
:1036D0000F91FF90EF90089520E030E08091BC00C2
:1036E00087FD06C02F5F3F4F293E83E03807B1F7C3
:1036F00081E0283E334009F480E008958093BB00C8
:1037000084E88093BC000E946C1B882319F0809190
:10371000B900887F0895CF93C82F84EA8093BC00B6
:103720000E946C1B882361F08C2F880F0E947E1BE7
:10373000803229F484E98093BC0080E001C081E0FC
:10374000CF9108950E94DE1388E50E948B1B8111A2
:1037500002C080E0089580E30E947E1B8823C9F3A5
:1037600081E00E947E1B8823A1F384E98093BC0042
:103770008FE39CE90197F1F700C0000088E50E9403
:103780008B1B882331F380E00E947E1B882309F382
:1037900080E00E947E1B8823E1F280E00E947E1B75
:1037A0008823B9F280E00E947E1B882391F280E09A
:1037B0000E947E1B882369F280E00E947E1B882382
:1037C00041F280E00E947E1B882319F280E90E946A
:1037D0007E1B882309F4BDCF84E98093BC008FE36E
:1037E0009CE90197F1F700C0000088E50E948B1B5F
:1037F000882309F4AECF87E00E947E1B882309F45A
:10380000A8CF80E00E947E1B882309F4A2CF81E428
:103810000E947E1B882309F49CCF84E98093BC001E
:103820008FE39CE90197F1F700C0000088E50E9452
:103830008B1B882309F48DCF8AE10E947E1B88238D
:1038400009F487CF80E40E947E1B882309F481CF8E
:1038500080E00E947E1B882309F47BCF84E980935B
:10386000BC008FE39CE90197F1F700C0000088E5F8
:103870000E948B1B882309F46CCF83E30E947E1B7C
:10388000882309F466CF83E00E947E1B882309F415
:1038900060CF84E98093BC008FE39CE90197F1F746
:1038A00000C0000088E50E948B1B882309F451CFDB
:1038B00080E30E947E1B882309F44BCF88E00E949E
:1038C0007E1B882309F445CF84E98093BC008FE3F5
:1038D0009CE90197F1F700C0000081E00895CF93C3
:1038E000C82F84EA8093BC000E946C1B882369F077
:1038F0008C2F880F8F5F0E947E1B883429F484E907
:103900008093BC0080E001C081E0CF910895EF92E8
:10391000FF920F931F93CF93DF93CDB7DEB76097DE
:103920000FB6F894DEBF0FBECDBF7C018E010F5FD6
:103930001F4F80E1F80111928A95E9F788E50E940E
:103940008B1B811102C080E05EC086E30E947E1B5B
:103950008823C9F384E98093BC00F5E8FA95F1F770
:10396000000088E50E946F1C882369F3F8019E011E
:10397000205F3F4F94EC9093BC008091BC0087FF88
:10398000FCCF8091BB008193E217F307A1F784E895
:103990008093BC008091BC0087FFFCCF8091BB006E
:1039A000888B84E98093BC00DE01149687016C91BA
:1039B000762F7073AD0142505109FA01808190E079
:1039C000F0E17F9F800D911D1124F8019183808388
:1039D000762F707C4F5F5F4FFA01808190E0F4E0BA
:1039E0007F9F800D911D1124F801938382836F7056
:1039F000862F90E09583848313960A5F1F4FA2174A
:103A0000B307A9F681E060960FB6F894DEBF0FBE4B
:103A1000CDBFDF91CF911F910F91FF90EF9008954F
:103A200084E98093BC0008950E94D40A80914601E5
:103A3000909147018130910579F08230910509F428
:103A400059C00097B9F710928B0010928A0010921B
:103A50008D0010928C00EACF189B24C05F9A5E986C
:103A60002FEF83EC99E0215080409040E1F700C0B7
:103A700000005F985E9A2FEF83EC99E02150804020
:103A80009040E1F700C000005F9A5E982FEF83EC52
:103A900099E0215080409040E1F700C000005F981D
:103AA0005E9A23C05F985E9A2FEF83EC99E02150D5
:103AB00080409040E1F700C000005F9A5E982FEFD1
:103AC00083EC99E0215080409040E1F700C0000075
:103AD0005F985E9A2FEF83EC99E0215080409040F0
:103AE000E1F700C000005F9A5E98109247011092C3
:103AF00046019CCF6A9A72980E94470C813079F0F7
:103B00004CF481112DC084E091E00E94CC07809399
:103B10000C0126C0823061F0833099F021C0469AB2
:103B200088E091E00E94310610920C01469818C07E
:103B3000479A88E091E00E94F90E10920C01479894
:103B40000FC02C9A80910C01882319F00E94C60D99
:103B500006C084E091E00E94CC0780930C012C9871
:103B60006A9A729A63CF5058BB27AA270ED075C1A4
:103B700066D130F06BD120F031F49F3F11F41EF488
:103B80005BC10EF4E095E7FB51C1E92F77D180F3DB
:103B9000BA17620773078407950718F071F49EF54A
:103BA0008FC10EF4E0950B2EBA2FA02D0B01B90199
:103BB00090010C01CA01A0011124FF27591B99F0A3
:103BC000593F50F4503E68F11A16F040A22F232FAF
:103BD000342F4427585FF3CF469537952795A795FF
:103BE000F0405395C9F77EF41F16BA0B620B730BA6
:103BF000840BBAF09150A1F0FF0FBB1F661F771F17
:103C0000881FC2F70EC0BA0F621F731F841F48F4CB
:103C1000879577956795B795F7959E3F08F0B3CF51
:103C20009395880F08F09927EE0F9795879508953B
:103C3000D9D008F481E008950CD00FC107D140F02D
:103C4000FED030F021F45F3F19F0F0C0511139C1BE
:103C5000F3C014D198F39923C9F35523B1F3951BFD
:103C6000550BBB27AA2762177307840738F09F5F9D
:103C70005F4F220F331F441FAA1FA9F333D00E2E0C
:103C80003AF0E0E830D091505040E695001CCAF779
:103C900029D0FE2F27D0660F771F881FBB1F26173E
:103CA00037074807AB07B0E809F0BB0B802DBF0111
:103CB000FF2793585F4F2AF09E3F510568F0B6C02A
:103CC00000C15F3FECF3983EDCF3869577956795EE
:103CD000B795F7959F5FC9F7880F911D96958795C2
:103CE00097F90895E1E0660F771F881FBB1F6217E1
:103CF00073078407BA0720F0621B730B840BBA0B9F
:103D0000EE1F88F7E095089504D06894B111D9C0EA
:103D10000895BCD088F09F5790F0B92F9927B751DC
:103D2000A0F0D1F0660F771F881F991F1AF0BA957F
:103D3000C9F712C0B13081F0C3D0B1E00895C0C05E
:103D4000672F782F8827B85F39F0B93FCCF3869575
:103D500077956795B395D9F73EF4909580957095D2
:103D600061957F4F8F4F9F4F0895E89409C097FB4F
:103D70003EF490958095709561957F4F8F4F9F4F42
:103D80009923A9F0F92F96E9BB279395F695879586
:103D900077956795B795F111F8CFFAF4BB0F11F449
:103DA00060FF1BC06F5F7F4F8F4F9F4F16C08823F0
:103DB00011F096E911C0772321F09EE8872F762F26
:103DC00005C0662371F096E8862F70E060E02AF067
:103DD0009A95660F771F881FDAF7880F9695879553
:103DE00097F90895990F0008550FAA0BE0E8FEEF28
:103DF00016161706E807F907C0F012161306E407AF
:103E0000F50798F0621B730B840B950B39F40A26A7
:103E100061F0232B242B252B21F408950A2609F485
:103E2000A140A6958FEF811D811D089597F99F6789
:103E300080E870E060E008959FEF80EC0895002432
:103E40000A941616170618060906089500240A94FF
:103E500012161306140605060895092E0394000C85
:103E600011F4882352F0BB0F40F4BF2B11F460FF14
:103E700004C06F5F7F4F8F4F9F4F089557FD90583D
:103E8000440F551F59F05F3F71F04795880F97FB1E
:103E9000991F61F09F3F79F08795089512161306D8
:103EA0001406551FF2CF4695F1DF08C01616170607
:103EB0001806991FF1CF869571056105089408953C
:103EC000E894BB2766277727CB0197F908958ADF07
:103ED00008F48FEF08950BD0C0CFB1DF28F0B6DF24
:103EE00018F0952309F0A2CFA7CF1124EACFC6DF9F
:103EF000A0F3959FD1F3950F50E0551F629FF001FD
:103F0000729FBB27F00DB11D639FAA27F00DB11D55
:103F1000AA1F649F6627B00DA11D661F829F2227DE
:103F2000B00DA11D621F739FB00DA11D621F839F65
:103F3000A00D611D221F749F3327A00D611D231F3B
:103F4000849F600D211D822F762F6A2F11249F5789
:103F500050408AF0E1F088234AF0EE0FFF1FBB1FAC
:103F6000661F771F881F91505040A9F79E3F51054B
:103F700070F05CCFA6CF5F3FECF3983EDCF3869504
:103F800077956795B795F795E7959F5FC1F7FE2BF6
:103F9000880F911D9695879597F9089511F40EF461
:103FA0004BCF3EC073DFD0F39923D9F3CEF39F57A5
:103FB000550B87FF43D00024A0E640EA90018058CB
:103FC0005695979528F4805C660F771F881F20F020
:103FD00026173707480730F4621B730B840B202920
:103FE00031294A2BA69517940794202531254A2775
:103FF00058F7660F771F881F20F0261737074807E6
:1040000030F4620B730B840B200D311D411DA09504
:1040100081F7B901842F9158880F96958795089557
:104020009F3F31F0915020F4879577956795B7952C
:10403000880F911D9695879597F908959150504056
:10404000660F771F881FD2F70895EE0FFF1F0590A8
:10405000F491E02D0994BB274A3031F4992322F4DE
:10406000BDE2909581959F4F0C946820BB272A3024
:1040700051F4992342F4BDE2909580957095619535
:104080007F4F8F4F9F4F0C944620BB27FA01A62FDE
:104090006217710581059105330B30FB66F0AA2785
:1040A000660F771F881F991FAA1FA21710F0A21B67
:1040B00063953850A9F7A05DAA3308F0A95DA193D4
:1040C00036F7B111B1931082CA010C948120BB273D
:1040D000FB015527AA27880F991FAA1FA41710F0C4
:1040E000A41B83955051B9F7A05DAA3308F0A95DD0
:1040F000A193009779F7B111B1931192CB010C9470
:104100008120DC01FC01672F71917723E1F7329761
:1041100004C07C916D9370836291AE17BF07C8F3A2
:064120000895F894FFCFA2
:1041260072010A0000000A00A2FEF6FF0100E1008B
:04413600000000087D
:00000001FF
