S01100004D6F746F72546573742E7372656362
S11300000C9456000C9460000C9460000C946000F6
S11300100C9460000C9460000C9460000C946000DC
S11300200C9460000C9460000C9460000C946000CC
S11300300C9460000C9460000C9460000C946000BC
S11300400C9460000C9460000C9460000C946000AC
S11300500C9460000C9460000C9460000C9460009C
S11300600C9460000C9460000C9460000C9460008C
S11300700C9460000C9460000C9460000C9460007C
S11300800C9460000C9460000C9460000C9460006C
S11300900C9460000C9460000C9460000C9460005C
S11300A00C9460000C9460000C94600011241FBE3A
S11300B0CFEFDAE0DEBFCDBF0E9490000C941B02AC
S11300C00C94000088EC90E0909389008093880061
S11300D0E1E8F0E080818B7F808380818D7F808365
S11300E08081816080838081806180838081886059
S11300F08083E0E8F0E08081826080838081816099
S1130100808380818062808380818F7E80838081F0
S11301108860808380818B7F8083269A279A0895C4
S1130120239A229A0E946200C8E8D0E0688179810B
S113013080E090E00E9420012AE939E949E15FE387
S11301400E9486010E94F10070938B0060938A00E4
S11301506881798180E090E00E9420012AE939E9F0
S113016049E15FE30E9486010E94F10070938D00D3
S113017060938C0060E355E740E42B9A2A9A262F7B
S1130180352F05C00197F1F72150310919F082E3A9
S113019090E0F8CF6E9A8EB184278EB92B982A9A64
S11301A0262F352F05C00197F1F72150310919F099
S11301B082E390E0F8CF6E9A8EB184278EB92B98A3
S11301C02A98262F352F05C00197F1F721503109C0
S11301D019F082E390E0F8CF6E9A8EB184278EB93D
S11301E0CCCF0E94650188F09F5798F0B92F9927CA
S11301F0B751B0F0E1F0660F771F881F991F1AF00E
S1130200BA95C9F714C0B13091F00E947F01B1E0F2
S113021008950C947F01672F782F8827B85F39F0F1
S1130220B93FCCF3869577956795B395D9F73EF4A6
S113023090958095709561957F4F8F4F9F4F08954E
S1130240E89409C097FB3EF490958095709561956C
S11302507F4F8F4F9F4F9923A9F0F92F96E9BB2722
S11302609395F695879577956795B795F111F8CF9E
S1130270FAF4BB0F11F460FF1BC06F5F7F4F8F4F09
S11302809F4F16C0882311F096E911C0772321F0FF
S11302909EE8872F762F05C0662371F096E8862F97
S11302A070E060E02AF09A95660F771F881FDAF7EE
S11302B0880F9695879597F9089557FD9058440FA0
S11302C0551F59F05F3F71F04795880F97FB991FB1
S11302D061F09F3F79F0879508951216130614066E
S11302E0551FF2CF4695F1DF08C0161617061806FB
S11302F0991FF1CF86957105610508940895E894D6
S1130300BB2766277727CB0197F908950E949901A7
S11303100C940A020E94FC0138F00E94030220F0AF
S1130320952311F00C94F3010C94F90111240C940D
S113033080010E945D0170F3959FC1F3950F50E019
S1130340551F629FF001729FBB27F00DB11D639F83
S1130350AA27F00DB11DAA1F649F6627B00DA11D29
S1130360661F829F2227B00DA11D621F739FB00DCF
S1130370A11D621F839FA00D611D221F749F33273F
S1130380A00D611D231F849F600D211D822F762FD8
S11303906A2F11249F5750409AF0F1F088234AF0B5
S11303A0EE0FFF1FBB1F661F771F881F9150504021
S11303B0A9F79E3F510580F00C94F3010C94800141
S11303C05F3FE4F3983ED4F3869577956795B795A8
S11303D0F795E7959F5FC1F7FE2B880F911D9695C2
S11303E0879597F9089597F99F6780E870E060E032
S11303F008959FEF80EC089500240A9416161706BA
S113040018060906089500240A9412161306140601
S113041005060895092E0394000C11F4882352F064
S1130420BB0F40F4BF2B11F460FF04C06F5F7F4F1C
S10D04308F4F9F4F0895F894FFCFFB
S9030000FC
