:100000000C9498020C94B5020C94B5020C94E50281
:100010000C94B5020C94B5020C94B5020C94B50284
:100020000C94B5020C9480030C945D160C949716F6
:100030000C94B5020C94B5020C94B5020C94B50264
:100040000C94B5020C94B5020C94B5020C94B50254
:100050000C94B5020C94B5020C94B5020C94B50244
:100060000C94B5020C94B5020C94B5020C94B50234
:100070000C94B5020C94B5020C94B5020C94B50224
:100080000C94B5020C94B5020C94B5020C94B50214
:100090000C94B5020C94B5020C94B5020C94B50204
:1000A0000C94B5020C94B5020C94B5020F03160320
:1000B00021032403270335032A032D030516FD1509
:1000C000F515ED15E515DD15D515CD15C515BD15C0
:1000D000B515AD15A5159D1595158D1585157D15B0
:1000E00075156D1565155D1555154D1545153D15A0
:1000F00035152D1525151D1515150D150515FD1491
:10010000F514ED14E514DD14D514CD14C514BD1487
:10011000B514AD14A5149D1495148D1485147D1477
:1001200075146D1465145D1455144D1445143D1467
:1001300035142D1425141D1415140D1405144761C0
:100140006D65206F7665720A0048616C6674696D32
:10015000650A0050617573650A00476F616C204243
:100160000A00476F616C20520A00506C6179200AC6
:1001700000436F6D6D6F6E20546573743A20666C2A
:10018000617368204C4544200A000A00202020208A
:1001900020204F435231423A202020004F43523119
:1001A000433A202020004C656674207475726E20DE
:1001B0002020005269676874207475726E202020B8
:1001C000000A00202020636F735F6F72695F676FA2
:1001D000616C3A20200020202073696E5F6F726985
:1001E0005F676F616C3A2020000A00202020636F57
:1001F000735F726F626F5F676F616C3A20200020DF
:10020000202073696E5F726F626F5F676F616C3A17
:100210002020000A00202020636F735F74686574DB
:10022000615F726F626F3A20200020202073696E38
:100230005F74686574615F726F626F3A2020000AB4
:1002400000202020795F706F736974696F6E3A20A7
:100250002000785F706F736974696F6E3A202000B8
:100260000A00202020676F616C5B315D3A2020001E
:10027000676F616C5B305D3A2020000A006D617829
:100280002064697374616E6365206F7574206F6696
:100290002072616E6765000A000A00202020526902
:1002A00067687420466F72776172643A2020004C50
:1002B000656674204261636B776172643A20200046
:1002C0000A002020205269676874204261636B77BE
:1002D0006172643A2020004C65667420466F727724
:1002E0006172643A2020000A002020205269676869
:1002F0007420466F72776172643A2020004C656604
:100300007420466F72776172643A2020000A0020E0
:1003100020205269676874204261636B7761726460
:100320003A2020004C65667420466F7277617264D3
:100330003A2020000A002020205269676874204675
:100340006F72776172643A2020004C6566742046B3
:100350006F72776172643A2020000A0020202052D8
:100360006967687420466F72776172643A20200072
:100370004C656674204261636B776172643A202039
:10038000000A00202020526967687420466F727747
:100390006172643A2020004C65667420466F727763
:1003A0006172643A2020000A0020202052696768A8
:1003B0007420466F72776172643A2020004C656643
:1003C00074204261636B776172643A2020000A00F6
:1003D000202020526967687420466F7277617264CA
:1003E0003A2020004C65667420466F727761726413
:1003F0003A2020000A0020202052696768742042B9
:1004000061636B776172643A2020004C65667420EA
:10041000466F72776172643A202000436F6D706599
:100420006E736174696F6E20666F7220726967689F
:10043000742066726F6E740A00436F6D70656E7320
:100440006174696F6E20666F72206C6566742066D9
:10045000726F6E740A000A00202020002020200005
:100460002020200020202000202020004E6F20652A
:1004700066666563746976652049520A000001006A
:100480000014051200020000D1044300030000CD57
:10049000040401030904B9041202030904B10406A7
:1004A00003030904A70408080334003100300000E6
:1004B0000006034D003200000012034A002E002007
:1004C000004600690065006E006500000004030935
:1004D0000409024300020100C032090400000102C5
:1004E0000201000524001001052401010104240279
:1004F00006052406000107058203100040090401D7
:1005000000020A00000007050302400000070584FE
:10051000024000001201000202000010C0167A041E
:100520000001010203010001C11201803601813680
:1005300011241FBECFEFDAE0DEBFCDBF11E0A0E097
:10054000B1E0E8EEFBE302C005900D92A231B107E5
:10055000D9F721E0A2E1B1E001C01D92AB37B207AB
:10056000E1F70E948F1A0C94F21D0C94000084EFA6
:1005700091E09093890080938800E1E8F0E0808129
:100580008B7F808380818D7F808380818160808369
:10059000808180618083808188608083E0E8F0E0F2
:1005A000808182608083808181608083808180629D
:1005B000808380818F7E808380818860808380813A
:1005C0008B7F8083269A279A08951F920F920FB6E9
:1005D0000F9211242F933F934F935F936F937F93C9
:1005E0008F939F93AF93BF93EF93FF936E9A7698F9
:1005F0006AE082E191E00E9459128091120190E03C
:100600000E941A188091120190E0FC01E05AF10951
:10061000E830F10550F5EA5AFF4F0C94861D81E74A
:1006200091E00E94E61781E090E006C08AE691E042
:100630000E94E61782E090E0909309018093080100
:1006400014C082E691E00BC08AE591E008C083E522
:1006500091E005C089E491E002C08EE391E00E9440
:10066000E61710920901109208016E9A769AFF918E
:10067000EF91BF91AF919F918F917F916F915F911A
:100680004F913F912F910F900FBE0F901F90189593
:10069000189B1BC08EE89EEF909305018093040188
:1006A00086EF9FEF909307018093060188E790E023
:1006B00090930101809300018AE090E09093030100
:1006C000809302015F985E9A089584E591E090938B
:1006D0000501809304018AE090E0909307018093E4
:1006E000060188E89FEF909301018093000186EF57
:1006F0009FEF90930301809302015F9A5E980895A3
:100700001F920F920FB60F9211242F933F934F9386
:100710005F936F937F938F939F93AF93BF93EF9369
:10072000FF930E944803FF91EF91BF91AF919F917A
:100730008F917F916F915F914F913F912F910F908A
:100740000FBE0F901F90189520982198249A259AF3
:10075000579A569A85B1836085B9E8E6F0E08081C2
:1007600081608083EBE6F0E08081836080830C947D
:1007700048036A9A7298E1E6F0E080E8808310828C
:100780000E94FA120E9459112FEF87EA91E6215038
:1007900080409040E1F700C000004AE06DE181E058
:1007A0000E9401120E94C10C0E94B702239A229A51
:1007B0003E9A3F9A539A78940E94A4030E941D196E
:1007C0006A9A729A08952F923F924F925F926F9217
:1007D0007F928F929F92AF92BF92CF92DF92EF92D1
:1007E000FF920F931F93CF93DF93CDB7DEB7E297BE
:1007F0000FB6F894DEBF0FBECDBF9EA38DA3CDB6BE
:10080000DEB6D8AACFA684E291E00E94021AE4E202
:10081000F1E0A12CB12C208131812F3F43E034073E
:10082000C9F0828193818F3F53E0950799F0D501FC
:10083000AA0FBB1FCC24C394D12CCC0EDD1EAC0D53
:10084000BD1D19963C932E9318978D939C932FEF73
:10085000A21AB20A369631E0EC33F307E1F643E030
:10086000A416B1040CF424C5CDB6DEB6DAA6C9A62A
:100870009501215031093AA329A32A9DC0012B9D3E
:10088000900D3A9D900D1124959587959C01220F0E
:10089000331F4DB75EB7421B530B0FB6F8945EBFC4
:1008A0000FBE4DBF2DB73EB72F5F3F4F38A72FA3C9
:1008B000880F991F880F991F481B590B0FB6F89482
:1008C0005EBF0FBE4DBF8DB79EB701963C018E0136
:1008D000075F1F4FBE016F5F7F4F212C312C1A8E97
:1008E000198EA98DBA8D1196BA8BA98BF101EE0FD5
:1008F000FF1FEE0FFF1FE60DF71DFAABE9AB61011D
:10090000CC0CDD1C2FA138A52C0D3D1D3E8F2D8F4D
:100910007D01412C512CEA14FB040CF080C0E98DC0
:10092000FA8DA9A9BAA91196FC93EE931396FC929D
:10093000EE921297D8018D919C91F801E40DF51D6E
:1009400022813381821B930BFB0120813181E40DD5
:10095000F51D42815381241B350B229FA001239F4B
:10096000500D500D1124889F9001899F300D300D3E
:100970001124420F531FED8DFE8DE40DF51D5183A3
:1009800040839F01E9A9FAA9410181149104B9F1B9
:10099000D9010D90BC91A02DBE8BAD8BB1E08B1A0F
:1009A0009108D9015E914E91CD0134979D01CD887A
:1009B000DE884C155D051CF5C080D180DCA6CBA679
:1009C000A281B381BEA7ADA7C480D580D182C082E9
:1009D000C680D780D382C282CD88DE88DC01CD92EA
:1009E000DC92ABA5BCA5B583A483CDA4DEA4D7823D
:1009F000C682DC0113965C934E931297C6CF2FEFFD
:100A0000221A320A3FEFE31AF30A49A95AA94C5FA6
:100A10005F4F5AAB49AB52E0450E511C7CCF0E5F85
:100A20001F4F6E5F7F4F89899A89A9A1BAA18A1742
:100A30009B071CF49A8F898F54CF87E992E00E941C
:100A4000E617EFA1F8A500811181013EFEE21F0724
:100A500074F08DE792E00E94E617B801882777FDD1
:100A60008095982F0E94B3188BE792E018C4D301A9
:100A70008D909C90119714966D917C91159712967C
:100A80008D919C9113970134BFE11B07B4F1940140
:100A9000220F331F8616970631F0F30146815781E6
:100AA00084169506A9F4E1E0F0E0EC0FFD1FE20FDB
:100AB000F31FE084F18400811181FC01EE0FFF1F20
:100AC000CC24C394D12CCC0EDD1EEC0DFD1D10C02A
:100AD000FC01EE0FFF1F41E050E04C0F5D1FE40FE3
:100AE000F51FE084F18400811181FA01E20FF31F08
:100AF000C084D1842080318088C1D3011696AD9006
:100B0000BC901797013717410CF4BDC0880E991E91
:100B1000F401E60FF71FEA0DFB1D3397EE0FFF1FE1
:100B2000CC24C394D12CCC0EDD1EEC0DFD1DE08435
:100B3000F18400811181D30118962D913C91199770
:100B40001A964D915C911B97820E931E840E951EF2
:100B5000B3E08B1A9108A60EB71EA20EB31EA40E08
:100B6000B51EE3E0AE1AB108B701882777FD80957E
:100B7000982F0E94181C2B013C01880C991C8C0C8E
:100B80009D1CD40118966D917C9119976E197F095F
:100B900080E090E00E94161C21EA37E643EF5EE316
:100BA0000E94CC1C698B7A8B8B8B9C8BAA0CBB1CF8
:100BB000AC0CBD1CF501608571856E197F0980E064
:100BC00090E00E94161C20E33CE446E05FE30E94B4
:100BD000CC1C9B01AC0169897A898B899C890E9414
:100BE000151B27E634E44DE450E40E94CC1C9B0125
:100BF000AC01C301B2010E94151B0E94E51B6B01F1
:100C0000B801882777FD8095982F0E94181C2B012A
:100C10003C01D4016D917C91601B710B80E090E0F0
:100C20000E94161C21EA37E643EF5EE30E94CC1CCB
:100C3000698B7A8B8B8B9C8BF50160817181601B3A
:100C4000710B80E090E00E94161C20E33CE446E03B
:100C50005FE30E94CC1C9B01AC0169897A898B8976
:100C60009C890E94151B27E634E44DE450E40E9461
:100C7000CC1C9B01AC01C301B2010E94151B0E9458
:100C8000E51B1B01C2C0D30118964D915C911997C9
:100C90001A962D913C911B97FB01EA0DFB1DE40F69
:100CA000F51FE20FF31F3397EE0FFF1FCC24C39401
:100CB000D12CCC0EDD1EEC0DFD1DC084D184208016
:100CC0003180880E991E8401060F171F0A0D1B1D07
:100CD00003501109840E951E820E931E23E0821A82
:100CE0009108B601882777FD8095982F0E94181CDF
:100CF0002B013C01880C991C41E050E04C0F5D1F1A
:100D0000840E951ED40118966D917C9119976C19DB
:100D10007D0980E090E00E94161C21EA37E643EF4F
:100D20005EE30E94CC1C698B7A8B8B8B9C8B000FB3
:100D3000111FE1E0F0E0EC0FFD1F0E0F1F1FD801A7
:100D400018966D917C9119976C197D0980E090E05F
:100D50000E94161C20E33CE446E05FE30E94CC1CAA
:100D60009B01AC0169897A898B899C890E94151B3A
:100D700027EE3BEF49EB5FE30E94CC1C9B01AC01EB
:100D8000C301B2010E94151B0E94E51B7B01B1014A
:100D9000882777FD8095982F0E94181C2B013C0115
:100DA000F401608171816219730980E090E00E9412
:100DB000161C21EA37E643EF5EE30E94CC1C4B0190
:100DC0005C01D8016D917C916219730980E090E01B
:100DD0000E94161C20E33CE446E05FE30E94CC1C2A
:100DE0009B01AC01C501B4010E94151B27EE3BEF2E
:100DF00049EB5FE30E94CC1C9B01AC01C301B20133
:100E00000E94151B0E94E51B8B0136016E187F089E
:100E10002101401A510A449CB001459C700D700D8F
:100E20001124669CC001679C900D900D1124680FE1
:100E3000791F882777FD8095982F0E94181C0E94A3
:100E4000331D4B015C01B201882777FD8095982FF7
:100E50000E94181CA50194010E947D1B698B7A8B4E
:100E60008B8B9C8B6093630170936401809365010D
:100E700090936601B301882777FD8095982F0E9493
:100E8000181CA50194010E947D1B698F7A8F8B8F9E
:100E90009C8F60936B0170936C0180936D019093B4
:100EA0006E0180E094E08E199F098C199D0997FDD1
:100EB0000196BC0175956795882777FD8095982FD9
:100EC0000E94181C4B015C0180E093E0801B910B99
:100ED0008219930997FD0196BC017595679588273E
:100EE00077FD8095982F0E94181C6B017C01298941
:100EF0003A894B895C89C501B4010E94CC1C2B0145
:100F00003C01298D3A8D4B8D5C8DC701B6010E9445
:100F1000CC1C9B01AC01C301B2010E94141B6D8F5C
:100F20007E8F8F8F98A360931C0170931D01809317
:100F30001E0190931F01298D3A8D4B8D5C8DC5014B
:100F4000B4010E94CC1C4B015C0129893A894B8970
:100F50005C89C701B6010E94CC1C9B01AC01C50194
:100F6000B4010E94151B2B013C016093200170937A
:100F700021018093220190932301EDA1FEA16081C4
:100F80007181882777FD8095982F0E94181C69A38E
:100F90007AA38BA39CA39B01AC016D8D7E8D8F8D5D
:100FA00098A10E94141B4B015C01ADA1BEA1129639
:100FB0006D917C911397882777FD8095982F0E94DB
:100FC000181C6D8B7E8B8F8B988F9B01AC01C3019E
:100FD000B2010E94141B6B017C01A5019401C501A3
:100FE000B4010E94CC1C4B015C01A7019601C70112
:100FF000B6010E94CC1C9B01AC01C501B4010E944A
:10100000151B0E94331D6B017C0160935701709387
:1010100058018093590190935A012D8D3E8D4F8D2B
:1010200058A169A17AA18BA19CA10E94141BA701C0
:1010300096010E947D1B4B015C01609353017093EC
:1010400054018093550190935601A30192016D893B
:101050007E898F89988D0E94141BA70196010E949A
:101060007D1B6B017C016093670170936801809325
:10107000690190936A01A5019401698D7A8D8B8D28
:101080009C8D0E94CC1C2B013C01A7019601698913
:101090007A898B899C890E94CC1C9B01AC01C3017D
:1010A000B2010E94141B60935F01709360018093F2
:1010B000610190936201A501940169897A898B8904
:1010C0009C890E94CC1C4B015C01A7019601698D93
:1010D0007A8D8B8D9C8D0E94CC1C9B01AC01C5012F
:1010E000B4010E94151B60935B0170935C018093B7
:1010F0005D0190935E0180E792E00E94E617EDA10A
:10110000FEA1808191810E941A1882E692E00E94DD
:10111000E617ADA1BEA112968D919C9113970E94E6
:101120001A1880E692E00E94E61782E592E00E949B
:10113000E61760911C0170911D0180911E01909134
:101140001F010E94E51BCB010E941A1881E492E066
:101150000E94E61760912001709121018091220187
:10116000909123010E94E51BCB010E941A188FE386
:1011700092E00E94E6178AE292E00E94E61720E0E1
:1011800030E44CE156E460916B0170916C01809108
:101190006D0190916E010E94CC1C0E94E51BCB0159
:1011A0000E941A1885E192E00E94E61720E030E4E0
:1011B0004CE156E460916301709164018091650196
:1011C000909166010E94CC1C0E94E51BCB010E94FD
:1011D0001A1883E192E00E94E6178FEF91E00E94D7
:1011E000E61720E030E44CE156E46091670170912D
:1011F00068018091690190916A010E94CC1C0E9453
:10120000E51BCB010E941A188BEE91E00E94E617B5
:1012100020E030E44CE156E46091530170915401B8
:1012200080915501909156010E94CC1C0E94E51BB3
:10123000CB010E941A1889EE91E00E94E61786ED14
:1012400091E00E94E61720E030E44CE156E4609122
:101250005F017091600180916101909162010E9433
:10126000CC1C0E94E51BCB010E941A1883EC91E074
:101270000E94E61720E030E44CE156E460915B0107
:1012800070915C0180915D0190915E010E94CC1C87
:101290000E94E51BCB010E941A1881EC91E00E948C
:1012A000E617C9A4DAA40FB6F894DEBE0FBECDBE11
:1012B000CFA4D8A80FB6F894DEBE0FBECDBEE2967E
:1012C0000FB6F894DEBF0FBECDBFDF91CF911F9157
:1012D0000F91FF90EF90DF90CF90BF90AF909F90D5
:1012E0008F907F906F905F904F903F902F900895D8
:1012F0008F929F92AF92BF92CF92DF92EF92FF9226
:101300000E94E30320E030E040EA51E4609157019D
:10131000709158018091590190915A010E94791B56
:1013200087FF09C010928D0010928C0010928B00E4
:1013300010928A002DC1C0905F01D0906001E090B2
:101340006101F090620120E030E0A901C701B6011F
:101350000E94791B20E030E0A90187FF8CC06091DA
:101360005B0170915C0180915D0190915E010E9432
:10137000791B87FD0AC022EA35E446E35FEBC7012B
:10138000B6010E94791B87FF33C080918C00909139
:101390008D00019690938D0080938C0080918A003F
:1013A00090918B00019790938B0080938A002091FD
:1013B0008C0030918D008091880090918900821777
:1013C000930740F4809188009091890090938D005C
:1013D00080938C0080918A0090918B00892B09F07A
:1013E00047C081E090E090938B0080938A0040C0DA
:1013F000809188009091890090938D0080938C005B
:10140000609188007091890080E090E00E94161C35
:101410004B015C0120E030E04AEF52E4C701B60125
:101420000E94CC1C9B01AC01C501B4010E94151B9C
:101430004B015C0120913C0130913D0140913E0106
:1014400050913F01C701B6010E94141B20E030E01B
:1014500048E451E40E94CC1C9B01AC01C501B401DD
:101460000E94151B0E94EA1B70938B0060938A00F8
:1014700083EB91E08BC060915B0170915C01809186
:101480005D0190915E010E94791B87FD0AC022EAEE
:1014900035E446E35FE3C701B6010E94C81C181695
:1014A0009CF580918C0090918D00019790938D0018
:1014B00080938C0080918A0090918B00019690938C
:1014C0008B0080938A0080918C0090918D00892BF5
:1014D00031F481E090E090938D0080938C00209116
:1014E0008A0030918B00809188009091890082174A
:1014F000930708F049C080918800909189009093EB
:101500008B0080938A0040C0809188009091890070
:1015100090938B0080938A0060918800709189007D
:1015200080E090E00E94161C4B015C0120E030E05E
:101530004AEF52E4C701B6010E94CC1C9B01AC01EA
:10154000C501B4010E94141B4B015C0120913C01B8
:1015500030913D0140913E0150913F01C701B601DC
:101560000E94141B20E030E048E451E40E94CC1CAF
:101570009B01AC01C501B4010E94141B0E94EA1B2F
:1015800070938D0060938C0086EA91E00E94E617CC
:101590002A9A2B9A80915F0190916001A09161013C
:1015A000B091620180933C0190933D01A0933E0174
:1015B000B0933F018CE991E00E94E61780918C0086
:1015C00090918D000E941A188CE891E00E94E61715
:1015D00080918A0090918B000E941A188AE891E00D
:1015E000FF90EF90DF90CF90BF90AF909F908F9043
:1015F0000C94E617CF92DF92EF92FF92CF93209157
:1016000063013091640140916501509166016091E0
:1016100053017091540180915501909156010E949F
:10162000CC1C20E030E0A9010E94791B87FF1DC07F
:10163000C0902001D0902101E0902201F090230180
:1016400020E030E040E253E4C701B6010E94791B7C
:1016500087FF0BC0C1E020E030E048EC52ECC7014E
:10166000B6010E94C81C18160CF0C0E08C2FCF9158
:10167000FF90EF90DF90CF900895FC01329624E028
:1016800030E080E090E041915191841795070CF48F
:10169000CA012150310921153105A9F7089580911A
:1016A0007A008F7780937A0080917C008B7F809383
:1016B0007C0080917C008D7F80937C0080917C00F9
:1016C0008E7F80937C0080917A00806880937A007E
:1016D00080917A00806480937A0080917A0084FF00
:1016E000FCCF209178003091790080E094E0821B5B
:1016F000930B9093700180936F0180917A008F7E9D
:1017000080937A0080917A008F7780937A0080911D
:101710007C008B7F80937C0080917C008D7F809308
:101720007C0080917C00816080937C0080917A00B5
:10173000806880937A0080917A00806480937A0038
:1017400080917A0084FFFCCF20917800309179005D
:1017500080E094E0821B930B90937A01809379014F
:1017600020917A002F7E20937A0020916F01309192
:101770007001280F391F6E9A293E33401CF076986D
:1017800081E00895769A80917A008F7780937A002D
:1017900080917C008E7F80937C0080917C008D7F87
:1017A00080937C0080917C00846080937C00809199
:1017B0007A00806880937A0080917A0080648093B8
:1017C0007A0080917A0084FFFCCF209178003091DC
:1017D000790080E094E0821B930B909372018093D8
:1017E000710180917A008F7E80937A0080917A00D7
:1017F0008F7780937A0080917C00816080937C0059
:1018000080917A00806880937A0080917A00806469
:1018100080937A0080917A0084FFFCCF2091780039
:101820003091790080E094E0821B930B90937401D7
:101830008093730180917A008F7E80937A008091EB
:101840007A008F7780937A0080917C008E7F8093DE
:101850007C0080917C00826080937C0080917A0083
:10186000806880937A0080917A00806480937A0007
:1018700080917A0084FFFCCF20917800309179002C
:1018800080E094E0821B930B909376018093750126
:1018900080917A008F7E80937A0080917A008F7792
:1018A00080937A0080917C00816080937C0080919D
:1018B0007A00806880937A0080917A0080648093B7
:1018C0007A0080917A0084FFFCCF209178003091DB
:1018D000790080E094E0821B930B909378018093D1
:1018E000770180917A008F7E80937A008FE691E075
:1018F0000E943D0B8639910534F48CE694E00E94F9
:10190000E61780E0089580916F01909170010E9428
:101910004E1888E694E00E94E61780917901909134
:101920007A010E944E1884E694E00E94E6178091A6
:101930007101909172010E944E1880E694E00E941D
:10194000E61780917301909174010E944E188CE506
:1019500094E00E94E61780917501909176010E94B3
:101960004E1888E594E00E94E617809177019091E7
:1019700078010E944E1886E594E00E94E61782E006
:10198000089580E885BF85BFECE7F0E080818F7720
:101990008083808180648083EAE7F0E080818160D9
:1019A0008083808182608083808184608083EEE791
:1019B000F0E080818160808380818260808380818B
:1019C0008061808380818062808380818064808365
:1019D00080818068808308958F929F92AF92BF929A
:1019E000CF92DF92EF92FF92CF93DF9380914001ED
:1019F000811104C010924A01109249010E94FA0A12
:101A0000882309F497C081E080934001A090710180
:101A1000B0907201809073019090740120917501D3
:101A2000309176012A0D3B1D8091770190917801CC
:101A3000880D991DC0914901D0914A0182179307E1
:101A4000E4F5B401882777FD8095982F0E94181C33
:101A50006B017C01B50168197909882777FD8095AC
:101A6000982F0E94181C23E333E343E35FE30E94B3
:101A7000CC1C4B015C01BE01882777FD8095982F17
:101A80000E94181C29E23CE54FE85DE30E94CC1C53
:101A90009B01AC01C501B4010E94151B9B01AC0167
:101AA000C701B6010E94151B0E94E51B70937401CB
:101AB0006093730189E394E03BC0B501882777FD0B
:101AC0008095982F0E94181C6B017C01B4016A1943
:101AD0007B09882777FD8095982F0E94181C23E3A7
:101AE00033E343E35FE30E94CC1C4B015C01BE0186
:101AF000882777FD8095982F0E94181C29E23CE5E5
:101B00004FE85DE30E94CC1C9B01AC01C501B40110
:101B10000E94141B9B01AC01C701B6010E94151B5A
:101B20000E94E51B70937201609371018BE194E058
:101B30000E94E617809171019091720120917301CA
:101B400030917401821B930B90934A018093490159
:101B5000DF91CF91FF90EF90DF90CF90BF90AF904B
:101B60009F908F9008958F929F92AF92BF92CF9245
:101B7000DF92EF92FF920F931F93CF93DF93A09189
:101B80007101B0917201E0917301F09174019D01B6
:101B90002E1B3F0B30934801209347016091750144
:101BA000709176014091770150917801EB01C41B4F
:101BB000D50BD0934601C0934501EA0FFB1F460F9A
:101BC000571F4E175F070CF09FC2121613060CF03A
:101BD00054C10E94E3030E94FA0A882321F0813055
:101BE00009F4C7C049C38091710190917201813994
:101BF00091400CF45BC08091730190917401803925
:101C000091400CF053C0C0914701D0914801BE01F2
:101C1000882777FD8095982F0E94181C26E636E6C7
:101C200046EE5EE30E94CC1C6B017C018091430177
:101C300090914401BE01681B790B882777FD809540
:101C4000982F0E94181C2AE037ED43E25DE30E94C2
:101C5000CC1C9B01AC01C701B6010E94141B0E9461
:101C6000EA1B70938D0060938C0080918C009091A2
:101C70008D0090938B0080938A002A9A2B988BE09A
:101C800094E00E94E61780918C0090918D000E9454
:101C90001A1886EF93E00E94E61780918A009091CF
:101CA0008B000E941A1884EF93E0E4C280918800B0
:101CB0009091890090938D0080938C0060918800B2
:101CC00070918900C0914701D091480180E090E077
:101CD0000E94161C6B017C01BE01882777FD809550
:101CE000982F0E94181C2DEC3CEC4CEC5EE30E94FB
:101CF000CC1C9B01AC01C701B6010E94141B6B01F7
:101D00007C018091430190914401BE01681B790BD5
:101D1000882777FD8095982F0E94181C2DEC3CECAD
:101D20004CEC5CE30E94CC1C9B01AC01C701B601EA
:101D30000E94151B0E94EA1B70938B0060938A001F
:101D40002A9A2B9A84EE93E00E94E61780918C00E9
:101D500090918D000E941A1880ED93E00E94E61782
:101D600080918A0090918B000E941A188EEC93E06B
:101D700081C2C0914701D0914801CC3B82E0D80795
:101D80000CF052C06CEB72E06C1B7D0B882777FD6A
:101D90008095982F0E94181C23E333E343E35FE30D
:101DA0000E94CC1C6B017C01809143019091440105
:101DB000BE01681B790B882777FD8095982F0E94BC
:101DC000181C29E23CE54FE85DE30E94CC1C9B0116
:101DD000AC01C701B6010E94151B0E94EA1B70935B
:101DE0008D0060938C0080918C0090918D00909379
:101DF0008B0080938A002A982B9A8DEB93E00E94A7
:101E0000E61780918C0090918D000E941A1889EA43
:101E100093E00E94E61780918A0090918B000E94C7
:101E20001A1887EA93E026C2809188009091890071
:101E300090938D0080938C00809188009091890010
:101E400090938B0080938A002A9A2B9A87E993E0DB
:101E50000E94E61780918C0090918D000E941A18C4
:101E600083E893E00E94E61780918A0090918B00AE
:101E70000E941A1881E893E0FDC10E94E3030E94CA
:101E8000FA0AC0914701D0914801882321F081309E
:101E900009F4BBC0F1C18091710190917201009170
:101EA000430110914401803991400CF053C080915E
:101EB000730190917401813991400CF44BC0BE01C3
:101EC000882777FD8095982F0E94181C26E636E615
:101ED00046EE5EEB0E94CC1C6B017C01BE01601BD8
:101EE000710B882777FD8095982F0E94181C2AE097
:101EF00037ED43E25DE30E94CC1C9B01AC01C701BE
:101F0000B6010E94151B0E94EA1B70938D0060931E
:101F10008C0080918C0090918D0090938B00809329
:101F20008A002A982B9A80E793E00E94E617809116
:101F30008C0090918D000E941A188CE593E00E940D
:101F4000E61780918A0090918B000E941A188AE50A
:101F500093E090C1609188007091890080E090E0EA
:101F60000E94161C6B017C01BE01882777FD8095BD
:101F7000982F0E94181C2DEC3CEC4CEC5EE30E9468
:101F8000CC1C9B01AC01C701B6010E94151B6B0163
:101F90007C01BE01601B710B882777FD8095982F0F
:101FA0000E94181C2DEC3CEC4CEC5CE30E94CC1C19
:101FB0009B01AC01C701B6010E94141B0E94EA1BE1
:101FC00070938D0060938C008091880090918900BF
:101FD00090938B0080938A002A9A2B9A8AE493E04C
:101FE0000E94E61780918C0090918D000E941A1833
:101FF00086E393E00E94E61780918A0090918B001F
:102000000E941A1884E393E035C1C5348DEFD807D8
:102010000CF451C0BE0164547D4F882777FD809534
:10202000982F0E94181C23E333E343E35FE30E94ED
:10203000CC1C6B017C018091430190914401BE0155
:10204000681B790B882777FD8095982F0E94181CB4
:1020500029E23CE54FE85DE30E94CC1C9B01AC010A
:10206000C701B6010E94141B0E94EA1B70938D00E9
:1020700060938C0080918C0090918D0090938B00E8
:1020800080938A002A9A2B9884E293E00E94E617B4
:1020900080918C0090918D000E941A188FE093E03F
:1020A0000E94E61780918A0090918B000E941A1876
:1020B0008DE093E0DFC0809188009091890090933B
:1020C0008D0080938C00809188009091890090937E
:1020D0008B0080938A002A9A2B9A8DEF92E00E94BF
:1020E000E61780918C0090918D000E941A1889EE5D
:1020F00092E00E94E61780918A0090918B000E94E6
:102100001A1887EE92E0B6C06E01EE24D7FCE09478
:10211000FE2C009141011091420160918800709164
:10212000890080E090E01C161D060CF052C00E9451
:10213000161C4B015C01C701B6010E94181C2DEC56
:102140003CEC4CEC5DE30E94CC1C9B01AC01C50156
:10215000B4010E94141B6B017C01BE01601B710B5A
:10216000882777FD8095982F0E94181C2AE037ED6C
:1021700043E25CE30E94CC1C9B01AC01C701B601A9
:102180000E94141B0E94EA1B70938D0060938C00C8
:1021900080918C0090918D0090938B0080938A00A9
:1021A0002A9A2B9887ED92E00E94E61780918C0086
:1021B00090918D000E941A1882EC92E00E94E6171E
:1021C00080918A0090918B000E941A1880EC92E016
:1021D00051C00E94161C4B015C01C701B6010E9450
:1021E000181C2DEC3CEC4CEC5DE30E94CC1C9B01DC
:1021F000AC01C501B4010E94151B6B017C01BE013D
:10220000601B710B882777FD8095982F0E94181C02
:102210002AE037ED43E25CE30E94CC1C9B01AC0159
:10222000C701B6010E94151B0E94EA1B70938D0026
:1022300060938C0080918C0090918D0090938B0026
:1022400080938A002A982B9A8FEA92E00E94E617E0
:1022500080918C0090918D000E941A188BE992E079
:102260000E94E61780918A0090918B000E941A18B4
:1022700089E992E00E94E617809147019091480118
:1022800090934401809343018091450190914601D0
:102290009093420180934101DF91CF911F910F9163
:1022A000FF90EF90DF90CF90BF90AF909F908F9076
:1022B0000895589A599A5A9A8CE08093B800E9E6A2
:1022C000F0E080818062808380818F7E8083EA9AC3
:1022D0007894089584E88093BC008091BC0087FFC7
:1022E000FCCF8091BB00089584E98093BC000895E1
:1022F00020E030E08091BC0087FD06C02F5F3F4F9B
:10230000293E83E03807B1F781E0283E334009F4E5
:1023100080E008958093BB0084E88093BC000E9415
:102320007811882321F08091B900887F089580E09A
:1023300008951F93CF93DF931F92CDB7DEB7182F69
:1023400084EA8093BC0069830E94781169818111BD
:1023500004C094E99093BC0014C0812F880F6623B9
:1023600031F08F5F0E948A11883451F404C00E94BA
:102370008A11803229F484E98093BC0080E001C096
:1023800081E00F90DF91CF911F910895CF93DF935C
:10239000C82FD62F60E00E949911882391F08D2FCD
:1023A0000E948A11882369F084E98093BC0061E06F
:1023B0008C2F0E949911882321F0DF91CF910C94EA
:1023C0006A1180E0DF91CF910895CF93DF93D62FEC
:1023D000C42F60E00E949911811102C080E00EC0FC
:1023E0008D2F0E948A118823C9F38C2F0E948A1195
:1023F0008823A1F384E98093BC0081E0DF91CF9131
:102400000895CF93DF9300D01F92CDB7DEB74B83F3
:102410006A8389830E94591194EA9093BC00898150
:102420006A814B819091BC0097FFFCCF90E590931F
:10243000BB0094E89093BC009091BC0097FFFCCF48
:102440009091B900987F903229F484E98093BC0080
:1024500080E029C091E09093BB0094E89093BC0089
:102460009091BC0097FFFCCF8093BB0084E88093E1
:10247000BC008091BC0087FFFCCF6093BB0084E868
:102480008093BC008091BC0087FFFCCF4093BB00D1
:1024900084E88093BC008091BC0087FFFCCF84E976
:1024A0008093BC0081E00F900F900F90DF91CF914F
:1024B000089524EA2093BC002091BC0027FFFCCFA4
:1024C00021E52093BB0024E82093BC002091BC00B0
:1024D00027FFFCCF2091B900287F2834A9F024ECF5
:1024E0002093BC002091BC0027FFFCCF2091BB00B3
:1024F00026130AC0FC0120E030E0772767FD7095C5
:102500006150710944EC0EC084E98093BC0080E006
:1025100008955091BC0057FFFCCF5091BB005193E0
:102520002F5F3F4F261737071CF44093BC00F1CFB5
:1025300044E84093BC004091BC0047FFFCCF409171
:10254000BB00FC01E20FF31F408384E98093BC00D1
:1025500081E00895F89494EA9093BC009091BC00B7
:1025600097FFFCCF90E59093BB0094E89093BC005C
:102570009091BC0097FFFCCF9091B900987F90326A
:1025800031F484E98093BC00789480E0089593E06E
:102590009093BB0094E89093BC009091BC0097FF8F
:1025A000FCCF8093BB0084E88093BC008091BC008A
:1025B00087FFFCCFFB01552747FD509524E8CF014D
:1025C000861B970B8417950754F481918093BB0069
:1025D0002093BC008091BC0087FFFCCFF0CF84E942
:1025E0008093BC00789481E008958091E80080FF9A
:1025F000FCCF089581E08093D70080EA8093D800D3
:1026000082E189BD09B400FEFDCF80E98093D80046
:102610001092E00010924E0110924B018CE08093DA
:10262000E2007894089580914E0108959FB7F89440
:1026300080914E01882339F083E08093E9008091F6
:10264000E80085FD03C09FBF8FEF08958091F100E2
:102650002091E80025FD03C02BE62093E8009FBFF2
:1026600008959FB7F89480914E01882331F083E05C
:102670008093E9008091F20001C080E09FBF08953F
:1026800080914E01882371F08FB7F89493E0909376
:10269000E9002BE69091E80095FF03C02093E80045
:1026A000F9CF8FBF089590914E01992371F09FB794
:1026B000F89424E02093E90020914C01222349F072
:1026C0002091E80025FD03C09FBF8FEF0895109271
:1026D0004C012091E400275E34E04091E80045FD84
:1026E00012C09FBF9091E400921304C081E08093D8
:1026F0004C01EBCF90914E01992339F39FB7F89499
:102700003093E900EACF8093F1008091E80085FDE5
:1027100003C08AE38093E80085E080934D019FBF6A
:1027200080E0089590914E019923D1F09FB7F894DD
:1027300024E02093E9002091E80025FD02C09FBF1E
:102740000FC08093F1008091E80085FD03C08AE30B
:102750008093E80085E080934D019FBF80E008955D
:102760008FEF0895EF92FF921F93CF93DF937C0139
:10277000CB0120914E01222371F0AFB7F89424E0F1
:102780002093E90020914C01222349F02091E80098
:1027900025FD03C0AFBF8FEF42C210924C01B4E0E1
:1027A000C0E4DAE315E0009709F437C22091E400B1
:1027B000275E3091E80035FD12C0AFBF3091E400D4
:1027C000321304C081E080934C01E5CF30914E017B
:1027D000332309F3AFB7F894B093E900EACF20911F
:1027E000F2004C2F421B242F30E08217930708F48D
:1027F000482F841B910950E04134510508F0FDC178
:10280000425A5F4FFA010C94861DF70120812093F4
:10281000F10097012F5F3F4F7901F701208120934D
:10282000F10097012F5F3F4F7901F701208120933D
:10283000F10097012F5F3F4F7901F701208120932D
:10284000F10097012F5F3F4F7901F701208120931D
:10285000F10097012F5F3F4F7901F701208120930D
:10286000F10097012F5F3F4F7901F70120812093FD
:10287000F10097012F5F3F4F7901F70120812093ED
:10288000F10097012F5F3F4F7901F70120812093DD
:10289000F10097012F5F3F4F7901F70120812093CD
:1028A000F10097012F5F3F4F7901F70120812093BD
:1028B000F10097012F5F3F4F7901F70120812093AD
:1028C000F10097012F5F3F4F7901F701208120939D
:1028D000F10097012F5F3F4F7901F701208120938D
:1028E000F10097012F5F3F4F7901F701208120937D
:1028F000F10097012F5F3F4F7901F701208120936D
:10290000F10097012F5F3F4F7901F701208120935C
:10291000F10097012F5F3F4F7901F701208120934C
:10292000F10097012F5F3F4F7901F701208120933C
:10293000F10097012F5F3F4F7901F701208120932C
:10294000F10097012F5F3F4F7901F701208120931C
:10295000F10097012F5F3F4F7901F701208120930C
:10296000F10097012F5F3F4F7901F70120812093FC
:10297000F10097012F5F3F4F7901F70120812093EC
:10298000F10097012F5F3F4F7901F70120812093DC
:10299000F10097012F5F3F4F7901F70120812093CC
:1029A000F10097012F5F3F4F7901F70120812093BC
:1029B000F10097012F5F3F4F7901F70120812093AC
:1029C000F10097012F5F3F4F7901F701208120939C
:1029D000F10097012F5F3F4F7901F701208120938C
:1029E000F10097012F5F3F4F7901F701208120937C
:1029F000F10097012F5F3F4F7901F701208120936C
:102A0000F10097012F5F3F4F7901F701208120935B
:102A1000F10097012F5F3F4F7901F701208120934B
:102A2000F10097012F5F3F4F7901F701208120933B
:102A3000F10097012F5F3F4F7901F701208120932B
:102A4000F10097012F5F3F4F7901F701208120931B
:102A5000F10097012F5F3F4F7901F701208120930B
:102A6000F10097012F5F3F4F7901F70120812093FB
:102A7000F10097012F5F3F4F7901F70120812093EB
:102A8000F10097012F5F3F4F7901F70120812093DB
:102A9000F10097012F5F3F4F7901F70120812093CB
:102AA000F10097012F5F3F4F7901F70120812093BB
:102AB000F10097012F5F3F4F7901F70120812093AB
:102AC000F10097012F5F3F4F7901F701208120939B
:102AD000F10097012F5F3F4F7901F701208120938B
:102AE000F10097012F5F3F4F7901F701208120937B
:102AF000F10097012F5F3F4F7901F701208120936B
:102B0000F10097012F5F3F4F7901F701208120935A
:102B1000F10097012F5F3F4F7901F701208120934A
:102B2000F10097012F5F3F4F7901F701208120933A
:102B3000F10097012F5F3F4F7901F701208120932A
:102B4000F10097012F5F3F4F7901F701208120931A
:102B5000F10097012F5F3F4F7901F701208120930A
:102B6000F10097012F5F3F4F7901F70120812093FA
:102B7000F10097012F5F3F4F7901F70120812093EA
:102B8000F10097012F5F3F4F7901F70120812093DA
:102B9000F10097012F5F3F4F7901F70120812093CA
:102BA000F10097012F5F3F4F7901F70120812093BA
:102BB000F10097012F5F3F4F7901F70120812093AA
:102BC000F10097012F5F3F4F7901F701208120939A
:102BD000F10097012F5F3F4F7901F701208120938A
:102BE000F10097012F5F3F4F7901F701208120937A
:102BF000F10097012F5F3F4F7901F701208120936A
:102C0000F10097012F5F3F4F79012091E80025FFE8
:102C1000D093E80010934D01C6CDAFBF80E0DF91A7
:102C2000CF911F91FF90EF9008958FB7F8949091F6
:102C30004D01992341F094E09093E9009AE3909339
:102C4000E80010924D018FBF089580910E01089504
:102C500080910F01089580911001089580914B019A
:102C600008959FB7F89420914E01222339F022E075
:102C70002093E9003091E80035FD03C09FBF8FEF3E
:102C8000089531EA3093F10030E23093F100109270
:102C9000F1001092F1001092F1001092F1002093D7
:102CA000F1001092F1008093F1001092F1008AE39C
:102CB0008093E8009FBF80E008951F920F920FB6A7
:102CC0000F9211248F939F938091E1001092E10065
:102CD00083FF11C01092E90091E09093EB001092F5
:102CE000EC0092E19093ED0098E09093F000109248
:102CF0004E0110924B0182FF13C080914E01882338
:102D000079F080914D01882359F0815080934D01D5
:102D1000811106C084E08093E9008AE38093E80093
:102D20009F918F910F900FBE0F901F9018951F923B
:102D30000F920FB60F921124EF92FF920F931F93F1
:102D40002F933F934F935F936F937F938F939F93B3
:102D5000AF93BF93EF93FF93CF93DF931F92CDB7C2
:102D6000DEB71092E9008091E80083FF14C19091D2
:102D7000F1008091F1003091F1002091F100E32EFB
:102D8000F12CF22A0091F1002091F10010E0122BB9
:102D90002091F1006091F10032EF3093E80086302D
:102DA00009F046C036E08DE794E0FC01459154916E
:102DB0004E155F0539F4FC01329645915491401748
:102DC000510721F00796315081F7E5C0FC01349698
:102DD00045915491FC013696849130E0362B2F3F7B
:102DE000310519F010F02FEF30E0281708F4822F8A
:102DF0003EEF9091E800292F2570D9F392FDCEC0C7
:102E0000982F813108F090E1FA01292F222331F027
:102E100064916093F10021503196F8CF490F511D14
:102E2000891B3093E8008111E4CF903111F3B6C0D3
:102E3000853051F48EEF8093E8000E94F5128E2DBC
:102E400080688093E300AAC0893059F5911180C051
:102E5000E0924E0110924B0110924D018EEF809343
:102E6000E80041E086E295E04093E9009C012F5F95
:102E70003F4FFC0154915093EB00552359F0F90159
:102E800024912093EC009C012D5F3F4F319684915B
:102E90008093ED004F5F453011F0C901E5CF8EE121
:102EA00075C0883051F4903809F052C00E94F51274
:102EB00080914E018093F10047C0813279F4913ABC
:102EC00009F046C00E94F512EAE0F1E0819180939A
:102ED000F10081E0E131F807C9F736C0803299F49A
:102EE0009132B1F58091E80082FFFCCFEAE0F1E099
:102EF0008091F100819381E0E131F807C9F78BEF10
:102F00008093E80021C0823241F4913209F043C03D
:102F1000E0924B010E94F51217C0811119C09983EC
:102F20000E94F5129981923851F40093E900809142
:102F3000EB0085FB882780F91092E90001C080E052
:102F40008093F1001092F1008EEF8093E80026C08C
:102F5000282F2D7F2130F9F49230E9F4EF28D9F4AD
:102F60000F779FEF900F9430B0F49EEF9093E800AE
:102F70000093E900833079F089E18093EB0081E0F0
:102F800090E0002E01C0880F0A94EAF78093EA00CF
:102F90001092EA0003C081E28093EB000F90DF9172
:102FA000CF91FF91EF91BF91AF919F918F917F91C1
:102FB0006F915F914F913F912F911F910F91FF90D2
:102FC000EF900F900FBE0F901F9018951F93CF9307
:102FD000DF93EC01FE011491112351F01A3019F422
:102FE0008DE00E945313812F0E9453132196F2CF3C
:102FF000DF91CF911F9108958A3010F490E301C0C2
:1030000097E3890F0C945313CF93C82F82958F7039
:103010000E94FC178C2F8F70CF910C94FC17CF93CC
:10302000C82F892F0E9404188C2FCF910C9404185C
:103030000C940418EF92FF920F931F93CF93DF939A
:10304000CDB7DEB727970FB6F894DEBF0FBECDBF62
:103050008E010F5F1F4F27E0F80111922A95E9F7C3
:103060004AE0B8010E948C1D7E01F8E0EF0EF11CD1
:10307000F80181918F0181110E9453130E151F05D4
:10308000B9F727960FB6F894DEBF0FBECDBFDF911C
:10309000CF911F910F91FF90EF900895EF92FF92C3
:1030A0000F931F93CF93DF9300D000D000D0CDB704
:1030B000DEB78E010F5F1F4F26E0F80111922A95AF
:1030C000E9F74AE0B8010E94C81D7E01F6E0EF0E64
:1030D000F11CF80181918F0181110E9453130E158B
:1030E0001F05B9F726960FB6F894DEBF0FBECDBF09
:1030F000DF91CF911F910F91FF90EF900895EF9284
:10310000FF920F931F93CF93DF93CDB7DEB72B972B
:103110000FB6F894DEBF0FBECDBF8E010F5F1F4FFD
:103120002BE0F80111922A95E9F72AE0A8010E9404
:10313000971D7E01FCE0EF0EF11CF80181918F01DB
:1031400081110E9453130E151F05B9F72B960FB668
:10315000F894DEBF0FBECDBFDF91CF911F910F91CD
:10316000FF90EF900895EF92FF920F931F93CF93EC
:10317000DF93CDB7DEB72B970FB6F894DEBF0FBE47
:10318000CDBF8E010F5F1F4F2BE0F80111922A95E2
:10319000E9F72AE0A8010E94A61D7E01FBE0EF0EE0
:1031A000F11CF80181918F0181110E9453130E15BA
:1031B0001F05B9F72B960FB6F894DEBF0FBECDBF33
:1031C000DF91CF911F910F91FF90EF90089520E034
:1031D00030E08091BC0087FD06C02F5F3F4F293E45
:1031E00083E03807B1F781E0283E334009F480E0FE
:1031F00008958093BB0084E88093BC000E94E71888
:10320000882319F08091B900887F0895CF93C82F43
:1032100084EA8093BC000E94E718882361F08C2F19
:10322000880F0E94F918803229F484E98093BC0049
:1032300080E001C081E0CF9108950E94591188E596
:103240000E940619811102C080E0089580E30E9467
:10325000F9188823C9F381E00E94F9188823A1F3A3
:1032600084E98093BC008FE39CE90197F1F700C0EB
:10327000000088E50E940619882331F380E00E944F
:10328000F918882309F380E00E94F9188823E1F2F5
:1032900080E00E94F9188823B9F280E00E94F918B2
:1032A000882391F280E00E94F918882369F280E077
:1032B0000E94F918882341F280E00E94F9188823BF
:1032C00019F280E90E94F918882309F4BDCF84E936
:1032D0008093BC008FE39CE90197F1F700C00000E8
:1032E00088E50E940619882309F4AECF87E00E9482
:1032F000F918882309F4A8CF80E00E94F9188823E0
:1033000009F4A2CF81E40E94F918882309F49CCF24
:1033100084E98093BC008FE39CE90197F1F700C03A
:10332000000088E50E940619882309F48DCF8AE100
:103330000E94F918882309F487CF80E40E94F918C5
:10334000882309F481CF80E00E94F918882309F4CA
:103350007BCF84E98093BC008FE39CE90197F1F770
:1033600000C0000088E50E940619882309F46CCF8C
:1033700083E30E94F918882309F466CF83E00E9452
:10338000F918882309F460CF84E98093BC008FE3A7
:103390009CE90197F1F700C0000088E50E9406193A
:1033A000882309F451CF80E30E94F918882309F497
:1033B0004BCF88E00E94F918882309F445CF84E9AF
:1033C0008093BC008FE39CE90197F1F700C00000F7
:1033D00081E00895CF93C82F84EA8093BC000E94B7
:1033E000E718882369F08C2F880F8F5F0E94F918E7
:1033F000883429F484E98093BC0080E001C081E036
:10340000CF910895EF92FF920F931F93CF93DF9385
:10341000CDB7DEB760970FB6F894DEBF0FBECDBF55
:103420007C018E010F5F1F4F80E1F80111928A9598
:10343000E9F788E50E940619811102C080E05EC0AC
:1034400086E30E94F9188823C9F384E98093BC00BD
:10345000F5E8FA95F1F7000088E50E94EA1988235B
:1034600069F3F8019E01205F3F4F94EC9093BC00FC
:103470008091BC0087FFFCCF8091BB008193E21755
:10348000F307A1F784E88093BC008091BC0087FF1C
:10349000FCCF8091BB00888B84E98093BC00DE0167
:1034A000149687016C91762F7073AD0142505109CB
:1034B000FA01808190E0F0E17F9F800D911D112441
:1034C000F80191838083762F707C4F5F5F4FFA0104
:1034D000808190E0F4E07F9F800D911D1124F80120
:1034E000938382836F70862F90E0958384831396F5
:1034F0000A5F1F4FA217B307A9F681E060960FB6C7
:10350000F894DEBF0FBECDBFDF91CF911F910F9119
:10351000FF90EF90089584E98093BC0008950E9485
:10352000B90380910801909109018130910579F0EA
:103530008230910509F459C00097B9F710928B00B9
:1035400010928A0010928D0010928C00EACF189B86
:1035500024C05F9A5E982FEF83EC99E02150804061
:103560009040E1F700C000005F985E9A2FEF83EC77
:1035700099E0215080409040E1F700C000005F9A40
:103580005E982FEF83EC99E0215080409040E1F766
:1035900000C000005F985E9A23C05F985E9A2FEF8C
:1035A00083EC99E0215080409040E1F700C000009A
:1035B0005F9A5E982FEF83EC99E021508040904015
:1035C000E1F700C000005F985E9A2FEF83EC99E06E
:1035D000215080409040E1F700C000005F9A5E9863
:1035E00010920901109208019CCF6A9A72980E9469
:1035F0004F0B813049F0823071F0811112C080E0B0
:1036000091E00E9478090DC0469A84E091E00E9402
:103610007809469806C0479A84E091E00E94B30D6D
:1036200047986A9A729A7DCF5058BB27AA270ED026
:1036300075C166D130F06BD120F031F49F3F11F4A9
:103640001EF45BC10EF4E095E7FB51C1E92F77D181
:1036500080F3BA17620773078407950718F071F4AF
:103660009EF58FC10EF4E0950B2EBA2FA02D0B0105
:10367000B90190010C01CA01A0011124FF27591BB7
:1036800099F0593F50F4503E68F11A16F040A22FBD
:10369000232F342F4427585FF3CF4695379527952E
:1036A000A795F0405395C9F77EF41F16BA0B620B2D
:1036B000730B840BBAF09150A1F0FF0FBB1F661F74
:1036C000771F881FC2F70EC0BA0F621F731F841FB7
:1036D00048F4879577956795B795F7959E3F08F0DD
:1036E000B3CF9395880F08F09927EE0F979587959C
:1036F0000895D9D008F481E008950CD00FC107D106
:1037000040F0FED030F021F45F3F19F0F0C05111CD
:1037100039C1F3C014D198F39923C9F35523B1F3F8
:10372000951B550BBB27AA2762177307840738F030
:103730009F5F5F4F220F331F441FAA1FA9F333D08F
:103740000E2E3AF0E0E830D091505040E695001C43
:10375000CAF729D0FE2F27D0660F771F881FBB1FFF
:10376000261737074807AB07B0E809F0BB0B802DD9
:10377000BF01FF2793585F4F2AF09E3F510568F025
:10378000B6C000C15F3FECF3983EDCF386957795B9
:103790006795B795F7959F5FC9F7880F911D969527
:1037A000879597F90895E1E0660F771F881FBB1F83
:1037B000621773078407BA0720F0621B730B840B30
:1037C000BA0BEE1F88F7E095089504D06894B11104
:1037D000D9C00895BCD088F09F5790F0B92F992791
:1037E000B751A0F0D1F0660F771F881F991F1AF00C
:1037F000BA95C9F712C0B13081F0C3D0B1E00895D5
:10380000C0C0672F782F8827B85F39F0B93FCCF355
:10381000869577956795B395D9F73EF49095809501
:10382000709561957F4F8F4F9F4F0895E89409C021
:1038300097FB3EF490958095709561957F4F8F4FE3
:103840009F4F9923A9F0F92F96E9BB279395F695F9
:10385000879577956795B795F111F8CFFAF4BB0F77
:1038600011F460FF1BC06F5F7F4F8F4F9F4F16C0DB
:10387000882311F096E911C0772321F09EE8872F65
:10388000762F05C0662371F096E8862F70E060E021
:103890002AF09A95660F771F881FDAF7880F96959A
:1038A000879597F90895990F0008550FAA0BE0E83E
:1038B000FEEF16161706E807F907C0F012161306F2
:1038C000E407F50798F0621B730B840B950B39F432
:1038D0000A2661F0232B242B252B21F408950A2698
:1038E00009F4A140A6958FEF811D811D089597F9D8
:1038F0009F6780E870E060E008959FEF80EC089596
:1039000000240A94161617061806090608950024BE
:103910000A9412161306140605060895092E039438
:10392000000C11F4882352F0BB0F40F4BF2B11F4AC
:1039300060FF04C06F5F7F4F8F4F9F4F089557FD0B
:103940009058440F551F59F05F3F71F04795880F0D
:1039500097FB991F61F09F3F79F0879508951216A4
:1039600013061406551FF2CF4695F1DF08C0161650
:1039700017061806991FF1CF869571056105089401
:103980000895E894BB2766277727CB0197F9089518
:103990008ADF08F48FEF08950BD0C0CFB1DF28F095
:1039A000B6DF18F0952309F0A2CFA7CF1124EACFF4
:1039B000C6DFA0F3959FD1F3950F50E0551F629F8E
:1039C000F001729FBB27F00DB11D639FAA27F00D78
:1039D000B11DAA1F649F6627B00DA11D661F829F9F
:1039E0002227B00DA11D621F739FB00DA11D621F84
:1039F000839FA00D611D221F749F3327A00D611DA1
:103A0000231F849F600D211D822F762F6A2F112482
:103A10009F5750408AF0E1F088234AF0EE0FFF1FD5
:103A2000BB1F661F771F881F91505040A9F79E3F0C
:103A3000510570F05CCFA6CF5F3FECF3983EDCF30E
:103A4000869577956795B795F795E7959F5FC1F749
:103A5000FE2B880F911D9695879597F9089511F47F
:103A60000EF44BCF3EC073DFD0F39923D9F3CEF3DE
:103A70009F57550B87FF43D00024A0E640EA9001F2
:103A800080585695979528F4805C660F771F881F9D
:103A900020F026173707480730F4621B730B840B9E
:103AA000202931294A2BA6951794079420253125E2
:103AB0004A2758F7660F771F881F20F02617370709
:103AC000480730F4620B730B840B200D311D411D30
:103AD000A09581F7B901842F9158880F9695879505
:103AE00008959F3F31F0915020F487957795679521
:103AF000B795880F911D9695879597F908959150E0
:103B00005040660F771F881FD2F70895EE0FFF1FF2
:103B10000590F491E02D0994BB274A3031F49923A4
:103B200022F4BDE2909581959F4F0C94C91DBB274F
:103B30002A3051F4992342F4BDE290958095709516
:103B400061957F4F8F4F9F4F0C94A71DBB27FA01A4
:103B5000A62F6217710581059105330B30FB66F0C6
:103B6000AA27660F771F881F991FAA1FA21710F098
:103B7000A21B63953850A9F7A05DAA3308F0A95D90
:103B8000A19336F7B111B1931082CA010C94E21DD2
:103B9000BB27FB015527AA27880F991FAA1FA41727
:103BA00010F0A41B83955051B9F7A05DAA3308F01B
:103BB000A95DA193009779F7B111B1931192CB014F
:103BC0000C94E21DDC01FC01672F71917723E1F772
:103BD000329704C07C916D9370836291AE17BF07DA
:083BE000C8F30895F894FFCF2B
:103BE80078000A008EFEF6FF020000E100000000E7
:023BF8000800C3
:00000001FF
