:100000000C94C9030C94E6030C94E6030C948F251E
:100010000C94E6030C94E6030C94E6030C94E603BC
:100020000C94E6030C943E260C942F210C94692129
:100030000C94E6030C94E6030C94E6030C94E6039C
:100040000C94E6030C94E6030C94E6030C94E6038C
:100050000C94E6030C94E6030C94E6030C94E6037C
:100060000C94E6030C94E6030C94E6030C94E6036C
:100070000C94E6030C94E6030C94E6030C94E6035C
:100080000C94E6030C94E6030C94E6030C94E6034C
:100090000C94E6030C94E6030C94E6030C94E6033C
:1000A0000C94E6030C94E6030C94E603D720CF20CF
:1000B000C720BF20B720AF20A7209F2097208F20E8
:1000C00087207F2077206F2067205F2057204F20D8
:1000D00047203F2037202F2027201F2017200F20C8
:1000E0000720FF1FF71FEF1FE71FDF1FD71FCF1FBF
:1000F000C71FBF1FB71FAF1FA71F9F1F971F8F1FB0
:10010000871F7F1F771F6F1F671F5F1F571F4F1F9F
:10011000471F3F1F371F2F1F271F1F1F171F0F1F8F
:10012000071FFF1EF71EEF1EE71EDF1ED71EB92595
:10013000C025CB25CE25D125DF25D425D7250A00FE
:100140002020202020204F435231423A20202000FE
:100150004F435231433A202020004C65667420748E
:1001600075726E2020200052696768742074757261
:100170006E202020000A002020202020204F435203
:1001800031423A202020004F435231433A20202070
:10019000004C656674207475726E202020005269D0
:1001A000676874207475726E202020000A00202079
:1001B00020636F735F6F72695F676F616C3A2020B5
:1001C0000020202073696E5F6F72695F676F616CDA
:1001D0003A2020000A00202020636F735F726F6254
:1001E0006F5F676F616C3A20200020202073696E7A
:1001F0005F726F626F5F676F616C3A2020000A0068
:10020000202020636F735F74686574615F726F6232
:100210006F3A20200020202073696E5F7468657437
:10022000615F726F626F3A2020000A0020202079FF
:100230005F706F736974696F6E3A202000785F7029
:100240006F736974696F6E3A2020000A00202020C5
:10025000676F616C5B315D3A202000676F616C5B9A
:10026000305D3A2020000A006D6178206469737463
:10027000616E6365206F7574206F662072616E67B2
:1002800065000A000A002020205269676874204631
:100290006F72776172643A2020004C656674204268
:1002A00061636B776172643A2020000A002020208D
:1002B0005269676874204261636B776172643A20A7
:1002C00020004C65667420466F72776172643A2034
:1002D00020000A00202020526967687420466F724F
:1002E000776172643A2020004C65667420466F7214
:1002F000776172643A2020000A002020205269674A
:10030000687420466F72776172643A2020004C65F1
:10031000667420466F72776172643A2020000A008A
:10032000202020526967687420466F72776172647A
:100330003A2020004C65667420466F7277617264C3
:100340003A2020000A002020205269676874204665
:100350006F72776172643A2020004C6566742042A7
:1003600061636B776172643A2020000A00202020CC
:10037000526967687420466F72776172643A202010
:10038000004C65667420466F72776172643A202073
:10039000004361736520333A200A000A00202020C0
:1003A000526967687420466F72776172643A2020E0
:1003B000004C65667420466F72776172643A202043
:1003C000000A00202020526967687420466F727707
:1003D0006172643A2020004C65667420466F727723
:1003E0006172643A2020000A002020205269676868
:1003F0007420466F72776172643A2020004C656603
:100400007420466F72776172643A2020000A0020DF
:1004100020205269676874204261636B776172645F
:100420003A2020004C65667420466F7277617264D2
:100430003A2020000A002020205269676874204674
:100440006F72776172643A2020004C6566742046B2
:100450006F72776172643A202000436173652032C5
:100460003A200A000A00202020526967687420465A
:100470006F72776172643A2020004C656674204682
:100480006F72776172643A2020000A0020202052A7
:100490006967687420466F72776172643A20200041
:1004A0004C65667420466F72776172643A20200052
:1004B0000A00202020526967687420466F727761B5
:1004C00072643A2020004C65667420466F72776132
:1004D00072643A2020000A00202020526967687464
:1004E00020466F72776172643A2020004C65667412
:1004F00020466F72776172643A2020000A00202043
:1005000020526967687420466F72776172643A207E
:1005100020004C65667420466F72776172643A20E1
:1005200020000A00202020526967687420466F72FC
:10053000776172643A2020004C65667420466F72C1
:10054000776172643A2020004361736520313A205C
:100550000A000A00202020526967687420466F72E2
:10056000776172643A2020004C65667420466F7291
:10057000776172643A2020000A00202020526967C7
:10058000687420466F72776172643A2020004C656F
:100590006674204261636B776172643A2020000ABE
:1005A00000202020526967687420466F727761725C
:1005B000643A2020004C65667420466F7277617241
:1005C000643A2020000A00202020526967687420C5
:1005D0004261636B776172643A2020004C656674F7
:1005E00020466F72776172643A2020004361736520
:1005F00020303A200A000A002020205269676874DF
:1006000020466F72776172643A2020004C656674F0
:10061000204261636B776172643A2020000A0020F7
:1006200020205269676874204261636B776172644D
:100630003A2020004C65667420466F7277617264C0
:100640003A2020000A002020200020202000202026
:10065000200020202000202020004E6F20656666AC
:100660006563746976652049520A000A00202020DB
:1006700000202020002020200020202000202020FA
:10068000004E6F2065666665637469766520495221
:100690000A000001000029071200020000E60643DC
:1006A00000030000E2060401030904CE061202035F
:1006B0000904C6060603030904BC0608080334003F
:1006C00031003000000006034D003200000012032C
:1006D0004A002E0020004600690065006E0065009B
:1006E00000000403090409024300020100C03209AA
:1006F000040000010202010005240010010524018C
:1007000001010424020605240600010705820310E6
:10071000004009040100020A00000007050302402E
:1007200000000705840240000012010002020000E0
:1007300010C0167A040001010203010001C1120178
:10074000803601813647616D65206F7665720A00DB
:1007500048616C6674696D650A0050617573650A5D
:1007600000476F616C20420A00476F616C20520A9B
:1007700000506C6179200A00436F6D6D6F6E2054DC
:100780006573743A20666C617368204C4544200A96
:10079000000011241FBECFEFDAE0DEBFCDBF11E0B5
:1007A000A0E0B1E0E2E4F4E502C005900D92A431CE
:1007B000B107D9F721E0A4E1B1E001C01D92A5384D
:1007C000B207E1F70E94A2260C941F2A0C940000A5
:1007D0002F923F924F925F926F927F928F929F9251
:1007E000AF92BF92CF92DF92EF92FF920F931F933F
:1007F000CF93DF93CDB7DEB7E2970FB6F894DEBFA5
:100800000FBECDBF9EA38DA3CDB6DEB6D8AACFA610
:100810008CE191E00E94D424ECE1F1E0A12CB12C18
:10082000208131812F3F43E03407C9F082819381D9
:100830008F3F53E0950799F0D501AA0FBB1FCC2439
:10084000C394D12CCC0EDD1EAC0DBD1D19963C936E
:100850002E9318978D939C932FEFA21AB20A369677
:1008600031E0E433F307E1F643E0A416B1040CF4FD
:1008700024C5CDB6DEB6DAA6C9A695012150310948
:100880003AA329A32A9DC0012B9D900D3A9D900D5E
:100890001124959587959C01220F331F4DB75EB7A4
:1008A000421B530B0FB6F8945EBF0FBE4DBF2DB762
:1008B0003EB72F5F3F4F38A72FA3880F991F880F90
:1008C000991F481B590B0FB6F8945EBF0FBE4DBF62
:1008D0008DB79EB701963C018E01075F1F4FBE0189
:1008E0006F5F7F4F212C312C1A8E198EA98DBA8DF6
:1008F0001196BA8BA98BF101EE0FFF1FEE0FFF1FB0
:10090000E60DF71DFAABE9AB6101CC0CDD1C2FA1A4
:1009100038A52C0D3D1D3E8F2D8F7D01412C512C76
:10092000EA14FB040CF080C0E98DFA8DA9A9BAA9DC
:100930001196FC93EE931396FC92EE921297D801C7
:100940008D919C91F801E40DF51D22813381821B6C
:10095000930BFB0120813181E40DF51D4281538110
:10096000241B350B229FA001239F500D500D1124F5
:10097000889F9001899F300D300D1124420F531F25
:10098000ED8DFE8DE40DF51D518340839F01E9A996
:10099000FAA9410181149104B9F1D9010D90BC91DA
:1009A000A02DBE8BAD8BB1E08B1A9108D9015E9161
:1009B0004E91CD0134979D01CD88DE884C155D05A3
:1009C0001CF5C080D180DCA6CBA6A281B381BEA7D6
:1009D000ADA7C480D580D182C082C680D780D382A3
:1009E000C282CD88DE88DC01CD92DC92ABA5BCA5AD
:1009F000B583A483CDA4DEA4D782C682DC0113967E
:100A00005C934E931297C6CF2FEF221A320A3FEF14
:100A1000E31AF30A49A95AA94C5F5F4F5AAB49AB95
:100A200052E0450E511C7CCF0E5F1F4F6E5F7F4F13
:100A300089899A89A9A1BAA18A179B071CF49A8F60
:100A4000898F54CF82E892E00E94B822EFA1F8A5E6
:100A500000811181013EFEE21F0774F088E692E0FA
:100A60000E94B822B801882777FD8095982F0E94B0
:100A7000852386E692E018C4D3018D909C9011974F
:100A800014966D917C91159712968D919C91139768
:100A90000134BFE11B07B4F19401220F331F861606
:100AA000970631F0F3014681578184169506A9F423
:100AB000E1E0F0E0EC0FFD1FE20FF31FE084F184B2
:100AC00000811181FC01EE0FFF1FCC24C394D12CB7
:100AD000CC0EDD1EEC0DFD1D10C0FC01EE0FFF1F46
:100AE00041E050E04C0F5D1FE40FF51FE084F184FE
:100AF00000811181FA01E20FF31FC084D1842080AC
:100B0000318088C1D3011696AD90BC9017970137FC
:100B100017410CF4BDC0880E991EF401E60FF71FB3
:100B2000EA0DFB1D3397EE0FFF1FCC24C394D12C8D
:100B3000CC0EDD1EEC0DFD1DE084F18400811181E1
:100B4000D30118962D913C9119971A964D915C916D
:100B50001B97820E931E840E951EB3E08B1A91088C
:100B6000A60EB71EA20EB31EA40EB51EE3E0AE1A6B
:100B7000B108B701882777FD8095982F0E944528F6
:100B80002B013C01880C991C8C0C9D1CD4011896DF
:100B90006D917C9119976E197F0980E090E00E9419
:100BA000432821EA37E643EF5EE30E94F928698B88
:100BB0007A8B8B8B9C8BAA0CBB1CAC0CBD1CF501DF
:100BC000608571856E197F0980E090E00E9443285E
:100BD00020E33CE446E05FE30E94F9289B01AC017E
:100BE00069897A898B899C890E94422727E634E4A7
:100BF0004DE450E40E94F9289B01AC01C301B2010D
:100C00000E9442270E9412286B01B801882777FDB5
:100C10008095982F0E9445282B013C01D4016D91AD
:100C20007C91601B710B80E090E00E94432821EAD8
:100C300037E643EF5EE30E94F928698B7A8B8B8B52
:100C40009C8BF50160817181601B710B80E090E0ED
:100C50000E94432820E33CE446E05FE30E94F92839
:100C60009B01AC0169897A898B899C890E94422702
:100C700027E634E44DE450E40E94F9289B01AC01DE
:100C8000C301B2010E9442270E9412281B01C2C068
:100C9000D30118964D915C9119971A962D913C911C
:100CA0001B97FB01EA0DFB1DE40FF51FE20FF31F7D
:100CB0003397EE0FFF1FCC24C394D12CCC0EDD1E36
:100CC000EC0DFD1DC084D18420803180880E991EDA
:100CD0008401060F171F0A0D1B1D03501109840EF6
:100CE000951E820E931E23E0821A9108B601882772
:100CF00077FD8095982F0E9445282B013C01880C98
:100D0000991C41E050E04C0F5D1F840E951ED401EC
:100D100018966D917C9119976C197D0980E090E08F
:100D20000E94432821EA37E643EF5EE30E94F92858
:100D3000698B7A8B8B8B9C8B000F111FE1E0F0E0AD
:100D4000EC0FFD1F0E0F1F1FD80118966D917C919F
:100D500019976C197D0980E090E00E94432820E3F8
:100D60003CE446E05FE30E94F9289B01AC016989FD
:100D70007A898B899C890E94422727EE3BEF49EBB9
:100D80005FE30E94F9289B01AC01C301B2010E94FC
:100D900042270E9412287B01B101882777FD8095A8
:100DA000982F0E9445282B013C01F401608171813C
:100DB0006219730980E090E00E94432821EA37E637
:100DC00043EF5EE30E94F9284B015C01D8016D916D
:100DD0007C916219730980E090E00E94432820E32F
:100DE0003CE446E05FE30E94F9289B01AC01C501A9
:100DF000B4010E94422727EE3BEF49EB5FE30E94DC
:100E0000F9289B01AC01C301B2010E9442270E9454
:100E100012288B0136016E187F082101401A510AF1
:100E2000449CB001459C700D700D1124669CC0015E
:100E3000679C900D900D1124680F791F882777FD0E
:100E40008095982F0E9445280E9460294B015C01E3
:100E5000B201882777FD8095982F0E944528A5012B
:100E600094010E94AA27698B7A8B8B8B9C8B609351
:100E70006501709366018093670190936801B301E7
:100E8000882777FD8095982F0E944528A501940119
:100E90000E94AA27698F7A8F8B8F9C8F60936D0138
:100EA00070936E0180936F019093700180E094E0E5
:100EB0008E199F098C199D0997FD0196BC017595A6
:100EC0006795882777FD8095982F0E9445284B01CC
:100ED0005C0180E093E0801B910B8219930997FDE0
:100EE0000196BC0175956795882777FD8095982FA9
:100EF0000E9445286B017C0129893A894B895C89CC
:100F0000C501B4010E94F9282B013C01298D3A8DBD
:100F10004B8D5C8DC701B6010E94F9289B01AC0185
:100F2000C301B2010E9441276D8F7E8F8F8F98A3DE
:100F3000609314017093150180931601909317012B
:100F4000298D3A8D4B8D5C8DC501B4010E94F92825
:100F50004B015C0129893A894B895C89C701B6013B
:100F60000E94F9289B01AC01C501B4010E944227EF
:100F70002B013C01609318017093190180931A01B1
:100F800090931B01EDA1FEA160817181882777FDFF
:100F90008095982F0E94452869A37AA38BA39CA3D0
:100FA0009B01AC016D8D7E8D8F8D98A10E94412794
:100FB0004B015C01ADA1BEA112966D917C9113977E
:100FC000882777FD8095982F0E9445286D8B7E8B12
:100FD0008F8B988F9B01AC01C301B2010E94412706
:100FE0006B017C01A5019401C501B4010E94F9289F
:100FF0004B015C01A7019601C701B6010E94F928C7
:101000009B01AC01C501B4010E9442270E946029E6
:101010006B017C016093590170935A0180935B01CD
:1010200090935C012D8D3E8D4F8D58A169A17AA1C1
:101030008BA19CA10E944127A70196010E94AA278B
:101040004B015C01609355017093560180935701E9
:1010500090935801A30192016D897E898F89988DA3
:101060000E944127A70196010E94AA276B017C01DB
:101070006093690170936A0180936B0190936C0196
:10108000A5019401698D7A8D8B8D9C8D0E94F92824
:101090002B013C01A701960169897A898B899C897A
:1010A0000E94F9289B01AC01C301B2010E944127B3
:1010B0006093610170936201809363019093640176
:1010C000A501940169897A898B899C890E94F928F4
:1010D0004B015C01A7019601698D7A8D8B8D9C8DEA
:1010E0000E94F9289B01AC01C501B4010E9442276E
:1010F00060935D0170935E0180935F019093600146
:101100008BE592E00E94B822EDA1FEA18081918141
:101110000E94EC228DE492E00E94B822ADA1BEA113
:1011200012968D919C9113970E94EC228BE492E091
:101130000E94B8228DE392E00E94B82260911401CF
:101140007091150180911601909117010E9412284B
:10115000CB010E94EC228CE292E00E94B8226091C6
:1011600018017091190180911A0190911B010E9440
:101170001228CB010E94EC228AE292E00E94B8225F
:1011800085E192E00E94B82220E030E44CE156E490
:1011900060916D0170916E0180916F01909170016D
:1011A0000E94F9280E941228CB010E94EC2280E0C4
:1011B00092E00E94B82220E030E44CE156E46091D5
:1011C00065017091660180916701909168010E94AC
:1011D000F9280E941228CB010E94EC228EEF91E0A8
:1011E0000E94B8228AEE91E00E94B82220E030E40A
:1011F0004CE156E46091690170916A0180916B0144
:1012000090916C010E94F9280E941228CB010E9443
:10121000EC2286ED91E00E94B82220E030E44CE11F
:1012200056E460915501709156018091570190915B
:1012300058010E94F9280E941228CB010E94EC223A
:1012400084ED91E00E94B82281EC91E00E94B822E6
:1012500020E030E44CE156E460916101709162015C
:1012600080916301909164010E94F9280E941228E4
:10127000CB010E94EC228EEA91E00E94B82220E08D
:1012800030E44CE156E460915D0170915E01809123
:101290005F01909160010E94F9280E941228CB0101
:1012A0000E94EC228CEA91E00E94B822C9A4DAA440
:1012B0000FB6F894DEBE0FBECDBECFA4D8A80FB631
:1012C000F894DEBE0FBECDBEE2960FB6F894DEBF38
:1012D0000FBECDBFDF91CF911F910F91FF90EF9087
:1012E000DF90CF90BF90AF909F908F907F906F9046
:1012F0005F904F903F902F9008958F929F92AF9262
:10130000BF92CF92DF92EF92FF920E94E80320E01B
:1013100030E040E251E46091590170915A018091AE
:101320005B0190915C010E94A62787FF09C0109283
:101330008D0010928C0010928B0010928A0021C1B7
:10134000C0906101D0906201E0906301F09064016F
:1013500020E030E0A901C701B6010E94A62720E0E5
:1013600030E0A90187FF86C060915D0170915E0148
:1013700080915F01909160010E94A62787FD0AC0BD
:1013800022EA35E446E35FEBC701B6010E94A627D7
:1013900087FF2BC0609188007091890080E090E009
:1013A0000E9443282DEC3CEC4CE45FE30E94F928BA
:1013B0000E94172870938D0060938C0060918800C4
:1013C0007091890080E090E00E9443282DEC3CEC75
:1013D0004CE45FE30E94F9280E94172870938B0069
:1013E00060938A002A9A2B9842C08091880090913D
:1013F000890090938D0080938C006091880070919B
:10140000890080E090E00E9443284B015C0120E0CD
:1014100030E048E453E4C701B6010E94F9289B017B
:10142000AC01C501B4010E9442274B015C0120912F
:1014300038013091390140913A0150913B01C70187
:10144000B6010E94412720E030E048E451E40E94C8
:10145000F9289B01AC01C501B4010E9442270E94FA
:10146000172870938B0060938A002A9A2B9A8EE932
:1014700091E085C060915D0170915E0180915F0196
:10148000909160010E94A62787FD0AC022EA35E4F8
:1014900046E35FE3C701B6010E94F52818165CF524
:1014A000609188007091890080E090E00E9443285C
:1014B0002DEC3CEC4CE45FE30E94F9280E941728D5
:1014C00070938B0060938A0060918800709189000E
:1014D00080E090E00E9443282DEC3CEC4CE45FE37C
:1014E0000E94F9280E94172870938D0060938C0049
:1014F0002B982A9A42C080918800909189009093FD
:101500008B0080938A00609188007091890080E050
:1015100090E00E9443284B015C0120E030E048E469
:1015200053E4C701B6010E94F9289B01AC01C50133
:10153000B4010E9441274B015C0120913801309198
:10154000390140913A0150913B01C701B6010E9417
:10155000412720E030E048E451E40E94F9289B0153
:10156000AC01C501B4010E9441270E941728709365
:101570008D0060938C002A9A2B9A81E991E00E9459
:10158000B8228091610190916201A0916301B091B4
:1015900064018093380190933901A0933A01B0938C
:1015A0003B0187E891E00E94B82280918C009091E5
:1015B0008D000E94EC2287E791E00E94B822809182
:1015C0008A0090918B000E94EC2285E791E0FF90C9
:1015D000EF90DF90CF90BF90AF909F908F900C9442
:1015E000B8228F929F92AF92BF92CF92DF92EF92EA
:1015F000FF928090550190905601A0905701B090B5
:101600005801209165013091660140916701509128
:101610006801C501B4010E94F9282DEC3CEC4CE4B2
:101620005EE30E94A62787FF2BC0C0901801D090D0
:101630001901E0901A01F0901B0120E030E048E42D
:1016400052E4C701B6010E94A62787FF0AC020E026
:1016500030E048E452ECC701B6010E94F5281816A4
:101660008CF0A5019401C701B6010E94F92820E081
:1016700030E0A9010E94F528181634F482E005C074
:1016800080E003C081E001C083E0FF90EF90DF9035
:10169000CF90BF90AF909F908F9008958F929F9220
:1016A000AF92BF92CF92DF92EF92FF92CF93DF93F0
:1016B0000E94E803C0906101D0906201E090630154
:1016C000F090640120E030E0A901C701B6010E945A
:1016D000A62720E030E0A90187FFBCC060915D0132
:1016E00070915E0180915F01909160010E94A62738
:1016F00087FD0AC022EA35E446E35FEBC701B60185
:101700000E94A62787FF2BC06091880070918900F6
:1017100080E090E00E9443282DEC3CEC4CE45FE339
:101720000E94F9280E94172870938D0060938C0006
:10173000609188007091890080E090E00E944328C9
:101740002DEC3CEC4CE45FE30E94F9280E94172842
:1017500070938B0060938A002A9A2B9878C08090AF
:10176000590190905A01A0905B01B0905C0120E07B
:1017700030E048E452E4C501B4010E94F52818168F
:101780006CF4809188009091890090938D008093F3
:101790008C00609188007091890023C0C0918800FE
:1017A000D09189002FE632E143E85CE3C501B40142
:1017B0000E94F9284B015C01BE0180E090E00E948C
:1017C00043289B01AC01C501B4010E94F9280E9485
:1017D000172870938D0060938C0060918C0070913D
:1017E0008D0080E090E00E9443284B015C0120E0E6
:1017F00030E048E453E4C701B6010E94F9289B0198
:10180000AC01C501B4010E9442274B015C0120914B
:101810003401309135014091360150913701C701B3
:10182000B6010E94412720E030E048E451E40E94E4
:10183000F9289B01AC01C501B4010E9442270E9416
:10184000172870938B0060938A002A9A2B9A87E658
:1018500091E0E9C060915D0170915E0180915F014E
:10186000909160010E94A62787FD0AC022EA35E414
:1018700046E35FE3C701B6010E94F52818165CF540
:10188000609188007091890080E090E00E94432878
:101890002DEC3CEC4CE45FE30E94F9280E941728F1
:1018A00070938B0060938A0060918800709189002A
:1018B00080E090E00E9443282DEC3CEC4CE45FE398
:1018C0000E94F9280E94172870938D0060938C0065
:1018D0002B982A9AA6C08090590190905A01A09006
:1018E0005B01B0905C0120E030E048E452E4C501C7
:1018F000B4010E94F5281816DCF5809188009091BB
:10190000890090938B0080938A0060918800709189
:10191000890080E090E00E9443284B015C0120E0B8
:1019200030E048E453E4C701B6010E94F9289B0166
:10193000AC01C501B4010E9441274B015C0120911B
:101940003401309135014091360150913701C70182
:10195000B6010E94412720E030E048E451E40E94B3
:10196000F9289B01AC01C501B4010E94412751C077
:10197000C0918800D09189002AE037ED43EA5CE30A
:10198000C501B4010E94F9284B015C01BE0180E051
:1019900090E00E9443289B01AC01C501B4010E9464
:1019A000F9280E94172870938B0060938A00609139
:1019B0008A0070918B0080E090E00E9443284B01E8
:1019C0005C0120E030E048E453E4C701B6010E9426
:1019D000F9289B01AC01C501B4010E9442274B01CB
:1019E0005C012091340130913501409136015091D4
:1019F0003701C701B6010E94412720E030E048E4EA
:101A000051E40E94F9289B01AC01C501B4010E9478
:101A100042270E94172870938D0060938C002A9AA9
:101A20002B9A8AE591E00E94B82280916101909101
:101A30006201A0916301B09164018093340190939D
:101A40003501A0933601B093370180E591E00E9403
:101A5000B82280918C0090918D000E94EC2280E44D
:101A600091E00E94B82280918A0090918B000E94A0
:101A7000EC228EE391E00E94B822C1E020E030E049
:101A800048E452E46091590170915A0180915B01E0
:101A900090915C010E94F52818160CF0C0E081E0DE
:101AA0008C27DF91CF91FF90EF90DF90CF90BF9088
:101AB000AF909F908F900895FC01329624E030E023
:101AC00080E090E041915191841795070CF4CA0190
:101AD0002150310921153105A9F7089580917A0027
:101AE0008F7780937A0080917C008B7F80937C003D
:101AF00080917C008D7F80937C0080917C008E7F24
:101B000080937C0080917A00806880937A00809135
:101B10007A00806480937A0080917A0084FFFCCF01
:101B2000209178003091790080E094E0821B930B43
:101B3000909374018093730180917A008F7E8093DB
:101B40007A0080917A008F7780937A0080917C0070
:101B50008B7F80937C0080917C008D7F80937C00C4
:101B600080917C00816080937C0080917A00806805
:101B700080937A0080917A00806480937A008091CB
:101B80007A0084FFFCCF209178003091790080E0CA
:101B900094E0821B930B90937E0180937D012091B2
:101BA0007A002F7E20937A00209173013091740186
:101BB000280F391F6E9A293E33401CF0769881E039
:101BC0000895769A80917A008F7780937A00809139
:101BD0007C008E7F80937C0080917C008D7F809341
:101BE0007C0080917C00846080937C0080917A00EE
:101BF000806880937A0080917A00806480937A0074
:101C000080917A0084FFFCCF209178003091790098
:101C100080E094E0821B930B909376018093750192
:101C200080917A008F7E80937A0080917A008F77FE
:101C300080937A0080917C00816080937C00809109
:101C40007A00806880937A0080917A008064809323
:101C50007A0080917A0084FFFCCF20917800309147
:101C6000790080E094E0821B930B9093780180933D
:101C7000770180917A008F7E80937A0080917A003C
:101C80008F7780937A0080917C008E7F80937C0098
:101C900080917C00826080937C0080917A008068D3
:101CA00080937A0080917A00806480937A0080919A
:101CB0007A0084FFFCCF209178003091790080E099
:101CC00094E0821B930B90937A0180937901809129
:101CD0007A008F7E80937A0080917A008F7780934C
:101CE0007A0080917C00816080937C0080917A00F2
:101CF000806880937A0080917A00806480937A0073
:101D000080917A0084FFFCCF209178003091790097
:101D100080E094E0821B930B90937C0180937B0185
:101D200080917A008F7E80937A0083E791E00E9411
:101D30005C0D8639910534F481E896E00E94B82262
:101D400080E0089580917301909174010E94202396
:101D50008DE796E00E94B82280917D0190917E01EE
:101D60000E94202389E796E00E94B82280917501A5
:101D7000909176010E94202385E796E00E94B82288
:101D800080917701909178010E94202381E796E06D
:101D90000E94B8228091790190917A010E942023BB
:101DA0008DE696E00E94B82280917B0190917C01A3
:101DB0000E9420238BE696E00E94B82282E00895DC
:101DC00080917A008F7780937A0080917C008B7F5E
:101DD00080937C0080917C008D7F80937C0080913B
:101DE0007C008E7F80937C0080917A008068809355
:101DF0007A0080917A00806480937A0080917A00E2
:101E000084FFFCCF209178003091790080E094E04D
:101E1000821B930B909374018093730180917A00DD
:101E20008F7E80937A0080917A008F7780937A00FA
:101E300080917C008B7F80937C0080917C008D7FE3
:101E400080937C0080917C00816080937C008091F5
:101E50007A00806880937A0080917A008064809311
:101E60007A0080917A0084FFFCCF20917800309135
:101E7000790080E094E0821B930B90937E01809325
:101E80007D0120917A002F7E20937A0020917301AA
:101E900030917401280F391F6E9A293E33401CF08F
:101EA000769881E00895769A80917A008F77809372
:101EB0007A0080917C008E7F80937C0080917C00F2
:101EC0008D7F80937C0080917C00846080937C0077
:101ED00080917A00806880937A0080917A00806493
:101EE00080937A0080917A0084FFFCCF2091780063
:101EF0003091790080E094E0821B930B90937601FF
:101F00008093750180917A008F7E80937A00809112
:101F10007A008F7780937A0080917C008160809333
:101F20007C0080917A00806880937A0080917A00AA
:101F3000806480937A0080917A0084FFFCCF2091A6
:101F400078003091790080E094E0821B930B9093AD
:101F500078018093770180917A008F7E80937A0058
:101F600080917A008F7780937A0080917C008E7FB9
:101F700080937C0080917C00826080937C008091C3
:101F80007A00806880937A0080917A0080648093E0
:101F90007A0080917A0084FFFCCF20917800309104
:101FA000790080E094E0821B930B90937A018093F8
:101FB000790180917A008F7E80937A0080917A00F7
:101FC0008F7780937A0080917C00816080937C0081
:101FD00080917A00806880937A0080917A00806492
:101FE00080937A0080917A0084FFFCCF2091780062
:101FF0003091790080E094E0821B930B90937C01F8
:1020000080937B0180917A008F7E80937A0083E7B2
:1020100091E00E945C0D8639910534F48AE596E0E2
:102020000E94B82280E0089580917301909174011C
:102030000E94202386E596E00E94B82280917D01CF
:1020400090917E010E94202382E596E00E94B822B2
:1020500080917501909176010E9420238EE496E094
:102060000E94B82280917701909178010E942023EC
:102070008AE496E00E94B8228091790190917A01D9
:102080000E94202386E496E00E94B82280917B0182
:1020900090917C010E94202384E496E00E94B82263
:1020A00080917501909176018739910514F082E055
:1020B0000895809177019091780187399105BCF757
:1020C0008091790190917A018739910584F7809107
:1020D0007B0190917C01873991054CF783E008954D
:1020E00080E885BF85BFECE7F0E080818F77808353
:1020F000808180648083EAE7F0E080818160808372
:10210000808182608083808184608083EEE7F0E05C
:102110008081816080838081826080838081806112
:1021200080838081806280838081806480838081DD
:102130008068808308958F929F92AF92BF92CF92D2
:10214000DF92EF92FF920F931F93CF93DF936091F3
:1021500075017091760140917701509178018B0162
:10216000041B150B109372010093710120917901EA
:1021700030917A0180917B0190917C01E901C81B2B
:10218000D90BD0938001C0937F01460F571F820F58
:10219000931F841795070CF097C06801EE24D7FCB5
:1021A000E094FE2CC0913E01D0913F0160918800E7
:1021B0007091890080E090E0101611060CF042C08A
:1021C0000E9443282BE037ED43EA5EE30E94F928A2
:1021D0004B015C01C701B6010E9445282DEC3CEC87
:1021E0004CEC5DE30E94F9289B01AC01C501B401F0
:1021F0000E9442276B017C01B8016C1B7D0B882774
:1022000077FD8095982F0E9445282AE037ED43E21C
:102210005CE30E94F9289B01AC01C701B6010E9452
:1022200041270E94172870938D0060938C00809145
:102230008C0090918D0090938B0080938A002A9A55
:102240002B9806C10E9443282BE037ED43EA5EE35A
:102250000E94F9284B015C01C701B6010E94452884
:102260002DEC3CEC4CEC5DE30E94F9289B01AC01A9
:10227000C501B4010E9441276B017C01B8016C1BB0
:102280007D0B882777FD8095982F0E9445282AE0AE
:1022900037ED43E25CE30E94F9289B01AC01C701E2
:1022A000B6010E9442270E94172870938D00609308
:1022B0008C0080918C0090918D0090938B00809386
:1022C0008A002A982B9AC4C06E01EE24D7FCE094B1
:1022D000FE2C00913C0110913D01609188007091AD
:1022E000890080E090E01C161D060CF058C00E948A
:1022F00043282DEC3CEC4CE45FE30E94F9284B01B1
:102300005C01C701B6010E9445282DEC3CEC4CEC69
:102310005DE30E94F9289B01AC01C501B4010E9454
:1023200041276B017C01BE01601B710B882777FD83
:102330008095982F0E9445282AE037ED43E25CE320
:102340000E94F9289B01AC01C701B6010E944127F8
:102350000E94172870938D0060938C0080918C00F0
:1023600090918D0090938B0080938A002A9A2B98ED
:1023700084E396E00E94B82280918C0090918D00B9
:102380000E94EC228FE196E00E94B82280918A00A0
:1023900090918B000E94EC228DE196E057C00E9444
:1023A00043282DEC3CEC4CE45FE30E94F9284B0100
:1023B0005C01C701B6010E9445282DEC3CEC4CECB9
:1023C0005DE30E94F9289B01AC01C501B4010E94A4
:1023D00042276B017C01BE01601B710B882777FDD2
:1023E0008095982F0E9445282AE037ED43E25CE370
:1023F0000E94F9289B01AC01C701B6010E94422747
:102400000E94172870938D0060938C0080918C003F
:1024100090918D0090938B0080938A002A982B9A3C
:102420008CE096E00E94B82280918C0090918D0003
:102430000E94EC2288EF95E00E94B82280918A00E9
:1024400090918B000E94EC2286EF95E00E94B822CA
:10245000809171019091720190933F0180933E01B0
:1024600090933D0180933C01DF91CF911F910F919B
:10247000FF90EF90DF90CF90BF90AF909F908F90A4
:1024800008958F929F92AF92BF92CF92DF92EF9278
:10249000FF920F931F93CF93DF93E0917501F0911B
:1024A000760160917701709178019F01261B370BAF
:1024B00030937201209371014091790150917A011A
:1024C00020917B0130917C01EA01C21BD30BD09398
:1024D0008001C0937F016E0F7F1F240F351F2617C9
:1024E000370714F00C943A1B0E94E8030E94F10A8B
:1024F000813009F40AC224F4882351F00C94FE1BA5
:10250000823009F45EC4833009F4A2C60C94FE1B29
:102510008CEE95E00E94B822C0917101D0917201B9
:102520001C161D060CF013C1809177019091780163
:10253000803991400CF095C0BE01882777FD8095C9
:10254000982F0E9445282DEC3CEC4CEC5EE30E9459
:10255000F9286B017C0180913E0190913F01BE0101
:10256000681B790B882777FD8095982F0E94452856
:102570002FE832EC45EF5CE30E94F9289B01AC01A7
:10258000C701B6010E9441270E94172870938D0051
:1025900060938C00C0917501D0917601C03981E0C3
:1025A000D807ECF560918C0070918D0080E090E090
:1025B0000E9443286B017C0160E971E06C1B7D0B7C
:1025C000660F771F882777FD8095982F0E944528F2
:1025D0004B015C018091430190914401BE01681B55
:1025E000790B882777FD8095982F0E9445282DEC40
:1025F0003CEC4CE45EE30E94F9289B01AC01C50170
:10260000B4010E9442279B01AC01C701B6010E94A0
:1026100042270E94172870938D0060938C00809150
:102620008C0090918D0090938B0080938A002A9A61
:102630002B988CED95E00E94B82280918C009091AF
:102640008D000E94EC2287EC95E00E94B8228091D8
:102650008A0090918B000E94EC2285EC95E00C940E
:10266000FC1B609188007091890080E090E00E94DE
:1026700043282DEC3CEC4CE45FE30E94F9280E94D7
:10268000172870938D0060938C0060918800709182
:102690008900C0917101D091720180E090E00E94A8
:1026A00043282DEC3CEC4CE45FE30E94F9286B01DD
:1026B0007C01BE01882777FD8095982F0E944528D0
:1026C0002DE33AE047E55EE30E94F9289B01AC0167
:1026D000C701B6010E9441276B017C0180913E0138
:1026E00090913F01BE01681B790B882777FD80958B
:1026F000982F0E9445282FE832EC45E75CE30E94C2
:10270000F9289B01AC01C701B6010E9442270E9433
:10271000172870938B0060938A002A9A2B9A85EB76
:1027200095E00E94B82280918C0090918D000E94CB
:10273000EC2281EA95E00E94B82280918A00909173
:102740008B000E94EC228FE995E00C94FC1B809199
:102750007501909176016E01EE24D7FCE094FE2C79
:1027600000913E0110913F01803991400CF063C00F
:10277000C701B6010E9445282DEC3CEC4CEC5EEB09
:102780000E94F9286B017C01BE01601B710B882738
:1027900077FD8095982F0E9445282FE832EC45EF71
:1027A0005CE30E94F9289B01AC01C701B6010E94BD
:1027B00042270E94172870938D0060938C008091AF
:1027C00077019091780180399140A4F420918C0098
:1027D00030918D0080E991E040914101509142019A
:1027E000841B950B880F991F820F931F90938D0068
:1027F00080938C0080918C0090918D0090938B0041
:1028000080938A002A982B9A8EE895E00E94B8223D
:1028100080918C0090918D000E94EC228AE795E0D7
:102820000E94B82280918A0090918B000E94EC2235
:1028300088E795E0E1C7609188007091890080E0A9
:1028400090E00E9443282DEC3CEC4CE45FE30E94B6
:10285000F9284B015C01C701B6010E9445282DE310
:102860003AE047E55EE30E94F9289B01AC01C5010F
:10287000B4010E9442276B017C01BE01601B710BF9
:10288000882777FD8095982F0E9445282FE832EC05
:1028900045E75CE30E94F9289B01AC01C701B60142
:1028A0000E9441270E94172870938D0060938C002E
:1028B000609188007091890080E090E00E94432838
:1028C0002DEC3CEC4CE45FE30E94F9280E941728B1
:1028D00070938B0060938A002A9A2B9A88E695E081
:1028E0000E94B82280918C0090918D000E94EC2271
:1028F00084E595E00E94B82280918A0090918B0037
:102900000E94EC2282E595E077C788E495E00E947A
:10291000B822C0917101D0917201609188007091CC
:1029200089001C161D060CF026C1CE3E82E0D80799
:102930000CF070C080E090E00E9443282DEC3CEC4D
:102940004CE45FE30E94F9286B017C016EEE72E0BB
:102950006C1B7D0B882777FD8095982F0E9445285A
:102960002DEC3CEC4CEC5EE30E94F9289B01AC01A1
:10297000C701B6010E9441276B017C0180913E0195
:1029800090913F01BE01681B790B882777FD8095E8
:10299000982F0E9445282DEC3CEC4CEC5CE30E9407
:1029A000F9289B01AC01C701B6010E9441270E9492
:1029B000172870938D0060938C006091880070914F
:1029C000890080E090E00E9443282DEC3CEC4CE430
:1029D0005FE30E94F9280E94172870938B00609390
:1029E0008A002A9A2B9A88E395E00E94B822809167
:1029F0008C0090918D000E94EC2284E295E00E9470
:102A0000B82280918A0090918B000E94EC2282E291
:102A100095E0F2C680E090E0C335D3400CF470C07E
:102A20000E9443282DEC3CEC4CE45FE30E94F92823
:102A30000E94172870938D0060938C00609188002D
:102A400070918900C0917101D091720180E090E095
:102A50000E9443282DEC3CEC4CE45FE30E94F928F3
:102A60006B017C01CE0182559340BC01660F771F3C
:102A7000680F791F882777FD8095982F0E94452839
:102A80009B01AC01C701B6010E9441276B017C018B
:102A900080913E0190913F01BE01681B790B882710
:102AA00077FD8095982F0E9445282DEC3CEC4CE456
:102AB0005EE30E94F9289B01AC01C701B6010E94A8
:102AC00042270E94172870938B0060938A002A9AED
:102AD0002B9A82E195E00E94B82280918C0090911F
:102AE0008D000E94EC228EEF94E00E94B82280912B
:102AF0008A0090918B000E94EC228CEF94E07CC6BF
:102B00000E9443282DEC3CEC4CE45FE30E94F92842
:102B10000E94172870938D0060938C00609188004C
:102B20007091890080E090E00E9443282DEC3CECFD
:102B30004CE45FE30E94F9280E94172870938B00F1
:102B400060938A002A9A2B9A8CEE94E00E94B82215
:102B500080918C0090918D000E94EC2288ED94E091
:102B60000E94B82280918A0090918B000E94EC22F2
:102B700086ED94E041C6C3318DEFD8070CF473C0E5
:102B800080E090E00E9443282DEC3CEC4CE45FE3B5
:102B90000E94F9280E94172870938D0060938C0082
:102BA0006091880070918900C0917101D09172018B
:102BB00080E090E00E9443282DEC3CEC4CE45FE385
:102BC0000E94F9286B017C01BE0162517D4F88276C
:102BD00077FD8095982F0E9445282DEC3CEC4CEC1D
:102BE0005EE30E94F9289B01AC01C701B6010E9477
:102BF00041276B017C0180913E0190913F01BE0114
:102C0000681B790B882777FD8095982F0E944528AF
:102C10002DEC3CEC4CEC5CE30E94F9289B01AC01F0
:102C2000C701B6010E9442270E94172870938B00AB
:102C300060938A002A9A2B9A86EC94E00E94B8222C
:102C400080918C0090918D000E94EC2282EB94E0A8
:102C50000E94B82280918A0090918B000E94EC2201
:102C600080EB94E0C9C580E090E0CE3A2CEFD2072B
:102C70000CF06CC00E9443282DEC3CEC4CE45FE36C
:102C80000E94F9286B017C01CE018E5A9C4FBC0139
:102C9000660F771F680F791F882777FD8095982F1B
:102CA0000E9445289B01AC01C701B6010E94422742
:102CB0006B017C0180913E0190913F01BE01681B38
:102CC000790B882777FD8095982F0E9445282DEC59
:102CD0003CEC4CE45EE30E94F9289B01AC01C70187
:102CE000B6010E9441270E94172870938D006093BF
:102CF0008C00609188007091890080E090E00E94D3
:102D000043282DEC3CEC4CE45FE30E94F9280E9440
:102D1000172870938B0060938A002A9A2B9A80EA76
:102D200094E00E94B82280918C0090918D000E94C6
:102D3000EC228CE894E00E94B82280918A00909165
:102D40008B000E94EC228AE894E056C50E9443283A
:102D50002DEC3CEC4CE45FE30E94F9280E9417281C
:102D600070938D0060938C00609188007091890051
:102D700080E090E00E9443282DEC3CEC4CE45FE3C3
:102D80000E94F9280E94172870938B0060938A0094
:102D90002A9A2B9A8AE794E00E94B82280918C00AC
:102DA00090918D000E94EC2286E694E00E94B82269
:102DB00080918A0090918B000E94EC2284E694E03E
:102DC0001BC58AE594E00E94B822C0917101D091A0
:102DD00072011C161D060CF011C1CE3E82E0D80710
:102DE0000CF078C0609188007091890080E090E0DC
:102DF0000E9443282DEC3CEC4CE45FE30E94F92850
:102E00000E94172870938D0060938C006091880059
:102E100070918900C0917101D091720180E090E0C1
:102E20000E9443282DEC3CEC4CE45FE30E94F9281F
:102E30006B017C016EEE72E06C1B7D0B882777FDC9
:102E40008095982F0E9445282DEC3CEC4CEC5EE3DD
:102E50000E94F9289B01AC01C701B6010E944227DC
:102E60006B017C0180913E0190913F01BE01681B86
:102E7000790B882777FD8095982F0E9445282DECA7
:102E80003CEC4CEC5CE30E94F9289B01AC01C701CF
:102E9000B6010E9442270E94172870938B0060930E
:102EA0008A002A9A2B9A8AE494E00E94B8228091A0
:102EB0008C0090918D000E94EC2286E394E00E94A9
:102EC000B82280918A0090918B000E94EC2284E3CA
:102ED00094E092C4BE01882777FD8095982F0E94C8
:102EE00045282DEC3CEC4CEC5EE30E94F9286B018C
:102EF0007C0180913E0190913F01BE01681B790BDE
:102F0000882777FD8095982F0E9445282FE832EC7E
:102F100045EF5CE30E94F9289B01AC01C701B601B3
:102F20000E9441270E94172870938D0060938C00A7
:102F3000C0917501D0917601C03921E0D207ECF53E
:102F400060918C0070918D0080E090E00E94432899
:102F50006B017C0160E971E06C1B7D0B660F771FD4
:102F6000882777FD8095982F0E9445284B015C01AA
:102F70008091430190914401BE01681B790B882721
:102F800077FD8095982F0E9445282DEC3CEC4CE471
:102F90005EE30E94F9289B01AC01C501B4010E94C7
:102FA00042279B01AC01C701B6010E9442270E9443
:102FB000172870938D0060938C0080918C00909105
:102FC0008D0090938B0080938A002A9A2B9884E23C
:102FD00094E00E94B82280918C0090918D000E9414
:102FE000EC228FE094E00E94B82280918A009091B8
:102FF0008B000E94EC228DE094E0FEC3609188007B
:1030000070918900C3318DEFD8070CF473C080E054
:1030100090E00E9443282DEC3CEC4CE45FE30E94DE
:10302000F9280E94172870938D0060938C0060919E
:10303000880070918900C0917101D091720180E087
:1030400090E00E9443282DEC3CEC4CE45FE30E94AE
:10305000F9286B017C01BE0162517D4F882777FD05
:103060008095982F0E9445282DEC3CEC4CEC5EE3BB
:103070000E94F9289B01AC01C701B6010E944127BB
:103080006B017C0180913E0190913F01BE01681B64
:10309000790B882777FD8095982F0E9445282DEC85
:1030A0003CEC4CEC5CE30E94F9289B01AC01C701AD
:1030B000B6010E9442270E94172870938B006093EC
:1030C0008A002A9A2B9A8DEF93E00E94B822809171
:1030D0008C0090918D000E94EC2289EE93E00E947A
:1030E000B82280918A0090918B000E94EC2287EE9A
:1030F00093E082C380E090E0CE3A2CEFD2070CF050
:103100006CC00E9443282DEC3CEC4CE45FE30E9431
:10311000F9286B017C01CE018E5A9C4FBC01660FD1
:10312000771F680F791F882777FD8095982F0E9459
:1031300045289B01AC01C701B6010E9442276B01E3
:103140007C0180913E0190913F01BE01681B790B8B
:10315000882777FD8095982F0E9445282DEC3CEC20
:103160004CE45EE30E94F9289B01AC01C701B60163
:103170000E9441270E94172870938D0060938C0055
:10318000609188007091890080E090E00E9443285F
:103190002DEC3CEC4CE45FE30E94F9280E941728D8
:1031A00070938B0060938A002A9A2B9A87ED93E0A4
:1031B0000E94B82280918C0090918D000E94EC2298
:1031C00083EC93E00E94B82280918A0090918B005A
:1031D0000E94EC2281EC93E00FC30E9443282DEC67
:1031E0003CEC4CE45FE30E94F9280E94172870939E
:1031F0008D0060938C00609188007091890080E060
:1032000090E00E9443282DEC3CEC4CE45FE30E94EC
:10321000F9280E94172870938B0060938A002A9ADD
:103220002B9A81EB93E00E94B82280918C009091C0
:103230008D000E94EC228DE993E00E94B8228091DB
:103240008A0090918B000E94EC228BE993E0D4C21B
:1032500081E993E00E94B822C0917101D09172017E
:10326000D7FFDEC000913E0110913F01C3318DEFC9
:10327000D8070CF46FC0609188007091890080E0DD
:1032800090E00E9443282DEC3CEC4CE45FE30E946C
:10329000F9286B017C01BE0162517D4F882777FDC3
:1032A0008095982F0E9445282DEC3CEC4CEC5EE379
:1032B0000E94F9289B01AC01C701B6010E94422778
:1032C0006B017C01BE01601B710B882777FD809527
:1032D000982F0E9445282DEC3CEC4CEC5CE30E94BE
:1032E000F9289B01AC01C701B6010E9441270E9449
:1032F000172870938D0060938C0060918800709106
:10330000890080E090E00E9443282DEC3CEC4CE4E6
:103310005FE30E94F9280E94172870938B00609346
:103320008A002A9A2B9A81E893E00E94B822809121
:103330008C0090918D000E94EC228DE693E00E941B
:10334000B82280918A0090918B000E94EC228BE63B
:1033500093E052C2BE01882777FD8095982F0E9486
:1033600045282DEC3CEC4CEC5EEB0E94F9286B01FF
:103370007C01BE01601B710B882777FD8095982F1B
:103380000E9445282FE832EC45EF5CE30E94F928C3
:103390009B01AC01C701B6010E9442270E94172879
:1033A00070938D0060938C008091770190917801EB
:1033B00080399140A4F420918C0030918D0080E9F7
:1033C00091E04091410150914201841B950B880F7F
:1033D000991F820F931F90938D0080938C00809192
:1033E0008C0090918D0090938B0080938A002A9896
:1033F0002B9A8AE593E00E94B82280918C009091EC
:103400008D000E94EC2286E493E00E94B822809115
:103410008A0090918B000E94EC2284E493E0ECC13E
:103420006091880070918900CE3E82E0D8070CF050
:1034300070C080E090E00E9443282DEC3CEC4CE40E
:103440005FE30E94F9286B017C016EEE72E06C1B59
:103450007D0B882777FD8095982F0E9445282DECBD
:103460003CEC4CEC5EE30E94F9289B01AC01C701E7
:10347000B6010E9441276B017C0180913E01909131
:103480003F01BE01681B790B882777FD8095982F37
:103490000E9445282DEC3CEC4CEC5CE30E94F928A2
:1034A0009B01AC01C701B6010E9441270E94172869
:1034B00070938D0060938C006091880070918900FA
:1034C00080E090E00E9443282DEC3CEC4CE45FE36C
:1034D0000E94F9280E94172870938B0060938A003D
:1034E0002A9A2B9A84E393E00E94B82280918C0060
:1034F00090918D000E94EC2280E293E00E94B8221D
:1035000080918A0090918B000E94EC228EE193E0E2
:1035100073C180E090E0C335D3400CF470C00E94CA
:1035200043282DEC3CEC4CE45FE30E94F9280E9418
:10353000172870938D0060938C00609188007091C3
:103540008900C0917101D091720180E090E00E94E9
:1035500043282DEC3CEC4CE45FE30E94F9286B011E
:103560007C01CE0182559340BC01660F771F680F26
:10357000791F882777FD8095982F0E9445289B0109
:10358000AC01C701B6010E9441276B017C0180910B
:103590003E0190913F01BE01681B790B882777FDA2
:1035A0008095982F0E9445282DEC3CEC4CE45EE37E
:1035B0000E94F9289B01AC01C701B6010E94422775
:1035C0000E94172870938B0060938A002A9A2B9A86
:1035D0008EE093E00E94B82280918C0090918D0043
:1035E0000E94EC228AEF92E00E94B82280918A0029
:1035F00090918B000E94EC2288EF92E0FDC00E9427
:1036000043282DEC3CEC4CE45FE30E94F9280E9437
:10361000172870938D0060938C00609188007091E2
:10362000890080E090E00E9443282DEC3CEC4CE4C3
:103630005FE30E94F9280E94172870938B00609323
:103640008A002A9A2B9A88EE92E00E94B8228091F2
:103650008C0090918D000E94EC2284ED92E00E94FB
:10366000B82280918A0090918B000E94EC2282ED1A
:1036700092E0C2C06E01EE24D7FCE094FE2C0091D3
:103680003C0110913D01609188007091890080E0BB
:1036900090E01C161D060CF058C00E9443282DEC2B
:1036A0003CEC4CE45FE30E94F9284B015C01C7014C
:1036B000B6010E9445282DEC3CEC4CEC5DE30E94E9
:1036C000F9289B01AC01C501B4010E9441276B019F
:1036D0007C01BE01601B710B882777FD8095982FB8
:1036E0000E9445282AE037ED43E25CE30E94F92876
:1036F0009B01AC01C701B6010E9441270E94172817
:1037000070938D0060938C0080918C0090918D005F
:1037100090938B0080938A002A9A2B9882EC92E0F7
:103720000E94B82280918C0090918D000E94EC2222
:103730008DEA92E00E94B82280918A0090918B00DD
:103740000E94EC228BEA92E057C00E9443282DECA5
:103750003CEC4CE45FE30E94F9284B015C01C7019B
:10376000B6010E9445282DEC3CEC4CEC5DE30E9438
:10377000F9289B01AC01C501B4010E9442276B01ED
:103780007C01BE01601B710B882777FD8095982F07
:103790000E9445282AE037ED43E25CE30E94F928C5
:1037A0009B01AC01C701B6010E9442270E94172865
:1037B00070938D0060938C0080918C0090918D00AF
:1037C00090938B0080938A002A982B9A8AE992E042
:1037D0000E94B82280918C0090918D000E94EC2272
:1037E00086E892E00E94B82280918A0090918B0036
:1037F0000E94EC2284E892E00E94B822809171013C
:103800009091720190933F0180933E0180917F01DE
:103810009091800190933D0180933C0180917501CE
:1038200090917601909344018093430180917701B8
:10383000909178019093420180934101DF91CF9163
:103840001F910F91FF90EF90DF90CF90BF90AF90BE
:103850009F908F900895589A599A5A9A8CE0809325
:10386000B800E9E6F0E080818062808380818F7E0D
:103870008083EA9A7894089584E88093BC008091CC
:10388000BC0087FFFCCF8091BB00089584E9809342
:10389000BC00089520E030E08091BC0087FD06C0A8
:1038A0002F5F3F4F293E83E03807B1F781E0283E84
:1038B000334009F480E008958093BB0084E880934E
:1038C000BC000E944A1C882321F08091B900887FA7
:1038D000089580E008951F93CF93DF931F92CDB793
:1038E000DEB7182F84EA8093BC0069830E944A1CCB
:1038F0006981811104C094E99093BC0014C0812FA8
:10390000880F662331F08F5F0E945C1C883451F46D
:1039100004C00E945C1C803229F484E98093BC00BE
:1039200080E001C081E00F90DF91CF911F91089559
:10393000CF93DF93C82FD62F60E00E946B1C8823A3
:1039400091F08D2F0E945C1C882369F084E980939C
:10395000BC0061E08C2F0E946B1C882321F0DF915A
:10396000CF910C943C1C80E0DF91CF910895CF93D0
:10397000DF93D62FC42F60E00E946B1C811102C020
:1039800080E00EC08D2F0E945C1C8823C9F38C2F11
:103990000E945C1C8823A1F384E98093BC0081E031
:1039A000DF91CF910895CF93DF9300D01F92CDB7D1
:1039B000DEB74B836A8389830E942B1C94EA909321
:1039C000BC0089816A814B819091BC0097FFFCCF3C
:1039D00090E59093BB0094E89093BC009091BC005C
:1039E00097FFFCCF9091B900987F903229F484E939
:1039F0008093BC0080E029C091E09093BB0094E8E4
:103A00009093BC009091BC0097FFFCCF8093BB00CB
:103A100084E88093BC008091BC0087FFFCCF60935A
:103A2000BB0084E88093BC008091BC0087FFFCCF82
:103A30004093BB0084E88093BC008091BC0087FF6A
:103A4000FCCF84E98093BC0081E00F900F900F9031
:103A5000DF91CF91089524EA2093BC002091BC000F
:103A600027FFFCCF21E52093BB0024E82093BC0076
:103A70002091BC0027FFFCCF2091B900287F28347B
:103A8000A9F024EC2093BC002091BC0027FFFCCFC0
:103A90002091BB0026130AC0FC0120E030E077270C
:103AA00067FD70956150710944EC0EC084E9809304
:103AB000BC0080E008955091BC0057FFFCCF5091AE
:103AC000BB0051932F5F3F4F261737071CF44093DD
:103AD000BC00F1CF44E84093BC004091BC0047FFDC
:103AE000FCCF4091BB00FC01E20FF31F408384E94F
:103AF0008093BC0081E00895F89494EA9093BC0010
:103B00009091BC0097FFFCCF90E59093BB0094E8A8
:103B10009093BC009091BC0097FFFCCF9091B900AE
:103B2000987F903231F484E98093BC00789480E0EF
:103B3000089593E09093BB0094E89093BC0090911B
:103B4000BC0097FFFCCF8093BB0084E88093BC004F
:103B50008091BC0087FFFCCFFB01552747FD5095A6
:103B600024E8CF01861B970B8417950754F48191A5
:103B70008093BB002093BC008091BC0087FFFCCFEA
:103B8000F0CF84E98093BC00789481E0089580911F
:103B9000E80080FFFCCF089581E08093D70080EAA1
:103BA0008093D80082E189BD09B400FEFDCF80E991
:103BB0008093D8001092E0001092480110924501C5
:103BC0008CE08093E20078940895809148010895F4
:103BD0009FB7F89480914801882339F083E080935F
:103BE000E9008091E80085FD03C09FBF8FEF089535
:103BF0008091F1002091E80025FD03C02BE6209381
:103C0000E8009FBF08959FB7F894809148018823EA
:103C100031F083E08093E9008091F20001C080E000
:103C20009FBF089580914801882371F08FB7F89461
:103C300093E09093E9002BE69091E80095FF03C094
:103C40002093E800F9CF8FBF089590914801992300
:103C500071F09FB7F89424E02093E9002091460189
:103C6000222349F02091E80025FD03C09FBF8FEF7C
:103C70000895109246012091E400275E34E04091BF
:103C8000E80045FD12C09FBF9091E400921304C06C
:103C900081E080934601EBCF90914801992339F35D
:103CA0009FB7F8943093E900EACF8093F1008091B8
:103CB000E80085FD03C08AE38093E80085E08093F7
:103CC00047019FBF80E00895909148019923D1F06A
:103CD0009FB7F89424E02093E9002091E80025FDA7
:103CE00002C09FBF0FC08093F1008091E80085FD66
:103CF00003C08AE38093E80085E0809347019FBF7B
:103D000080E008958FEF0895EF92FF921F93CF9375
:103D1000DF937C01CB0120914801222371F0AFB7E2
:103D2000F89424E02093E90020914601222349F0F1
:103D30002091E80025FD03C0AFBF8FEF42C2109273
:103D40004601B4E0C0E4DAE315E0009709F437C2B5
:103D50002091E400275E3091E80035FD12C0AFBF2E
:103D60003091E400321304C081E080934601E5CF36
:103D700030914801332309F3AFB7F894B093E900C9
:103D8000EACF2091F2004C2F421B242F30E0821703
:103D9000930708F4482F841B910950E041345105E2
:103DA00008F0FDC14A5A5F4FFA010C94B329F7019C
:103DB00020812093F10097012F5F3F4F7901F70198
:103DC00020812093F10097012F5F3F4F7901F70188
:103DD00020812093F10097012F5F3F4F7901F70178
:103DE00020812093F10097012F5F3F4F7901F70168
:103DF00020812093F10097012F5F3F4F7901F70158
:103E000020812093F10097012F5F3F4F7901F70147
:103E100020812093F10097012F5F3F4F7901F70137
:103E200020812093F10097012F5F3F4F7901F70127
:103E300020812093F10097012F5F3F4F7901F70117
:103E400020812093F10097012F5F3F4F7901F70107
:103E500020812093F10097012F5F3F4F7901F701F7
:103E600020812093F10097012F5F3F4F7901F701E7
:103E700020812093F10097012F5F3F4F7901F701D7
:103E800020812093F10097012F5F3F4F7901F701C7
:103E900020812093F10097012F5F3F4F7901F701B7
:103EA00020812093F10097012F5F3F4F7901F701A7
:103EB00020812093F10097012F5F3F4F7901F70197
:103EC00020812093F10097012F5F3F4F7901F70187
:103ED00020812093F10097012F5F3F4F7901F70177
:103EE00020812093F10097012F5F3F4F7901F70167
:103EF00020812093F10097012F5F3F4F7901F70157
:103F000020812093F10097012F5F3F4F7901F70146
:103F100020812093F10097012F5F3F4F7901F70136
:103F200020812093F10097012F5F3F4F7901F70126
:103F300020812093F10097012F5F3F4F7901F70116
:103F400020812093F10097012F5F3F4F7901F70106
:103F500020812093F10097012F5F3F4F7901F701F6
:103F600020812093F10097012F5F3F4F7901F701E6
:103F700020812093F10097012F5F3F4F7901F701D6
:103F800020812093F10097012F5F3F4F7901F701C6
:103F900020812093F10097012F5F3F4F7901F701B6
:103FA00020812093F10097012F5F3F4F7901F701A6
:103FB00020812093F10097012F5F3F4F7901F70196
:103FC00020812093F10097012F5F3F4F7901F70186
:103FD00020812093F10097012F5F3F4F7901F70176
:103FE00020812093F10097012F5F3F4F7901F70166
:103FF00020812093F10097012F5F3F4F7901F70156
:1040000020812093F10097012F5F3F4F7901F70145
:1040100020812093F10097012F5F3F4F7901F70135
:1040200020812093F10097012F5F3F4F7901F70125
:1040300020812093F10097012F5F3F4F7901F70115
:1040400020812093F10097012F5F3F4F7901F70105
:1040500020812093F10097012F5F3F4F7901F701F5
:1040600020812093F10097012F5F3F4F7901F701E5
:1040700020812093F10097012F5F3F4F7901F701D5
:1040800020812093F10097012F5F3F4F7901F701C5
:1040900020812093F10097012F5F3F4F7901F701B5
:1040A00020812093F10097012F5F3F4F7901F701A5
:1040B00020812093F10097012F5F3F4F7901F70195
:1040C00020812093F10097012F5F3F4F7901F70185
:1040D00020812093F10097012F5F3F4F7901F70175
:1040E00020812093F10097012F5F3F4F7901F70165
:1040F00020812093F10097012F5F3F4F7901F70155
:1041000020812093F10097012F5F3F4F7901F70144
:1041100020812093F10097012F5F3F4F7901F70134
:1041200020812093F10097012F5F3F4F7901F70124
:1041300020812093F10097012F5F3F4F7901F70114
:1041400020812093F10097012F5F3F4F7901F70104
:1041500020812093F10097012F5F3F4F7901F701F4
:1041600020812093F10097012F5F3F4F7901F701E4
:1041700020812093F10097012F5F3F4F7901F701D4
:1041800020812093F10097012F5F3F4F7901F701C4
:1041900020812093F10097012F5F3F4F7901F701B4
:1041A00020812093F10097012F5F3F4F79012091EB
:1041B000E80025FFD093E80010934701C6CDAFBFBC
:1041C00080E0DF91CF911F91FF90EF9008958FB71E
:1041D000F89490914701992341F094E09093E9007D
:1041E0009AE39093E800109247018FBF0895809161
:1041F00004010895809105010895809106010895B4
:104200008091450108959FB7F89420914801222399
:1042100039F022E02093E9003091E80035FD03C039
:104220009FBF8FEF089531EA3093F10030E2309371
:10423000F1001092F1001092F1001092F100109232
:10424000F1002093F1001092F1008093F1001092A0
:10425000F1008AE38093E8009FBF80E008951F92F9
:104260000F920FB60F9211248F939F938091E100CC
:104270001092E10083FF11C01092E90091E0909349
:10428000EB001092EC0092E19093ED0098E0909397
:10429000F000109248011092450182FF13C08091F6
:1042A0004801882379F080914701882359F0815093
:1042B00080934701811106C084E08093E9008AE37E
:1042C0008093E8009F918F910F900FBE0F901F90E9
:1042D00018951F920F920FB60F921124EF92FF9232
:1042E0000F931F932F933F934F935F936F937F93FE
:1042F0008F939F93AF93BF93EF93FF93CF93DF93EE
:104300001F92CDB7DEB71092E9008091E80083FFDD
:1043100014C19091F1008091F1003091F100209151
:10432000F100E32EF12CF22A0091F1002091F1002E
:1043300010E0122B2091F1006091F10032EF3093E8
:10434000E800863009F046C036E082E996E0FC01DC
:10435000459154914E155F0539F4FC013296459113
:1043600054914017510721F00796315081F7E5C06D
:10437000FC01349645915491FC013696849130E0CD
:10438000362B2F3F310519F010F02FEF30E02817B2
:1043900008F4822F3EEF9091E800292F2570D9F381
:1043A00092FDCEC0982F813108F090E1FA01292FBB
:1043B000222331F064916093F10021503196F8CFBF
:1043C000490F511D891B3093E8008111E4CF9031D2
:1043D00011F3B6C0853051F48EEF8093E8000E944F
:1043E000C71D8E2D80688093E300AAC0893059F5DF
:1043F000911180C0E092480110924501109247014E
:104400008EEF8093E80041E08BE397E04093E90072
:104410009C012F5F3F4FFC0154915093EB005523BB
:1044200059F0F90124912093EC009C012D5F3F4F3E
:10443000319684918093ED004F5F453011F0C901B2
:10444000E5CF8EE175C0883051F4903809F052C044
:104450000E94C71D809148018093F10047C08132BE
:1044600079F4913A09F046C00E94C71DE0E0F1E0FE
:1044700081918093F10081E0E730F807C9F736C0F9
:10448000803299F49132B1F58091E80082FFFCCF3F
:10449000E0E0F1E08091F100819381E0E730F807FE
:1044A000C9F78BEF8093E80021C0823241F491324A
:1044B00009F043C0E09245010E94C71D17C0811159
:1044C00019C099830E94C71D9981923851F40093B5
:1044D000E9008091EB0085FB882780F91092E900C4
:1044E00001C080E08093F1001092F1008EEF809384
:1044F000E80026C0282F2D7F2130F9F49230E9F40E
:10450000EF28D9F40F779FEF900F9430B0F49EEF1F
:104510009093E8000093E900833079F089E180937B
:10452000EB0081E090E0002E01C0880F0A94EAF7CA
:104530008093EA001092EA0003C081E28093EB00CE
:104540000F90DF91CF91FF91EF91BF91AF919F912C
:104550008F917F916F915F914F913F912F911F911B
:104560000F91FF90EF900F900FBE0F901F90189536
:104570001F93CF93DF93EC01FE011491112351F0AF
:104580001A3019F48DE00E94251E812F0E94251EED
:104590002196F2CFDF91CF911F9108958A3010F4C8
:1045A00090E301C097E3890F0C94251ECF93C82F89
:1045B00082958F700E94CE228C2F8F70CF910C9499
:1045C000CE22CF93C82F892F0E94D6228C2FCF9135
:1045D0000C94D6220C94D622EF92FF920F931F9345
:1045E000CF93DF93CDB7DEB727970FB6F894DEBF32
:1045F0000FBECDBF8E010F5F1F4F27E0F801119254
:104600002A95E9F74AE0B8010E94B9297E01F8E04D
:10461000EF0EF11CF80181918F0181110E94251E7E
:104620000E151F05B9F727960FB6F894DEBF0FBE1B
:10463000CDBFDF91CF911F910F91FF90EF90089523
:10464000EF92FF920F931F93CF93DF9300D000D090
:1046500000D0CDB7DEB78E010F5F1F4F26E0F80107
:1046600011922A95E9F74AE0B8010E94F5297E01E6
:10467000F6E0EF0EF11CF80181918F0181110E948B
:10468000251E0E151F05B9F726960FB6F894DEBF46
:104690000FBECDBFDF91CF911F910F91FF90EF9093
:1046A0000895EF92FF920F931F93CF93DF93CDB7AF
:1046B000DEB72B970FB6F894DEBF0FBECDBF8E01CD
:1046C0000F5F1F4F2BE0F80111922A95E9F72AE0BE
:1046D000A8010E94C4297E01FCE0EF0EF11CF80144
:1046E00081918F0181110E94251E0E151F05B9F7BA
:1046F0002B960FB6F894DEBF0FBECDBFDF91CF91E2
:104700001F910F91FF90EF900895EF92FF920F93FA
:104710001F93CF93DF93CDB7DEB72B970FB6F894E7
:10472000DEBF0FBECDBF8E010F5F1F4F2BE0F80124
:1047300011922A95E9F72AE0A8010E94D3297E0167
:10474000FBE0EF0EF11CF80181918F0181110E94B5
:10475000251E0E151F05B9F72B960FB6F894DEBF70
:104760000FBECDBFDF91CF911F910F91FF90EF90C2
:10477000089520E030E08091BC0087FD06C02F5FE7
:104780003F4F293E83E03807B1F781E0283E3340B0
:1047900009F480E008958093BB0084E88093BC0016
:1047A0000E94B923882319F08091B900887F089569
:1047B000CF93C82F84EA8093BC000E94B92388233A
:1047C00061F08C2F880F0E94CB23803229F484E97A
:1047D0008093BC0080E001C081E0CF9108950E94E9
:1047E0002B1C88E50E94D823811102C080E0089527
:1047F00080E30E94CB238823C9F381E00E94CB236E
:104800008823A1F384E98093BC008FE39CE901979E
:10481000F1F700C0000088E50E94D823882331F317
:1048200080E00E94CB23882309F380E00E94CB2301
:104830008823E1F280E00E94CB238823B9F280E054
:104840000E94CB23882391F280E00E94CB2388230F
:1048500069F280E00E94CB23882341F280E00E942D
:10486000CB23882319F280E90E94CB23882309F403
:10487000BDCF84E98093BC008FE39CE90197F1F7F9
:1048800000C0000088E50E94D823882309F4AECF39
:1048900087E00E94CB23882309F4A8CF80E00E9400
:1048A000CB23882309F4A2CF81E40E94CB23882361
:1048B00009F49CCF84E98093BC008FE39CE90197C5
:1048C000F1F700C0000088E50E94D823882309F48E
:1048D0008DCF8AE10E94CB23882309F487CF80E41F
:1048E0000E94CB23882309F481CF80E00E94CB2350
:1048F000882309F47BCF84E98093BC008FE39CE993
:104900000197F1F700C0000088E50E94D8238823B2
:1049100009F46CCF83E30E94CB23882309F466CF8C
:1049200083E00E94CB23882309F460CF84E980933D
:10493000BC008FE39CE90197F1F700C0000088E517
:104940000E94D823882309F451CF80E30E94CB230F
:10495000882309F44BCF88E00E94CB23882309F4F5
:1049600045CF84E98093BC008FE39CE90197F1F780
:1049700000C0000081E00895CF93C82F84EA80939F
:10498000BC000E94B923882369F08C2F880F8F5FA9
:104990000E94CB23883429F484E98093BC0080E012
:1049A00001C081E0CF910895EF92FF920F931F9382
:1049B000CF93DF93CDB7DEB760970FB6F894DEBF25
:1049C0000FBECDBF7C018E010F5F1F4F80E1F8014C
:1049D00011928A95E9F788E50E94D823811102C0D7
:1049E00080E05EC086E30E94CB238823C9F384E97C
:1049F0008093BC00F5E8FA95F1F7000088E50E9485
:104A0000BC24882369F3F8019E01205F3F4F94EC9A
:104A10009093BC008091BC0087FFFCCF8091BB00CD
:104A20008193E217F307A1F784E88093BC0080919B
:104A3000BC0087FFFCCF8091BB00888B84E980930A
:104A4000BC00DE01149687016C91762F7073AD0166
:104A500042505109FA01808190E0F0E17F9F800D82
:104A6000911D1124F80191838083762F707C4F5F14
:104A70005F4FFA01808190E0F4E07F9F800D911DEF
:104A80001124F801938382836F70862F90E09583C1
:104A9000848313960A5F1F4FA217B307A9F681E01C
:104AA00060960FB6F894DEBF0FBECDBFDF91CF91F9
:104AB0001F910F91FF90EF90089584E98093BC00BF
:104AC000089584EF91E09093890080938800E1E855
:104AD000F0E080818B7F808380818D7F80838081E7
:104AE0008160808380818061808380818860808311
:104AF000E0E8F0E080818260808380818160808353
:104B000080818062808380818F7E808380818860C5
:104B1000808380818B7F8083269A279A08951F92B5
:104B20000F920FB60F9211242F933F934F935F93E1
:104B30006F937F938F939F93AF93BF93EF93FF9365
:104B40006E9A76986AE089E491E00E942B1D80912C
:104B5000490190E00E94EC228091490190E0FC0123
:104B6000E05AF109E830F10550F5E956FF4F0C9491
:104B7000B32988E797E00E94B82281E090E006C060
:104B800081E797E00E94B82282E090E09093540180
:104B90008093530114C089E697E00BC081E697E04B
:104BA00008C08AE597E005C080E597E002C085E48B
:104BB00097E00E94B82210925401109253016E9A0D
:104BC000769AFF91EF91BF91AF919F918F917F91D5
:104BD0006F915F914F913F912F910F900FBE0F906A
:104BE0001F901895189B25C082EA9EEF90931001A4
:104BF00080930F0186EF9FEF909312018093110134
:104C000084E690E090930C0180930B018AE090E0A1
:104C100090930E0180930D0122E731E0309308015B
:104C20002093070190930A01809309015F985E9A8F
:104C3000089582E791E09093100180930F018AE03C
:104C400090E090931201809311018CE99FEF909373
:104C50000C0180930B0186EF9FEF90930E018093E0
:104C60000D0122EA3EEF3093080120930701909353
:104C70000A01809309015F9A5E9808951F920F922E
:104C80000FB60F9211242F933F934F935F936F931F
:104C90007F938F939F93AF93BF93EF93FF930E9464
:104CA000F225FF91EF91BF91AF919F918F917F91ED
:104CB0006F915F914F913F912F910F900FBE0F9089
:104CC0001F90189520982198249A259A579A569AB9
:104CD00085B1836085B9E8E6F0E0808181608083FA
:104CE000EBE6F0E08081836080830C94F2256A9A81
:104CF0007298E1E6F0E080E8808310820E94CC1D8B
:104D00000E942B1C2FEF87EA91E6215080409040B3
:104D1000E1F700C000004AE06EE181E00E94D31C90
:104D20000E9470100E946125239A229A3E9A3F9A0F
:104D3000539A249A78940E9462260E94EF236A9ADA
:104D4000729A08950E9477268091530190915401A0
:104D50008130910579F08230910509F459C00097AE
:104D6000B9F710928B0010928A0010928D00109269
:104D70008C00EACF189B24C05F9A5E982FEF83ECDB
:104D800099E0215080409040E1F700C000005F981A
:104D90005E9A2FEF83EC99E0215080409040E1F73C
:104DA00000C000005F9A5E982FEF83EC99E02150DD
:104DB00080409040E1F700C000005F985E9A23C0F9
:104DC0005F985E9A2FEF83EC99E0215080409040ED
:104DD000E1F700C000005F9A5E982FEF83EC99E046
:104DE000215080409040E1F700C000005F985E9A3B
:104DF0002FEF83EC99E0215080409040E1F700C014
:104E000000005F9A5E9810925401109253019CCF5B
:104E10006A9A72980E94E00E813079F04CF4811108
:104E20002DC08BE091E00E944E0B8093130126C0B1
:104E3000823061F0833099F021C0469A8FE091E092
:104E40000E947D0910921301469818C0479A8FE07E
:104E500091E00E9441121092130147980FC02C9AC2
:104E600080911301882319F00E949B1006C08BE0EB
:104E700091E00E944E0B809313012C986A9A729ACB
:104E800063CF5058BB27AA270ED075C166D130F02A
:104E90006BD120F031F49F3F11F41EF45BC10EF48E
:104EA000E095E7FB51C1E92F77D180F3BA1762078C
:104EB00073078407950718F071F49EF58FC10EF4FF
:104EC000E0950B2EBA2FA02D0B01B90190010C011A
:104ED000CA01A0011124FF27591B99F0593F50F432
:104EE000503E68F11A16F040A22F232F342F44278A
:104EF000585FF3CF469537952795A795F040539582
:104F0000C9F77EF41F16BA0B620B730B840BBAF051
:104F10009150A1F0FF0FBB1F661F771F881FC2F7BC
:104F20000EC0BA0F621F731F841F48F487957795D0
:104F30006795B795F7959E3F08F0B3CF9395880F87
:104F400008F09927EE0F979587950895D9D008F422
:104F500081E008950CD00FC107D140F0FED030F0B1
:104F600021F45F3F19F0F0C0511139C1F3C014D1E1
:104F700098F39923C9F35523B1F3951B550BBB2720
:104F8000AA2762177307840738F09F5F5F4F220FCD
:104F9000331F441FAA1FA9F333D00E2E3AF0E0E8C6
:104FA00030D091505040E695001CCAF729D0FE2F12
:104FB00027D0660F771F881FBB1F261737074807A4
:104FC000AB07B0E809F0BB0B802DBF01FF2793585A
:104FD0005F4F2AF09E3F510568F0B6C000C15F3FA9
:104FE000ECF3983EDCF3869577956795B795F79542
:104FF0009F5FC9F7880F911D9695879597F908953A
:10500000E1E0660F771F881FBB1F621773078407D5
:10501000BA0720F0621B730B840BBA0BEE1F88F7E4
:10502000E095089504D06894B111D9C00895BCD01A
:1050300088F09F5790F0B92F9927B751A0F0D1F081
:10504000660F771F881F991F1AF0BA95C9F712C00B
:10505000B13081F0C3D0B1E00895C0C0672F782F80
:105060008827B85F39F0B93FCCF386957795679577
:10507000B395D9F73EF490958095709561957F4FE3
:105080008F4F9F4F0895E89409C097FB3EF4909589
:105090008095709561957F4F8F4F9F4F9923A9F011
:1050A000F92F96E9BB279395F695879577956795A0
:1050B000B795F111F8CFFAF4BB0F11F460FF1BC0E4
:1050C0006F5F7F4F8F4F9F4F16C0882311F096E977
:1050D00011C0772321F09EE8872F762F05C0662325
:1050E00071F096E8862F70E060E02AF09A95660FDE
:1050F000771F881FDAF7880F9695879597F9089597
:10510000990F0008550FAA0BE0E8FEEF16161706D8
:10511000E807F907C0F012161306E407F50798F040
:10512000621B730B840B950B39F40A2661F0232B59
:10513000242B252B21F408950A2609F4A140A695D5
:105140008FEF811D811D089597F99F6780E870E0BA
:1051500060E008959FEF80EC089500240A941616ED
:10516000170618060906089500240A941216130655
:10517000140605060895092E0394000C11F48823E3
:1051800052F0BB0F40F4BF2B11F460FF04C06F5FFF
:105190007F4F8F4F9F4F089557FD9058440F551FD5
:1051A00059F05F3F71F04795880F97FB991F61F0A9
:1051B0009F3F79F087950895121613061406551F20
:1051C000F2CF4695F1DF08C0161617061806991F8C
:1051D000F1CF86957105610508940895E894BB2781
:1051E00066277727CB0197F908958ADF08F48FEFB8
:1051F00008950BD0C0CFB1DF28F0B6DF18F09523AB
:1052000009F0A2CFA7CF1124EACFC6DFA0F3959F64
:10521000D1F3950F50E0551F629FF001729FBB279D
:10522000F00DB11D639FAA27F00DB11DAA1F649F49
:105230006627B00DA11D661F829F2227B00DA11DFC
:10524000621F739FB00DA11D621F839FA00D611D82
:10525000221F749F3327A00D611D231F849F600DA3
:10526000211D822F762F6A2F11249F5750408AF0DC
:10527000E1F088234AF0EE0FFF1FBB1F661F771F68
:10528000881F91505040A9F79E3F510570F05CCFA8
:10529000A6CF5F3FECF3983EDCF386957795679554
:1052A000B795F795E7959F5FC1F7FE2B880F911D86
:1052B0009695879597F9089511F40EF44BCF3EC05B
:1052C00073DFD0F39923D9F3CEF39F57550B87FFA4
:1052D00043D00024A0E640EA900180585695979567
:1052E00028F4805C660F771F881F20F02617370789
:1052F000480730F4621B730B840B202931294A2B99
:10530000A69517940794202531254A2758F7660F4C
:10531000771F881F20F026173707480730F4620BE5
:10532000730B840B200D311D411DA09581F7B90130
:10533000842F9158880F9695879508959F3F31F057
:10534000915020F4879577956795B795880F911DB3
:105350009695879597F9089591505040660F771F5D
:10536000881FD2F70895EE0FFF1F0590F491E02DEE
:105370000994BB274A3031F4992322F4BDE2909579
:1053800081959F4F0C94F629BB272A3051F499231D
:1053900042F4BDE290958095709561957F4F8F4F57
:1053A0009F4F0C94D429BB27FA01A62F62177105D1
:1053B00081059105330B30FB66F0AA27660F771F36
:1053C000881F991FAA1FA21710F0A21B63953850BF
:1053D000A9F7A05DAA3308F0A95DA19336F7B11132
:1053E000B1931082CA010C940F2ABB27FB015527E9
:1053F000AA27880F991FAA1FA41710F0A41B839532
:105400005051B9F7A05DAA3308F0A95DA1930097A8
:1054100079F7B111B1931192CB010C940F2ADC01F1
:10542000FC01672F71917723E1F7329704C07C91DB
:105430006D9370836291AE17BF07C8F30895F89417
:02544000FFCF9C
:1054420000E1000000000872010A0064000A00A2E4
:04545200FEF6FF0162
:00000001FF
